:1009B700010203FB040506FD070809FA00D10DFF34
:0C09C7007F057E047DF8DDFEDEFADFF621
:0109D3002201
:10098F00E4F510F511F50BF50AF509F508F50FF576
:06099F000EF50DF50C221F
:1004CB00E4F51C75900FE590640F7003020931126F
:1004DB0009C7E590640F606C75900FAF90EF24F532
:1004EB00601024FE601114601324077012E4F512DF
:1004FB00800D751201800875120280037512037549
:10050B0090F01209C7AF90EF2450601124E06011F6
:10051B0024F0601124707013851212800E74048005
:10052B000674088002740C2512F512C3E51B648057
:10053B0094E4500DE59064F060071209C7051B8029
:10054B00EAE4F51BE4D395125006E512940240231E
:10055B007404D395125006E512940640167408D312
:10056B0095125006E512940A4009E512640C6003DB
:10057B00020607E4F511E5107037FFFE7D207C4184
:10058B00AB0BAA0AA909A8081200FBC004C005C03E
:10059B0006C007E5129009B793FCE4120324D003BD
:1005AB00D002D001D00012000A8F0B8E0A8D098C5D
:1005BB0008E510D394004038E4FFFE7D207C41AB6E
:1005CB000FAA0EA90DA80C1200FBC004C005C00693
:1005DB00C007E5129009B793FCE4120324D003D0B3
:1005EB0002D001D00012000A8F0F8E0E8D0D8C0CD5
:1005FB00E5129009B7932430FF1209EBE512B4030F
:10060B00107511017510019009B7932430FF120971
:10061B00EBE512B407107511017510029009B79331
:10062B002430FF1209EBE512B40B10751101751094
:10063B00039009B7932430FF1209EBE512B40F10A6
:10064B007511017510049009B7932430FF1209EB53
:10065B00E512B40D257511017510059009B793249A
:10066B0030FF1209E0E4F510F511F50BF50AF50969
:10067B00F508F50FF50EF50DF50CE512640E60039C
:10068B00020931E51064017066AF0FAE0EAD0DAC13
:10069B000CAB0BAA0AA909A80812000A1203588F5F
:1006AB001A8E198D188C177FCF1209E07F0412094F
:1006BB00E0AF1AAE19AD18AC17EC4D4E4F602BE4F2
:1006CB007B0AFAF9F8120932EB2430FF1209EBAF6F
:1006DB001AAE19AD18AC17E47B0AFAF9F812093205
:1006EB008F1A8E198D188C1780C77F3D1209EBE579
:1006FB0010640260030207ACAF0FAE0EAD0DAC0C75
:10070B00AB0BAA0AA909A8081202A160144012ABEC
:10071B000FAA0EA90DA80CAF0BAE0AAD09AC088041
:10072B0010AB0BAA0AA909A808AF0FAE0EAD0DAC02
:10073B000C1200061203588F1A8E198D188C177F06
:10074B00CF1209E07F041209E0AF1AAE19AD18AC55
:10075B0017EC4D4E4F602BE47B0AFAF9F812093275
:10076B00EB2430FF1209EBAF1AAE19AD18AC17E43E
:10077B007B0AFAF9F81209328F1A8E198D188C1719
:10078B0080C7AF0FAE0EAD0DAC0CAB0BAA0AA9090F
:10079B00A8081202A150057F2D1209EB7F3D12090B
:1007AB00EBE51064037066AF0FAE0EAD0DAC0CAB8A
:1007BB000BAA0AA909A8081200FB1203588F1A8E5C
:1007CB00198D188C177FCF1209E07F041209E0AF47
:1007DB001AAE19AD18AC17EC4D4E4F602BE47B0ADB
:1007EB00FAF9F8120932EB2430FF1209EBAF1AAE0B
:1007FB0019AD18AC17E47B0AFAF9F81209328F1A03
:10080B008E198D188C1780C77F3D1209EBE510648C
:06081B0004600302093134
:10082100AB0FAA0EA90DA80CAF0BAE0AAD09AC080F
:100831001202047B007A40791C78461200FB1203F5
:10084100588F1A8E198D188C177FCF1209E07F04EB
:100851001209E0AF0FAE0EAD0DAC0CAB0BAA0AA99D
:1008610009A8081202A15061E47F64FEFDFCAB1AE5
:10087100AA19A918A817C31203E7504DAF1AAE1948
:10088100AD18AC17EC4D4E4F603F051DE47B0AFAE5
:10089100F9F8120932EB2430FF1209EBAF1AAE1945
:1008A100AD18AC17E47B0AFAF9F81209328F1A8EE7
:1008B100198D188C17E51DB402C27F301209EB7F28
:1008C1002E1209EBE4F51D80B3AF1AAE19AD18ACC9
:1008D10017EC4D4E4F603A051DE47B0AFAF9F81208
:1008E1000932EB2430FF1209EBAF1AAE19AD18AC87
:1008F10017E47B0AFAF9F81209328F1A8E198D184A
:100901008C17E51DB403C27F2E1209EBE4F51D809F
:10091100B8AF0FAE0EAD0DAC0CAB0BAA0AA909A86E
:10092100081202A150057F301209EB7F3D1209EB3D
:0109310022A3
:0809FF001209761204CB80FB03
:0809F6007FC77E01DEFEDFFA7F
:0109FE0022D6
:0909A500C2A78F801209F6D2A747
:0809AE007FB97E0CDEFEDFFACA
:0109B600221E
:0B09E000C2A5C2A6001209A5C2A722F2
:0B09EB00C2A5D2A6001209A5C2A722D7
:100976007F381209E07F0C1209E07F061209E07F3A
:09098600011209E07F800209E082
:100003000203C4E86480F8E933E83360110460F064
:10001300ED33EC337009E8FCE9FDEAFEEBFF220463
:1000230060DED3EB9FEA9EE99DE8C2E78CF0C2F75E
:1000330095F0400CE8CCF8E9CDF9EACEFAEBCFFB2A
:1000430012038F85D0F05804700320D5B3E80470F1
:10005300075002B2D50203CE92D5EC0460F7E4CC8C
:10006300C0E0C398F8603B94186008400DD0E0FBF3
:100073000203A6E4FBFAC9FC8028E830E406E4C9DD
:10008300FBE4CAFCE830E305E4C9CACBFCE8540747
:100093006010F8C3E913F9EA13FAEB13FBEC13FC52
:1000A300D8F130F52FC3E49CFCEF9BFFEE9AFEEDF5
:1000B30099FDD0E0FBEF4E4D4C701222DB0302039F
:1000C300CBEC2CFCEF33FFEE33FEED33FDED30E7ED
:1000D300EB0203A6EF2BFFEE3AFEED39FDD0E0FB7A
:1000E30050130BBB00030203CEED13FDEE13FEEF23
:0800F30013FFEC13FC0203A64D
:1000FB00EC4D6011E8497017ED33EC3304600DE4FF
:10010B00FCFFFEFD22E933E8330470F80203C4124E
:10011B00038F58046009E4CC24815006285009024F
:10012B0003CE2840030203CBC0E0EB4A7044B980F6
:10013B0006D0E0FB0203BAEF4E701CBD8008EBFF4C
:10014B00EAFEE9FD80EBE98DF0A4FEE5F00201E4A7
:10015B00E9CDF9EAFEEBFFEF89F0A4FCE5F0CE89DF
:10016B00F0A42EFFE435F0CD89F0A42DFEE435F09C
:10017B008067EF4E7005BD80D780C3EF8BF0A4ACCA
:10018B00F0EE8BF0A42CFCE435F0F8EF8AF0A42C05
:10019B00E5F038FCE433CB8DF0A42CFCE5F03BF818
:1001AB00EE8AF0A42CFCE5F038F8E433CF89F0A408
:1001BB002CFCE5F038CF3400CE89F0A42FFFE5F00E
:1001CB003EFEE433C98DF0A42EFEE5F039CD8AF066
:1001DB00A42FFFE5F03EFEE43DFD33D0E0FB5007DE
:1001EB000BBB000F0203CEEC2CFCEF33FFEE33FE08
:0601FB00ED33FD0203A636
:100201000203CEEC5D046005E8590470030203C4E7
:1002110012038F580460F6EC4860F2EC7004FDFEA6
:10022100FF22C860DB2481C85009C39860025006D0
:100231000203CB9850CAF582E9294B4A7005AB827B
:100241000203BA75F0007C1A7880C3EF9BEE9AED39
:1002510099400DC3EF9BFFEE9AFEED99FDE842F048
:10026100DC23ACF0D0E0FFD0E0FED0E0FDAB82209B
:10027100E7101BEB60BAEC2CFCEF33FFEE33FEED25
:1002810033FD0203A6E803F830E705C0F075F0007E
:10029100EF2FFFEE33FEED33FD40B830E7C280AA09
:1002A10074F8CC6480CCC86480C8F58204604FC304
:1002B100EB9FF5F0EA9E42F0E99D42F0E89C45F0A3
:1002C100603C501DE5825FFFE582D313CB5BCBF42D
:1002D1002B5582FB50280ABA002409B90020088056
:1002E1001DE5825BFBE582D313CF5FCFF4C3132FF0
:1002F1005582FF50090EBE00050DBD00010CC3EB78
:100301009FF5F0EA9E42F0E99D42F0E89C45F060DD
:0903110007CC4820E701B3EC22FF
:10031A0075F020800E75F010800575F0087D007E5E
:10032A00007F003392D530D5031203D9EC33401045
:10033A00EF33FFEE33FEED33FDEC33FCD5F0ED2267
:0E034A00E5F0247EA2D513CC92E7CDCEFF22A3
:10035800EDD2E7CD33EC3392D524814006E4FFFE9D
:10036800FDFC22FCE4CFCECDCC24E0501174FF80FC
:10037800EDC3CC13CCCD13CDCE13CECF13CF047099
:07038800F030D5DE0203D9BD
:10038F00E9D2E7C933E833F892D5EDD2E7CD33ECB4
:07039F0033FC5002B2D5222D
:1003A600EC30E7100FBF000C0EBE00080DBD0004B8
:1003B6000BEB6014A2D5EB13FCED92E7FD2274FF64
:1003C600FCFDFEFF22E480F8A2D574FF13FC7D80BD
:0303D600E480EFD1
:030000000209D41E
:0C09D400787FE4F6D8FD75811D0209FF54
:10093200C2D5E830E70FB2D5E4C39BFBE49AFAE4F0
:1009420099F9E498F8EC30E717B2D5120968120465
:1009520039E4C39BFBE49AFAE499F9E498F880033A
:1009620012043930D50DE4C39FFFE49EFEE49DFDE1
:04097200E49CFC22E3
:0E03D900C3E49FFFE49EFEE49DFDE49CFC2235
:1003E700EB9FF5F0EA9E42F0E99D42F0EC6480C88D
:0603F70064809845F0222D
:1003FD0075F008758200EF2FFFEE33FECD33CDCCB7
:10040D0033CCC58233C5829BED9AEC99E582984039
:10041D000CF582EE9BFEED9AFDEC99FC0FD5F0D616
:10042D00E4CEFBE4CDFAE4CCF9A88222B800C1B940
:10043D000059BA002DEC8BF084CFCECDFCE5F0CB7E
:10044D00F97818EF2FFFEE33FEED33FDEC33FCEBB7
:10045D0033FB10D703994004EB99FB0FD8E5E4F972
:10046D00FA227818EF2FFFEE33FEED33FDEC33FC5F
:10047D00C933C910D7059BE99A4007EC9BFCE99A53
:10048D00F90FD8E0E4C9FAE4CCFB2275F010EF2F98
:10049D00FFEE33FEED33FDCC33CCC833C810D70798
:1004AD009BEC9AE899400AED9BFDEC9AFCE899F8D3
:0E04BD000FD5F0DAE4CDFBE4CCFAE4C8F92266
:00000001FF
