:100DF20001020300FBFDFAFF0405062E43430DD159
:030E0200070809D5
:0C0E17007F057E047DF8DDFEDEFADFF6CC
:010E230022AC
:100DDC00E4F510F511F50BF50AF509F508F50FF525
:060DEC000EF50DF50C22CE
:10056300E4F5227590FFF5A0E590F47003020A9874
:10057300120E17E590F47003020607E4F5A0AF909E
:10058300EF2441602024E0602124F0602224F860FD
:100593002324FC602424FE6025146027247F702616
:1005A3007512078021751206801C75120580177558
:1005B30012048012751203800D75120280087512E1
:1005C300018003E4F512E4F59075A0FF120E17AF56
:1005D300A0EF2405601024FE600814700F8512122A
:1005E300800A7408800274102512F512C3E5216491
:1005F3008094E4500CE5A0F46007120E17052180E7
:10060300EBE4F521E4D395125006E512940240235E
:100613007408D395125006E512940A40167410D349
:1006230095125006E51294124009E5126403600323
:100633000206BFE4F511E5107037FFFE7D207C4113
:10064300AB0BAA0AA909A8081200FBC004C005C085
:1006530006C007E512900DF293FCE4120324D003C5
:10066300D002D001D00012000A8F0B8E0A8D098CA4
:1006730008E510D394004038E4FFFE7D207C41ABB5
:100683000FAA0EA90DA80C1200FBC004C005C006DA
:10069300C007E512900DF293FCE4120324D003D0BB
:1006A30002D001D00012000A8F0F8E0E8D0D8C0C1C
:1006B300E512900DF2932430FF120E3BE512B404C1
:1006C30010751101751001900DF2932430FF120E75
:1006D3003BE512B40510751101751002900DF293EC
:1006E3002430FF120E3BE512B4061075110175108C
:1006F30003900DF2932430FF120E3BE512B4071062
:10070300751101751004900DF2932430FF120E3B06
:10071300E512B40F25751101751005900DF29324A0
:1007230030FF120E30E4F510F511F50BF50AF5095B
:10073300F508F50FF50EF50DF50CE512B40C107573
:100743001101751006900DF2932430FF120E3BE554
:1007530012B40D10751101751007900DF29324302A
:10076300FF120E3BE512B40B1075110175100890C2
:100773000DF2932430FF120E3BE512640E60030268
:100783000A98E51064017066AF0FAE0EAD0DAC0CA8
:10079300AB0BAA0AA909A80812000A1203588F1A58
:1007A3008E198D188C177FCF120E307F04120E30E6
:1007B300AF1AAE19AD18AC17EC4D4E4F602BE47B5E
:1007C3000AFAF9F8120D7FEB2430FF120E3BAF1A31
:1007D300AE19AD18AC17E47B0AFAF9F8120D7F8F46
:1007E3001A8E198D188C1780C77F3D120E3BE510AA
:1007F300640260030208A3AF0FAE0EAD0DAC0CABE9
:100803000BAA0AA909A8081202A160144012AB0F8F
:10081300AA0EA90DA80CAF0BAE0AAD09AC08801047
:10082300AB0BAA0AA909A808AF0FAE0EAD0DAC0C0D
:100833001200061203588F1A8E198D188C177FCF4A
:10084300120E307F04120E30AF1AAE19AD18AC176A
:10085300EC4D4E4F602BE47B0AFAF9F8120D7FEB57
:100863002430FF120E3BAF1AAE19AD18AC17E47B60
:100873000AFAF9F8120D7F8F1A8E198D188C1780CA
:10088300C7AF0FAE0EAD0DAC0CAB0BAA0AA909A8EE
:10089300081202A150057F2D120E3B7F3D120E3B25
:1008A300E51064037066AF0FAE0EAD0DAC0CAB0B71
:1008B300AA0AA909A8081200FB1203588F1A8E1955
:1008C3008D188C177FCF120E307F04120E30AF1AA3
:1008D300AE19AD18AC17EC4D4E4F602BE47B0AFA02
:1008E300F9F8120D7FEB2430FF120E3BAF1AAE194D
:1008F300AD18AC17E47B0AFAF9F8120D7F8F1A8E44
:10090300198D188C1780C77F3D120E3BE5106404C8
:050913006003020A2848
:10091800AB0FAA0EA90DA80CAF0BAE0AAD09AC0817
:100928001202047B007A40791C78461200FB1203FD
:10093800588F1A8E198D188C177FCF120E307F049E
:10094800120E30AF0FAE0EAD0DAC0CAB0BAA0AA950
:1009580009A8081202A15061E47F64FEFDFCAB1AED
:10096800AA19A918A817C312045F504DAF1AAE19D7
:10097800AD18AC17EC4D4E4F603F0523E47B0AFAE7
:10098800F9F8120D7FEB2430FF120E3BAF1AAE19A7
:10099800AD18AC17E47B0AFAF9F8120D7F8F1A8E9E
:1009A800198D188C17E523B402C27F30120E3B7FD5
:1009B8002E120E3BE4F52380B3AF1AAE19AD18AC76
:1009C80017EC4D4E4F603A0523E47B0AFAF9F8120A
:1009D8000D7FEB2430FF120E3BAF1AAE19AD18ACE9
:1009E80017E47B0AFAF9F8120D7F8F1A8E198D1801
:1009F8008C17E523B403C27F2E120E3BE4F5238047
:100A0800B8AF0FAE0EAD0DAC0CAB0BAA0AA909A876
:100A1800081202A150057F30120E3B7F3D120E3B9B
:100A2800E5106408706A850F2B850E2A850D2985C7
:100A38000C28AF0BAE0AAD09AC08120BCE12035846
:100A48008F1A8E198D188C177FCF120E307F0412D3
:100A58000E30AF1AAE19AD18AC17EC4D4E4F602BD7
:100A6800E47B0AFAF9F8120D7FEB2430FF120E3BF3
:100A7800AF1AAE19AD18AC17E47B0AFAF9F8120DE3
:100A88007F8F1A8E198D188C1780C77F3D120E3BE9
:010A9800223B
:080E4F00120DC312056380FBC4
:080E46007FC77E01DEFEDFFA2A
:010E4E002281
:090E0500C2B28F80120E46D2B277
:080E0E007FB97E0CDEFEDFFA65
:010E160022B9
:0B0E3000C2B0C2B100120E05C2B22217
:0B0E3B00C2B0D2B100120E05C2B222FC
:100DC3007F38120E307F0C120E307F06120E307FEA
:090DD30001120E307F80020E3087
:100003000203C4E86480F8E933E83360110460F064
:10001300ED33EC337009E8FCE9FDEAFEEBFF220463
:1000230060DED3EB9FEA9EE99DE8C2E78CF0C2F75E
:1000330095F0400CE8CCF8E9CDF9EACEFAEBCFFB2A
:1000430012038F85D0F05804700320D5B3E80470F1
:10005300075002B2D50203CE92D5EC0460F7E4CC8C
:10006300C0E0C398F8603B94186008400DD0E0FBF3
:100073000203A6E4FBFAC9FC8028E830E406E4C9DD
:10008300FBE4CAFCE830E305E4C9CACBFCE8540747
:100093006010F8C3E913F9EA13FAEB13FBEC13FC52
:1000A300D8F130F52FC3E49CFCEF9BFFEE9AFEEDF5
:1000B30099FDD0E0FBEF4E4D4C701222DB0302039F
:1000C300CBEC2CFCEF33FFEE33FEED33FDED30E7ED
:1000D300EB0203A6EF2BFFEE3AFEED39FDD0E0FB7A
:1000E30050130BBB00030203CEED13FDEE13FEEF23
:0800F30013FFEC13FC0203A64D
:1000FB00EC4D6011E8497017ED33EC3304600DE4FF
:10010B00FCFFFEFD22E933E8330470F80203C4124E
:10011B00038F58046009E4CC24815006285009024F
:10012B0003CE2840030203CBC0E0EB4A7044B980F6
:10013B0006D0E0FB0203BAEF4E701CBD8008EBFF4C
:10014B00EAFEE9FD80EBE98DF0A4FEE5F00201E4A7
:10015B00E9CDF9EAFEEBFFEF89F0A4FCE5F0CE89DF
:10016B00F0A42EFFE435F0CD89F0A42DFEE435F09C
:10017B008067EF4E7005BD80D780C3EF8BF0A4ACCA
:10018B00F0EE8BF0A42CFCE435F0F8EF8AF0A42C05
:10019B00E5F038FCE433CB8DF0A42CFCE5F03BF818
:1001AB00EE8AF0A42CFCE5F038F8E433CF89F0A408
:1001BB002CFCE5F038CF3400CE89F0A42FFFE5F00E
:1001CB003EFEE433C98DF0A42EFEE5F039CD8AF066
:1001DB00A42FFFE5F03EFEE43DFD33D0E0FB5007DE
:1001EB000BBB000F0203CEEC2CFCEF33FFEE33FE08
:0601FB00ED33FD0203A636
:100201000203CEEC5D046005E8590470030203C4E7
:1002110012038F580460F6EC4860F2EC7004FDFEA6
:10022100FF22C860DB2481C85009C39860025006D0
:100231000203CB9850CAF582E9294B4A7005AB827B
:100241000203BA75F0007C1A7880C3EF9BEE9AED39
:1002510099400DC3EF9BFFEE9AFEED99FDE842F048
:10026100DC23ACF0D0E0FFD0E0FED0E0FDAB82209B
:10027100E7101BEB60BAEC2CFCEF33FFEE33FEED25
:1002810033FD0203A6E803F830E705C0F075F0007E
:10029100EF2FFFEE33FEED33FD40B830E7C280AA09
:1002A10074F8CC6480CCC86480C8F58204604FC304
:1002B100EB9FF5F0EA9E42F0E99D42F0E89C45F0A3
:1002C100603C501DE5825FFFE582D313CB5BCBF42D
:1002D1002B5582FB50280ABA002409B90020088056
:1002E1001DE5825BFBE582D313CF5FCFF4C3132FF0
:1002F1005582FF50090EBE00050DBD00010CC3EB78
:100301009FF5F0EA9E42F0E99D42F0E89C45F060DD
:0903110007CC4820E701B3EC22FF
:10031A0075F020800E75F010800575F0087D007E5E
:10032A00007F003392D530D503120451EC334010CC
:10033A00EF33FFEE33FEED33FDEC33FCD5F0ED2267
:0E034A00E5F0247EA2D513CC92E7CDCEFF22A3
:10035800EDD2E7CD33EC3392D524814006E4FFFE9D
:10036800FDFC22FCE4CFCECDCC24E0501174FF80FC
:10037800EDC3CC13CCCD13CDCE13CECF13CF047099
:07038800F030D5DE02045144
:100BCE008F278E268D258C24E4FFFE7D807C3FAB07
:100BDE0027AA26A925A8241202A17009AF27AE269E
:100BEE00AD25AC2422AF27AE26AD25AC241203D9F9
:100BFE00FBAF2BAE2AAD29AC281203D9FFBF0108DB
:100C0E00E4FFFE7D807C3F22EF64046022EB6404EF
:100C1E00601DBB0127E4FFFEFDFCAB2BAA2AA92910
:100C2E00A8281202A160084006E4FFFEFDFC227413
:100C3E00FFF52BF52AF529F528020CDCE4F52CF549
:100C4E002DFFFEFDFCAB27AA26A925A8241202A182
:100C5E00504BAF2BAE2AAD29AC281203588E2C8FD9
:100C6E002DAC2CAD2DEC12031FC8ECC8C9EDC9CAB2
:100C7E00EECACBEFCBAF2BAE2AAD29AC28120006B5
:100C8E00E4FBFAF9F81202A170A5AF27AE26AD2546
:100C9E00AC241203F38F278E268D258C24AF27AE1E
:100CAE0026AD25AC24120ACDAB2BAA2AA929A82839
:100CBE001200FB120D1D8F2B8E2A8D298C28E52DEF
:100CCE0030E00B1203F38F2B8E2A8D298C28AF2B3D
:070CDE00AE2AAD29AC28226B
:10038F00E9D2E7C933E833F892D5EDD2E7CD33ECB4
:07039F0033FC5002B2D5222D
:1003A600EC30E7100FBF000C0EBE00080DBD0004B8
:1003B6000BEB6014A2D5EB13FCED92E7FD2274FF64
:1003C600FCFDFEFF22E480F8A2D574FF13FC7D80BD
:0303D600E480EFD1
:1003D900ED33EC33601004700FED547F7005740237
:0A03E90092E0227404220422E422B0
:1003F300ED33EC33600A047003BD8004ECB2E7FC18
:0104030022D6
:100CE50033DA929E35B16011377FE5FE392184896B
:100CF5003AAEC3FF3C1D955B3D6358473E75FDF01D
:100D05003F3172183F800000C2D50203CE0203C4F2
:100D1500BD80FA50F30203CBED33EC330460F17B75
:100D25003B7AAA79B8783F1200FBED33EC3392D5C4
:100D3500247B5011A2D570DB500BED448024045068
:100D450004A2D580CEEFFBEEFAEDF9ECF8120358CC
:100D5500EFF582F404FC12032412000AC082900C01
:100D6500E57409120413ED33CC33D0F092D525F098
:0A0D7500A2D57001C313CC13FD22B8
:100A99003E9248DA3ECCCCCD3F2AAAAB40000000BA
:100AA9003F8000003F9837F03FB504F33FD744FC3F
:100AB9003E3172173EB172173F0515913EDE5BD983
:100AC900D2008002C200EDD2E7F8CD33EC330470D6
:100AD9000BBD800592D50203CE0203C440FBD3149B
:100AE90060F2F5F07C3FEE7A00C39496C8948B408F
:100AF900230AC89469C8941A401A0AC89468C89401
:100B09001F40110AC8945AC89425400805F07A0074
:100B1900CDC2E7CDC0F08C2E8D2F8E308F31EA23D8
:100B290023C0E024A9F582E4340AF583120485126E
:100B3900000AECC0E0EDC0E0EEC0E0EFC0E0120456
:100B490075A82EA92FAA30AB31120006D0E0FBD030
:100B5900E0FAD0E0F9D0E0B2E7F81202048C2E8D69
:100B69002F8E308F31900A997403120404A82EA98C
:100B79002FAA30AB311200FBD0E0600F24B5F5820B
:100B8900E4340AF58312048512000A8C2E8D2F8E07
:100B9900308F31D0E0C3947FFDE49400FC12031F31
:100BA9007B187A727931783F1200FBA82EA92FAAF7
:100BB90030AB3112000A30000B7BD97A5B79DE78D1
:050BC9003E1200FB22BA
:10040400C0E0EFFBEEFAEDF9ECF81200FBD0E0F5FA
:10041400F0EFFBEEFAEDF9ECF8120475A3A3A3A335
:10042400E8C0E0E9C0E0EAC0E0EBC0E0C0F01200E0
:10043400FB120485A3A3A3A312000AD0F0D0E0FB0F
:0D044400D0E0FAD0E0F9D0E0F8D5F0D422F5
:03000000020E24C9
:0C0E2400787FE4F6D8FD758131020E4F96
:100D7F00C2D5E830E70FB2D5E4C39BFBE49AFAE49F
:100D8F0099F9E498F8EC30E717B2D5120DB51204C3
:100D9F00D1E4C39BFBE49AFAE499F9E498F8800351
:100DAF001204D130D50DE4C39FFFE49EFEE49DFDF8
:040DBF00E49CFC2292
:0E045100C3E49FFFE49EFEE49DFDE49CFC22BC
:10045F00EB9FF5F0EA9E42F0E99D42F0EC6480C814
:06046F0064809845F022B4
:10047500E493FC740193FD740293FE740393FF22CD
:10048500E493F8740193F9740293FA740393FB22CD
:1004950075F008758200EF2FFFEE33FECD33CDCC1E
:1004A50033CCC58233C5829BED9AEC99E5829840A1
:1004B5000CF582EE9BFEED9AFDEC99FC0FD5F0D67E
:1004C500E4CEFBE4CDFAE4CCF9A88222B800C1B9A8
:1004D5000059BA002DEC8BF084CFCECDFCE5F0CBE6
:1004E500F97818EF2FFFEE33FEED33FDEC33FCEB1F
:1004F50033FB10D703994004EB99FB0FD8E5E4F9DA
:10050500FA227818EF2FFFEE33FEED33FDEC33FCC6
:10051500C933C910D7059BE99A4007EC9BFCE99ABA
:10052500F90FD8E0E4C9FAE4CCFB2275F010EF2FFF
:10053500FFEE33FEED33FDCC33CCC833C810D707FF
:100545009BEC9AE899400AED9BFDEC9AFCE899F83A
:0E0555000FD5F0DAE4CDFBE4CCFAE4C8F922CD
:00000001FF
