:1010600001020300FBFDFAFF0405062E43430DD1E8
:0310700007080965
:0C1085007F057E047DF8DDFEDEFADFF65C
:01109100223C
:10104A00E4F529F52EF524F523F522F521F528F501
:06105A0027F526F5252212
:10060000E4F5097590FFF5A0E590F47003020B98EE
:10061000121085E590F470030206A4E4F5A0AF90F3
:10062000EF2441602024E0602124F0602224F8605F
:100630002324FC602424FE6025146027247F702678
:10064000752F078021752F06801C752F0580177563
:100650002F048012752F03800D752F028008752FCF
:10066000018003E4F52FE4F59075A0FF121085AF2B
:10067000A0EF2405601024FE600814700F852F2F52
:10068000800A740880027410252FF52FC3E50864D2
:100690008094E4500CE5A0F46007121085050880F2
:1006A000EBE4F508E4D3952F5006E52F94024023A0
:1006B0007408D3952F5006E52F940A40167410D372
:1006C000952F5006E52F94124009E52F640360032F
:1006D00002075CE4F52EE5297037FFFE7D207C41A2
:1006E000AB24AA23A922A8211200FBC004C005C084
:1006F00006C007E52F90106093FCE4120324D0039A
:10070000D002D001D00012000A8F248E238D228CBB
:1007100021E529D394004038E4FFFE7D207C41ABE5
:1007200028AA27A926A8251200FBC004C005C006D8
:10073000C007E52F90106093FCE4120324D003D08F
:1007400002D001D00012000A8F288E278D268C251A
:10075000E52F901060932430FF1210A9E52FB40408
:1007600010752E01752901901060932430FF12102E
:10077000A9E52FB40510752E01752902901060931C
:100780002430FF1210A9E52FB40610752E0175292B
:1007900003901060932430FF1210A9E52FB40710C6
:1007A000752E01752904901060932430FF1210A952
:1007B000E52FB40F25752E0175290590106093243F
:1007C00030FF12109EE4F529F52EF524F523F522CD
:1007D000F521F528F527F526F525E52FB40C10753C
:1007E0002E01752906901060932430FF1210A9E5A0
:1007F0002FB40D10752E01752907901060932430C9
:10080000FF1210A9E52FB40B10752E017529089061
:100810001060932430FF1210A9E52F640E600302CC
:100820000B98E52964017066AF28AE27AD26AC258C
:10083000AB24AA23A922A82112000A1203588F3937
:100840008E388D378C367FCF12109E7F0412109E0B
:10085000AF39AE38AD37AC36EC4D4E4F602BE47B44
:100860000AFAF9F8120FEDEB2430FF1210A9AF3994
:10087000AE38AD37AC36E47B0AFAF9F8120FED8FDB
:10088000398E388D378C3680C77F3D1210A9E52907
:1008900064026003020940AF28AE27AD26AC25AB49
:1008A00024AA23A922A8211202A160144012AB2875
:1008B000AA27A926A825AF24AE23AD22AC218010FB
:1008C000AB24AA23A922A821AF28AE27AD26AC25A8
:1008D0001200061203588F398E388D378C367FCF31
:1008E00012109E7F0412109EAF39AE38AD37AC3671
:1008F000EC4D4E4F602BE47B0AFAF9F8120FEDEB4A
:100900002430FF1210A9AF39AE38AD37AC36E47BD6
:100910000AFAF9F8120FED8F398E388D378C368040
:10092000C7AF28AE27AD26AC25AB24AA23A922A8A1
:10093000211202A150057F2D1210A97F3D1210A98E
:10094000E52964037066AF28AE27AD26AC25AB243D
:10095000AA23A922A8211200FB1203588F398E382E
:100960008D378C367FCF12109E7F0412109EAF39C8
:10097000AE38AD37AC36EC4D4E4F602BE47B0AFA07
:10098000F9F8120FEDEB2430FF1210A9AF39AE3891
:10099000AD37AC36E47B0AFAF9F8120FED8F398ED9
:1009A000388D378C3680C77F3D1210A9E529640445
:0509B0006003020AC50E
:1009B500AB28AA27A926A825AF24AE23AD22AC21B2
:1009C5001202047B007A40791C78461200FB120360
:1009D500588F398E388D378C367FCF12109E7F0415
:1009E50012109EAF28AE27AD26AC25AB24AA23A9AD
:1009F50022A8211202A15061E47F64FEFDFCAB39FF
:100A0500AA38A937A836C31204A7504DAF39AE3856
:100A1500AD37AC36EC4D4E4F603F050AE47B0AFA24
:100A2500F9F8120FEDEB2430FF1210A9AF39AE38EB
:100A3500AD37AC36E47B0AFAF9F8120FED8F398E33
:100A4500388D378C36E50AB402C27F301210A97F83
:100A55002E1210A9E4F50A80B3AF39AE38AD37AC24
:100A650036EC4D4E4F603A050AE47B0AFAF9F81266
:100A75000FEDEB2430FF1210A9AF39AE38AD37AC0E
:100A850036E47B0AFAF9F8120FED8F398E388D3777
:100A95008C36E50AB403C27F2E1210A9E4F50A804C
:100AA500B8AF28AE27AD26AC25AB24AA23A922A82A
:100AB500211202A150057F301210A97F3D1210A905
:100AC500E5296406705D7FD07E0F7D497C40AB28AB
:100AD500AA27A926A8251200FBE4FBFA7934784356
:100AE5001202048F288E278D268C25120BE18F2864
:100AF5008E278D268C251203588E348F357C007DEC
:100B0500641204518E2A8F2B1204638C2C8D2D7F39
:100B1500CF12109E7F0412109E7F2E1210A97F3DCA
:100B25001210A9E5296408706A85281285271185A0
:100B3500261085250FAF24AE23AD22AC21120E3C25
:100B45001203588F398E388D378C367FCF12109E11
:100B55007F0412109EAF39AE38AD37AC36EC4D4E32
:100B65004F602BE47B0AFAF9F8120FEDEB2430FF06
:100B75001210A9AF39AE38AD37AC36E47B0AFAF9B5
:100B8500F8120FED8F398E388D378C3680C77F3D43
:030B95001210A992
:010B9800223A
:0810BD0012103112060080FB45
:0810B4007FC77E01DEFEDFFABA
:0110BC002211
:09107300C2B28F801210B4D2B297
:08107C007FB97E0CDEFEDFFAF5
:011084002249
:0B109E00C2B0C2B100121073C2B22237
:0B10A900C2B0D2B100121073C2B2221C
:101031007F3812109E7F0C12109E7F0612109E7F29
:091041000112109E7F8002109E36
:100003000203C4E86480F8E933E83360110460F064
:10001300ED33EC337009E8FCE9FDEAFEEBFF220463
:1000230060DED3EB9FEA9EE99DE8C2E78CF0C2F75E
:1000330095F0400CE8CCF8E9CDF9EACEFAEBCFFB2A
:1000430012038F85D0F05804700320D5B3E80470F1
:10005300075002B2D50203CE92D5EC0460F7E4CC8C
:10006300C0E0C398F8603B94186008400DD0E0FBF3
:100073000203A6E4FBFAC9FC8028E830E406E4C9DD
:10008300FBE4CAFCE830E305E4C9CACBFCE8540747
:100093006010F8C3E913F9EA13FAEB13FBEC13FC52
:1000A300D8F130F52FC3E49CFCEF9BFFEE9AFEEDF5
:1000B30099FDD0E0FBEF4E4D4C701222DB0302039F
:1000C300CBEC2CFCEF33FFEE33FEED33FDED30E7ED
:1000D300EB0203A6EF2BFFEE3AFEED39FDD0E0FB7A
:1000E30050130BBB00030203CEED13FDEE13FEEF23
:0800F30013FFEC13FC0203A64D
:1000FB00EC4D6011E8497017ED33EC3304600DE4FF
:10010B00FCFFFEFD22E933E8330470F80203C4124E
:10011B00038F58046009E4CC24815006285009024F
:10012B0003CE2840030203CBC0E0EB4A7044B980F6
:10013B0006D0E0FB0203BAEF4E701CBD8008EBFF4C
:10014B00EAFEE9FD80EBE98DF0A4FEE5F00201E4A7
:10015B00E9CDF9EAFEEBFFEF89F0A4FCE5F0CE89DF
:10016B00F0A42EFFE435F0CD89F0A42DFEE435F09C
:10017B008067EF4E7005BD80D780C3EF8BF0A4ACCA
:10018B00F0EE8BF0A42CFCE435F0F8EF8AF0A42C05
:10019B00E5F038FCE433CB8DF0A42CFCE5F03BF818
:1001AB00EE8AF0A42CFCE5F038F8E433CF89F0A408
:1001BB002CFCE5F038CF3400CE89F0A42FFFE5F00E
:1001CB003EFEE433C98DF0A42EFEE5F039CD8AF066
:1001DB00A42FFFE5F03EFEE43DFD33D0E0FB5007DE
:1001EB000BBB000F0203CEEC2CFCEF33FFEE33FE08
:0601FB00ED33FD0203A636
:100201000203CEEC5D046005E8590470030203C4E7
:1002110012038F580460F6EC4860F2EC7004FDFEA6
:10022100FF22C860DB2481C85009C39860025006D0
:100231000203CB9850CAF582E9294B4A7005AB827B
:100241000203BA75F0007C1A7880C3EF9BEE9AED39
:1002510099400DC3EF9BFFEE9AFEED99FDE842F048
:10026100DC23ACF0D0E0FFD0E0FED0E0FDAB82209B
:10027100E7101BEB60BAEC2CFCEF33FFEE33FEED25
:1002810033FD0203A6E803F830E705C0F075F0007E
:10029100EF2FFFEE33FEED33FD40B830E7C280AA09
:1002A10074F8CC6480CCC86480C8F58204604FC304
:1002B100EB9FF5F0EA9E42F0E99D42F0E89C45F0A3
:1002C100603C501DE5825FFFE582D313CB5BCBF42D
:1002D1002B5582FB50280ABA002409B90020088056
:1002E1001DE5825BFBE582D313CF5FCFF4C3132FF0
:1002F1005582FF50090EBE00050DBD00010CC3EB78
:100301009FF5F0EA9E42F0E99D42F0E89C45F060DD
:0903110007CC4820E701B3EC22FF
:10031A0075F020800E75F010800575F0087D007E5E
:10032A00007F003392D530D503120499EC33401084
:10033A00EF33FFEE33FEED33FDEC33FCD5F0ED2267
:0E034A00E5F0247EA2D513CC92E7CDCEFF22A3
:10035800EDD2E7CD33EC3392D524814006E4FFFE9D
:10036800FDFC22FCE4CFCECDCC24E0501174FF80FC
:10037800EDC3CC13CCCD13CDCE13CECF13CF047099
:07038800F030D5DE020499FC
:100B99003A70FA83BCAAE9E43E81E0F8BF9DE9E630
:100BA9003F80000039283C1ABB9969663DA335E3AB
:100BB900BF255DE73FC90FDB418DDBCCC44936EE6C
:100BC90045C9913FC5B0F83D3F800000C317F534D2
:100BD900452FFA73C60AFDDD120C8804A2E19200C2
:100BE9001420E015900B9974041204048026120C49
:100BF9008830E102B20020E0EB8C0B8D0C8E0D8F5A
:100C09000E900BAD7404120404A80BA90CAA0DAB29
:100C19000E1200FBED4C6007300004EC6480FC22EE
:100C2900120C88C0E08C0B8D0C8E0D8F0E900BD1A1
:100C39007403120404A80BA90CAA0DAB0E1200FB35
:100C4900ECC50BFCEDC50CFDEEC50DFEEFC50EFFA9
:100C5900900BC17403120404D082A80BA90CAA0D2D
:100C6900AB0EE58230E007120204B20080A6EFCB9A
:100C7900FFEECAFEEDC9FDECC8FC1202048095ED39
:100C890033EC547FCC33920024605007D0E0D0E09D
:100C99000203C47B837AF97922783E1200FBEDF9CD
:100CA90033ECF83324815011EFFBEEFA120358129A
:100CB900031AECB2E7FC12000AED33EC33602F247F
:100CC90003F8C313FCED92E7FDE82481E4501FEC1F
:100CD900F8EDF9EEFAEFFB120358EF04C2E0FCF568
:100CE90082120324ECB2E7FC12000AE58203FAED52
:0E0CF90033EC3360071413FCED92E7FDEA22A2
:100E3C008F0E8E0D8D0C8C0BE4FFFE7D807C3FABFA
:100E4C000EAA0DA90CA80B1202A17009AF0EAE0DC3
:100E5C00AD0CAC0B22AF0EAE0DAD0CAC0B1203D91E
:100E6C00FBAF12AE11AD10AC0F1203D9FFBF0108CE
:100E7C00E4FFFE7D807C3F22EF64046022EB64047F
:100E8C00601DBB0127E4FFFEFDFCAB12AA11A910EB
:100E9C00A80F1202A160084006E4FFFEFDFC2274BC
:100EAC00FFF512F511F510F50F020F4AE4F513F5E5
:100EBC0014FFFEFDFCAB0EAA0DA90CA80B1202A18F
:100ECC00504BAF12AE11AD10AC0F1203588E138FE6
:100EDC0014AC13AD14EC12031FC8ECC8C9EDC9CA8D
:100EEC00EECACBEFCBAF12AE11AD10AC0F120006A9
:100EFC00E4FBFAF9F81202A170A5AF0EAE0DAD0C21
:100F0C00AC0B1203F38F0E8E0D8D0C8C0BAF0EAE43
:100F1C000DAD0CAC0B120D3BAB12AA11A910A80F06
:100F2C001200FB120F8B8F128E118D108C0FE5148B
:100F3C0030E00B1203F38F128E118D108C0FAF1249
:070F4C00AE11AD10AC0F2245
:10038F00E9D2E7C933E833F892D5EDD2E7CD33ECB4
:07039F0033FC5002B2D5222D
:1003A600EC30E7100FBF000C0EBE00080DBD0004B8
:1003B6000BEB6014A2D5EB13FCED92E7FD2274FF64
:1003C600FCFDFEFF22E480F8A2D574FF13FC7D80BD
:0303D600E480EFD1
:1003D900ED33EC33601004700FED547F7005740237
:0A03E90092E0227404220422E422B0
:1003F300ED33EC33600A047003BD8004ECB2E7FC18
:0104030022D6
:10040400C0E0EFFBEEFAEDF9ECF81200FBD0E0F5FA
:10041400F0EFFBEEFAEDF9ECF81204BDA3A3A3A3ED
:10042400E8C0E0E9C0E0EAC0E0EBC0E0C0F01200E0
:10043400FB1204CDA3A3A3A312000AD0F0D0E0FBC7
:0D044400D0E0FAD0E0F9D0E0F8D5F0D422F5
:100F530033DA929E35B16011377FE5FE39218489FA
:100F63003AAEC3FF3C1D955B3D6358473E75FDF0AC
:100F73003F3172183F800000C2D50203CE0203C482
:100F8300BD80FA50F30203CBED33EC330460F17B05
:100F93003B7AAA79B8783F1200FBED33EC3392D554
:100FA300247B5011A2D570DB500BED4480240450F8
:100FB30004A2D580CEEFFBEEFAEDF9ECF81203585C
:100FC300EFF582F404FC12032412000AC082900F8E
:100FD300537409120413ED33CC33D0F092D525F0BA
:0A0FE300A2D57001C313CC13FD2248
:100D07003E9248DA3ECCCCCD3F2AAAAB4000000049
:100D17003F8000003F9837F03FB504F33FD744FCCE
:100D27003E3172173EB172173F0515913EDE5BD912
:100D3700D2008002C200EDD2E7F8CD33EC33047065
:100D47000BBD800592D50203CE0203C440FBD3142A
:100D570060F2F5F07C3FEE7A00C39496C8948B401E
:100D6700230AC89469C8941A401A0AC89468C89490
:100D77001F40110AC8945AC89425400805F07A0004
:100D8700CDC2E7CDC0F08C158D168E178F18EA23CC
:100D970023C0E02417F582E4340DF5831204CD1245
:100DA700000AECC0E0EDC0E0EEC0E0EFC0E01204E6
:100DB700BDA815A916AA17AB18120006D0E0FBD0DC
:100DC700E0FAD0E0F9D0E0B2E7F81202048C158D12
:100DD700168E178F18900D077403120404A815A90F
:100DE70016AA17AB181200FBD0E0600F2423F58278
:100DF700E4340DF5831204CD12000A8C158D168E7E
:100E0700178F18D0E0C3947FFDE49400FC12031FF2
:100E17007B187A727931783F1200FBA815A916AAB8
:100E270017AB1812000A30000B7BD97A5B79DE7892
:050E37003E1200FB2249
:0300000002109259
:0C109200787FE4F6D8FD7581390210BDAE
:10045100EF8DF0A4A8F0CF8CF0A428CE8DF0A42EBF
:02046100FE2279
:10046300C2D5EC30E709B2D5E4C39DFDE49CFCEEB4
:1004730030E715B2D5E4C39FFFE49EFE1204DDC34B
:10048300E49DFDE49CFC80031204DD30D507C3E446
:060493009FFFE49EFE2223
:100FED00C2D5E830E70FB2D5E4C39BFBE49AFAE42F
:100FFD0099F9E498F8EC30E717B2D51210231205E1
:10100D006EE4C39BFBE49AFAE499F9E498F8800343
:10101D0012056E30D50DE4C39FFFE49EFEE49DFDE9
:04102D00E49CFC2221
:0E049900C3E49FFFE49EFEE49DFDE49CFC2274
:1004A700EB9FF5F0EA9E42F0E99D42F0EC6480C8CC
:0604B70064809845F0226C
:1004BD00E493FC740193FD740293FE740393FF2285
:1004CD00E493F8740193F9740293FA740393FB2285
:1004DD00BC000BBE0029EF8DF084FFADF022E4CC03
:1004ED00F875F008EF2FFFEE33FEEC33FCEE9DECCC
:1004FD00984005FCEE9DFE0FD5F0E9E4CEFD22ED12
:10050D00F8F5F0EE8420D21CFEADF075F008EF2F5B
:10051D00FFED33FD4007985006D5F0F222C398FD4C
:05052D000FD5F0EA22E9
:1005320075F008758200EF2FFFEE33FECD33CDCC80
:1005420033CCC58233C5829BED9AEC99E582984003
:100552000CF582EE9BFEED9AFDEC99FC0FD5F0D6E0
:10056200E4CEFBE4CDFAE4CCF9A88222B800C1B90A
:100572000059BA002DEC8BF084CFCECDFCE5F0CB48
:10058200F97818EF2FFFEE33FEED33FDEC33FCEB81
:1005920033FB10D703994004EB99FB0FD8E5E4F93C
:1005A200FA227818EF2FFFEE33FEED33FDEC33FC29
:1005B200C933C910D7059BE99A4007EC9BFCE99A1D
:1005C200F90FD8E0E4C9FAE4CCFB2275F010EF2F62
:1005D200FFEE33FEED33FDCC33CCC833C810D70762
:1005E2009BEC9AE899400AED9BFDEC9AFCE899F89D
:0E05F2000FD5F0DAE4CDFBE4CCFAE4C8F92230
:00000001FF
