:020000040800F2
:10000000804000205D3800089533000897330008D1
:100010009B3300089F330008A33300080000000052
:10002000000000000000000000000000A9330008EC
:10003000A733000800000000AB330008AD33000810
:1000400077380008773800087738000877380008D4
:1000500077380008773800087738000877380008C4
:1000600077380008773800087738000877380008B4
:1000700077380008773800087738000877380008A4
:100080007738000877380008773800087738000894
:100090007738000877380008773800087738000884
:1000A0007738000877380008773800087738000874
:1000B0007738000877380008773800087738000864
:1000C0007738000877380008773800087738000854
:1000D0007738000877380008773800087738000844
:1000E000F1360008773800087738000877380008BC
:1000F0007738000877380008773800087738000824
:100100007738000877380008773800087738000813
:100110007738000877380008B934000877380008C5
:1001200077380008773800087738000877380008F3
:1001300000F002F800F05AF80AA090E8000C82449F
:100140008344AAF10107DA4501D100F04FF8AFF27C
:10015000090EBAE80F0013F0010F18BFFB1A43F0A5
:1001600001031847DCAC0000FCAC00000A444FF06F
:10017000000C10F8013B13F0070408BF10F8014B06
:100180001D1108BF10F8015B641E05D010F8016B4B
:10019000641E01F8016BF9D113F0080F1EBF10F8AF
:1001A000014BAD1C0C1B09D16D1E58BF01F801CBD2
:1001B000FAD505E014F8016B01F8016B6D1EF9D555
:1001C0009142D6D37047000000230024002500266A
:1001D000103A28BF78C1FBD8520728BF30C148BFAA
:1001E0000B6070471FB51FBD10B510BD09F0ECF9CD
:1001F0001146FFF7F7FF00F0A9F809F00AFA03B477
:10020000FFF7F2FF03BC09F00DFA00000021F94AE4
:100210001170F94A1170F94A11705170012010E003
:100220000821F74A1154042102EB00121170022236
:10023000F349F0310A540121F14A02EB0012D17363
:10024000401C0F28ECDB1E21ED4A11700C211174AB
:10025000062182F8F0100921D1730322E84981F8C0
:10026000FF20704770B50024002500BF00E0641C2B
:10027000E4488442FBDB65E0E3494868E3490AF06F
:1002800067FB21D20020E249086000BFE048006817
:100290000228FBDBDC494868DC490AF059FB13D231
:1002A0000020DC4908600520DB49087000BFDA48FF
:1002B00000780528FBD0FFF7A9FF0120CD49087081
:1002C000D549087001253EE0CF498868CF490AF03A
:1002D0003FFB18D200BF4FF48041D04804F0FDFA34
:1002E0000028F8D00520CC49087000BFCA48007823
:1002F0000528FBD006F032FA0220C749087000201A
:10030000C44908601FE04FF48041C44804F0E5FA96
:10031000C0B900BF4FF48041C04804F0DEFA0028A5
:10032000F8D00520BC49087000BFBB4800780528FC
:10033000FBD006F013FA0220B74908700020B54937
:10034000086000E098E700BF284670BD002700263F
:1003500000F08AF902F0BAFD02F018FE05F0DEFDA9
:10036000002005F048FF00F0EAFA00F067FA00F01C
:10037000B7F9AB4800684FF47A72B0FBF2F1B1F113
:10038000807F00D322E021F07F40401E4FF0E0222A
:10039000506150170F2200280ADA13074FEA13683A
:1003A000A04B00F00F0CACF1040C03F80C8005E03E
:1003B00013074FEA136C9C4B03F800C000BF0020EA
:1003C0004FF0E02290610720106100BF4BE100F088
:1003D00010FBFFF747FF90480078012827D1022043
:1003E000924908704CF2503048600020886002202A
:1003F0008F4908704CF2503048600020886001201E
:100400008C4908700020824908600EE08048056829
:10041000502D04DA854805618548056105E05020C6
:10042000824908618249086100E0EFE700BF19E1F5
:100430007948007801284CD16E48007820B1012815
:100440000AD004280CD103E07B4800F055FB07E0FC
:100450007A4800F051FB03E0794800F04DFB00BF03
:1004600000BF2EB94FF400416C4804F050FA04E08C
:100470004FF40041694804F04CFA701C00EBD07155
:100480004910A0EB41066F48007801F0D8F96D489B
:1004900000780A28CBD102205F4908700120654905
:1004A000087000206849086000BF67480068962807
:1004B000FBDB05205F49087005F0E0FF012100200B
:1004C00000F080FD002400E0641C4E488442AEDA57
:1004D000FAE751480078022864D102F009FC5B4831
:1004E0000078012803D103204B490870BAE0444B3F
:1004F000574A584801785848007806F07FFB54481E
:100500005649097800EB011055490978475C3C4B86
:100510004F4A504801785048007806F0B9F94C48E5
:100520004E49097800EB01104D490978405CB8420A
:100530000AD1334B464A474801784748007806F0CD
:100540005DFB01204149087008F021FF3D4908701A
:100550000846007801F073F93A4800780A281DD15E
:1005600002202D49087001203249087000202849D6
:10057000086000BF26480068B428FBDB05202D4931
:10058000087005F07BFF0121002000F01BFD002416
:1005900000E0641C1B48844264DAFAE701201E492B
:1005A00008705FE01C48007803285BD1144B284A90
:1005B000284801782848007806F020FB00222548CA
:1005C00001782548007808F033FC01F001F901209A
:1005D0001849087000200E49086000BF0C480068E8
:1005E0009628FBDB0020114908701149087000BFF4
:1005F000FEE7000029000020370000203500002021
:10060000F80A0020C0C62D006C0100200000E04068
:100610002C0000207C0100202B000020000801405D
:10062000D401002018ED00E000E400E014000020F8
:100630000000002028000020000090410000204021
:1006400000006041340000204000002047000020EE
:10065000F80B00203D0000203C0000203E00002060
:100660003F000020E4E6B2E610B504F0F1F9002006
:1006700004F00EFA012004F070FA102003F070FD6F
:10068000022003F059FD002004F087FA002004F056
:1006900096FA4FF4806004F089FA4FF4804004F039
:1006A000A9FA4FF46011002004F05AFA012004F076
:1006B00063FA00BF392004F00EFA0028FAD00220B5
:1006C00004F05DFA00BF04F063FA0828FBD103F0E0
:1006D0006DF810BD10B54FF4407003F0DFF810BD99
:1006E00000B589B00121022004F02DFB0121052075
:1006F00004F01CFB02A804F0E8F8C020ADF80800E4
:1007000004208DF80B0002A9D54804F053F81D20F1
:100710008DF804000F208DF805008DF806000120EB
:100720008DF8070001A803F0BEF8CE4804F0E8FCFD
:1007300006A805F0E5F80020ADF8180042F21070A8
:10074000ADF81C000020ADF81E00ADF81A0006A997
:10075000C44804F0A9FD00231A460321C14805F04E
:10076000B2F903A805F0DFF80520ADF8140003A9DD
:10077000BC4805F02CF80121BA4805F0B7FB002071
:10078000B849243108800121B64805F0E9F8012173
:10079000042004F0D8FA0121092004F0C7FA02A8C5
:1007A00004F093F8C020ADF8080004208DF80B0089
:1007B00002A9AD4803F0FEFF1E208DF804000F20B3
:1007C0008DF805008DF8060001208DF8070001A8BE
:1007D00003F069F8A54804F093FC06A805F090F82A
:1007E0000020ADF8180042F21070ADF81C00002097
:1007F000ADF81E00ADF81A0006A99C4804F054FD9F
:1008000000231A460321994805F05DF903A805F075
:100810008AF80520ADF8140003A9944804F0D7FF26
:100820000121924805F062FB0020904924310880A4
:1008300001218E4805F094F809B000BD00B589B0DB
:100840000121052004F072FA0121084604F07BFA28
:100850000F20ADF8040018208DF8070003208DF854
:10086000060001A97E4803F0A5FF4FF47A70ADF8A9
:100870001C000420ADF818000020ADF81E00ADF8F3
:100880001A0006A94FF0804004F00EFD6020ADF87C
:1008900008000120ADF80A000020ADF80E00ADF808
:1008A000100002A94FF0804004F03BFD0821C8066B
:1008B00005F086F90120ADF80A000020ADF80E0021
:1008C000ADF8100002A94FF0804004F06CFD082143
:1008D000C80605F07EF90121880705F041F90121DC
:1008E000880705F03DF80120ADF80A000020ADF8BA
:1008F0000E00ADF8100002A94FF0804004F0A0FDFA
:100900000821C80605F072F90120ADF80A000020A0
:10091000ADF80E00ADF8100002A94FF0804004F0D1
:10092000DAFD0821C80605F06AF90121880705F0FB
:1009300017F90121880705F013F809B000BD08B5C3
:1009400001214B4804F007F80121042004F0EEF9DE
:100950004FF40040ADF8000048208DF8030003205C
:100960008DF8020069463E4803F024FF012104206F
:1009700004F0DCF94FF48040ADF8000048208DF819
:10098000030003208DF802006946354803F012FF8A
:100990000121042004F0CAF94FF40040ADF8000032
:1009A00010208DF8030003208DF8020069462C48C2
:1009B00003F000FF00224FF40041294803F0ABFF91
:1009C0000121102004F0B2F94FF40060ADF80000EE
:1009D00010208DF8030003208DF802006946254899
:1009E00003F0E8FE00224FF40061224803F093FF79
:1009F00008BD10B500202049086000BF1E480068EF
:100A0000B0F5FA7FFADB00241C48408940F6C41197
:100A1000884224DA00201849086000BF14E0FA2C4C
:100A200005DA4FF400410E4803F071FF04E04FF483
:100A300000410B4803F06DFF0F4800684FF4FA7156
:100A400090FBF1F201FB12040B48006841F288317F
:100A50008842E4DB4FF40041014803F05AFF10BD27
:100A60000008014000040040000C01400008004064
:100A700000043000001001402C000020F83200205B
:100A80000021F94A1278F94B03EB0212F64B5B781E
:100A9000D05CF74A12784AB100F0020232B9002263
:100AA000F34B1A70F34B1A70F34B1A707047F348FC
:100AB000007830B102280AD004280ED0062818D1B8
:100AC00011E0E9484078401CE749487012E0E648E8
:100AD0000078401CE44908700CE0E3484078401E70
:100AE000E149487006E0E0480078401EDE490870A1
:100AF00000E000BF00BF70472DE9F84F8246002696
:100B0000B146B34600200090DD49504609F054FF3D
:100B1000074609F0B5FE46F2F6010C1A0120D94944
:100B200008700220D849087049F6404048600846DD
:100B300084600220D549087049F640404860084664
:100B40008460D3480578EEE0D0488068CE49896853
:100B5000441842F61830844248DD49F2D460844299
:100B600044DAB9F1000F41D105F00100E8B1C949FB
:100B700048684FF0834109F0EBFF16D20020C649C8
:100B8000086000BFC44800680028FBD0C14948681D
:100B90004FF0834109F0DCFF05D243F22C30BA4913
:100BA0008860BA4988604FF0010905F00200E8B199
:100BB000B84988684FF0834109F0CAFF16D2002077
:100BC000B549086000BFB44800680028FBD0B149AF
:100BD00088684FF0834109F0BBFF05D243F22C3007
:100BE000A9498860A94988604FF0010943F2DE50A5
:100BF000844203DA0020A949087094E048F60E40C8
:100C0000844203DA0120A54908708CE0204609F0EF
:100C100030F907460022A24B09F056F903D2022010
:100C20009E4908707FE0204609F023F9074600221C
:100C30009C4B09F049F903D203209849087072E0EF
:100C40004AF66040844203DA0420944908706AE05E
:100C50004CF2EC10844265DA052090490870BBF133
:100C6000000F07D1FFF723FF07F036FFFFF708FF5C
:100C70004FF0010B0098002855D1012000908A48C0
:100C8000007880B9784800788849097888420AD184
:100C90007548407886490978884204D10120824904
:100CA0000870844908708048007801282DD16F4B66
:100CB000814A714801786F48007805F09FFF7E48AF
:100CC0007A49097800EB011079490978465C674B4D
:100CD000794A694801786748007805F0D9FD764877
:100CE0007249097800EB011071490978405CB04203
:100CF00013D15E4B704A604801785E48007805F079
:100D00007DFF01206D49087007E0584B6A4A68482A
:100D100001786648007805F0BBFD08F038FB6849AB
:100D2000087000E000E00FE700BFBDE8F88F2DE994
:100D3000F04103205349087002205349087061486C
:100D40004860002088600220504908705D48486073
:100D5000002088604FF400415B4803F0D8FD00207C
:100D60004D4908605949086000240025804609E083
:100D700049480468C4F150004349086104F1500037
:100D8000424908612B2CF3DB25203F4908617B2079
:100D90003E4908613C4805690846D0F810800AE0E1
:100DA0004A48006809F0DCFB06460022484B09F07F
:100DB0008BF800D200E0F3E700BF0020364908605E
:100DC00042490860002408E028192F490861A8EB6F
:100DD00004002E490861304804682B2CF4DB5020B5
:100DE00029490861294908614FF40041364803F058
:100DF00090FD22490978881DC11700EB5171C91077
:100E0000A0EBC1011D4A1170002021490870042087
:100E100022490870BDE8F0812DE9F04781460D4672
:100E20002946484609F0C8FB8046154909F0C4FD2B
:100E3000074609F025FD06460820124908701248A9
:100E400046600020104988601048466000200F4925
:100E50008860484609F084FB07460022134609F0E3
:100E60006DF96BD268E0000035000020F80A002020
:100E70004B0000203C0000203D00002037000020F7
:100E80000060AC4428000020140000200000002076
:100E90002A0000206C0100202C00002029000020E6
:100EA000202EE240A0DFE440480000203E00002069
:100EB0003F00002049000020F80B002047000020E0
:100EC0003400002090D00300000801407C01002085
:100ED00000E051C0FE4B5B68FE4F7F68DA1902EB01
:100EE000D2735F10FA4B9B68DFF8E8C3DCF808C0E8
:100EF00003EB0C0101EBD1735810002801DB034612
:100F000000E04342FB1A8A2B10DA0020F249086005
:100F10000846046807E0A4F11E00EE490861EC49A8
:100F20000861ED4804681E2CF5DD06E06FF01D0039
:100F3000E8490861E6490861CCE73EE0284609F047
:100F40000FFB07460022134609F0F8F835D232E0CD
:100F5000DF4B5B68DF4F7F68DA1902EBD2735F10FB
:100F6000DB4B9B68DFF86CC3DCF808C003EB0C01BB
:100F700001EBD1735810002801DB034600E0434227
:100F8000FB1A8A2B12DA0020D3490860084604684D
:100F900009E0C4F10A00CF490861C4F10A00CC4954
:100FA0000861CD4804680A2CF3DD05E00A20C94930
:100FB0000861C7490861CBE700BF0520C749087031
:100FC000BDE8F0872DE9F84F81460520C349087038
:100FD0000220C049087049F64040486000208860FF
:100FE0000220BB49087049F64040486000208860F4
:100FF00083464FF40041BA4803F089FCB9490978A7
:10100000B94A02EB0111B74A5278895CB74A1078A5
:1010100000EBD072531001229A401140002936D0C3
:101020002AE0B34AD168106809F0CEFD05464FF0BA
:10103000804109F0C1FC8346AE49584609F088FD5D
:1010400001D2DFF8B0B2AC49584609F081FC01D2B8
:10105000DFF8A4B25946A94809F0B6FD054609F0E3
:101060000FFC9C4908615946A44809F0A5FA0546B9
:1010700009F006FC964908619D4AD168106809F09C
:101080009BFA05464FF0834109F062FDC9D3002069
:101090009149086012E090480468502C08DAC4F1C5
:1010A00050008C490861C4F150008949086105E08D
:1010B0000020884908618649086100E0EBE700BF2D
:1010C00000208549086000BF834800680028FBDBDA
:1010D000874AD168106809F06FFA009009F040FA69
:1010E000074600224FF0804308F03CFD054608F01B
:1010F0004BFC82460020824908607749086016E070
:1011000075480468282C05DA724804616042704909
:1011100008610CE028206F49086140426C49086171
:1011200078497748006809F013FD00D200E0E7E74E
:1011300000BF6E490978081DC11700EB5171C91035
:10114000A0EBC101694A117000206349086012E0F8
:1011500061480468282C08DAC4F128005D49086158
:10116000A4F128005A49086105E0002059490861A6
:101170005749086100E0EBE700BFB9F1010F1CD14E
:1011800000205549086000BF534800680028FBDB79
:101190000020514908600EE04F480468502C04DAE2
:1011A0004C4804614A48046105E0502049490861FF
:1011B0004749086100E0EFE70FE05349504609F066
:1011C000FBF905460021FFF727FE00204249086091
:1011D00000BF414800680028FBDB4FF40041404855
:1011E00003F097FBBDE8F88F2DE9F04104203B495F
:1011F0000870022037490870444848600020886021
:1012000002203349087041484860002088604FF44C
:101210000041334803F07BFB00202F490860384928
:10122000086000240025804609E02B48046804F18A
:10123000500028490861C4F15000254908612B2C51
:10124000F3DB7B20234908612520214908612148DF
:1012500005690846D0F810800AE02948006809F0BE
:101260007FF9064600222A4B08F068FF00D200E012
:10127000F3E700BF002018490860214908600024F6
:1012800008E0281B1349086108EB040010490861B5
:10129000114804682B2CF4DB50200E4908610C49DE
:1012A00008614FF400410E4803F033FB0F49097801
:1012B000881CC11700EB5171C910A0EBC1010B4A8A
:1012C000117000201349087004201349087025E0AC
:1012D00000000020140000202C0000202800002026
:1012E0000008014035000020F80A002037000020E7
:1012F0006C0100200000A0400000A0C00000A0423F
:101300007C010020000025430000404090D00300F5
:1013100000E051402A00002029000020BDE8F081B3
:101320002DE9FF4704460E4691469A46002030704C
:1013300004EB4400FE4901EB8000007A70B104EB3D
:101340004400FC4901EBC000006942F25201022254
:1013500002FB0010484501DDBDE8FF87F648007834
:1013600098B90120F44908700020F449086004EBA2
:101370004400EF4951F82000DC2803D10120F04956
:10138000087002E00020EE490870EE48007800285E
:101390006BD1ED48006904EB4401E54A52F8211095
:1013A00088421EDAE548006809F0A6FA80465146F0
:1013B00009F002FB074609F063FA054604EB440016
:1013C000DB4901EB8000017A4819DF49086104EB31
:1013D0004400D74901EB8000017A4819DB490861D4
:1013E0000DE004EB4400D24951F82000D6490861D1
:1013F00004EB4400CE4951F82000D4490861D0489C
:10140000007878B9D048006904EB4401C84A52F822
:101410002110884206DB0120CA4908700020C74914
:10142000086022E0C648007801281ED1484608F02E
:1014300020FDCDE9020104EB4401BD4A02EB81012C
:10144000486808F016FD07460022C14B08F078FDF9
:10145000CDE90001DDE9022308F036FD05D80120C1
:10146000B84908700020B5490860B64800780128DE
:101470003DD1B548006904EB4401AD4A02EB81015E
:10148000497A88421CDDAD48006809F035FA80468B
:10149000514609F091FA074609F0F2F9054604EBC6
:1014A0004400A34951F82000401BA749086104EB00
:1014B00044009F4951F82000401BA449086116E0F0
:1014C00004EB44009A4901EB8000407A9E49086190
:1014D00004EB4400964901EB8000407A9B49086187
:1014E000002095490870974908700120307000BFAE
:1014F00032E72DE9F04F89B004464FF00009CA46A3
:10150000002500200790069005900490039002901B
:10151000019001208F49087002208B49087004EB6C
:101520004400844901EBC000C06844F620610844CF
:101530008549486004EB44007E4901EBC000006926
:101540008149886002208149087004EB4400794990
:1015500001EBC000C06844F6206108447B49486044
:1015600004EB4400734901EBC000006977498860CF
:1015700004EB44006F4901EBC000C0684FEA400B28
:1015800004EB44016B4A52F831004FF0804109F0FE
:1015900013FA074609F074F9089004EB4400654912
:1015A00001EBC000006944F20761884205DD0120BB
:1015B00007F07DFB6849087004E0002007F077FB26
:1015C00065490870FFE05D4505DA5F4880685F495E
:1015D0008968451805E00020574908705949087086
:1015E000F2E09DF8040030B94FF07C532A4601A97F
:1015F0002046FFF795FE4CF2EC1095FBF0F100FB56
:10160000115044F2A40188420EDA002053490870B8
:10161000079800286BD101200790002006900590C4
:1016200004900290039062E04CF2EC1095FBF0F114
:1016300000FB115048F24811884222DA0120474944
:1016400008700698002852D10120069007F02FFB61
:1016500081464148007800EA090068B13E480078B8
:1016600000EA09003C490870B9F1030F01D10320D9
:101670000870012004903AE0002037490870049077
:1016800035E04CF2EC1095FBF0F100FB11500090AE
:1016900008F0EFFB07460022314B08F015FC0DD295
:1016A00002202E490870049808BB0120049007F01E
:1016B000FEFA8146284880F8009018E04CF2EC10C1
:1016C00095FBF0F100FB11504CF2EC1188420EDA60
:1016D000032022490870059848B901200590002090
:1016E00007900AF1010000F0FF0A07F01DF94CF223
:1016F000EC1095FBF0F100FB115042F618318842D6
:1017000061DD4CF2EC1095FBF0F100FB115049F259
:10171000D461884257DA029820B90120029007F07C
:101720006BFB06460398E8BB012E1CD0022E19E085
:10173000F8240020F80C0020450000204000002084
:101740004A00002046000020140000200000002075
:101750000000F83F280000202A0000202900002077
:101760002091E7402FD1F84951F826004FF08341EE
:1017700009F0EEF927D20020F449086000BFF348D1
:1017800000680028FBD0F04951F826004FF0834153
:1017900009F0DEF917D20120039043F22C3046F213
:1017A000F60100E00FE001FB0A00E949886043F21E
:1017B0002C3046F2F60101FB0A00E6498860E44855
:1017C000806889684518FEE600BF09B0BDE8F08F63
:1017D00010B50220E0490870002425E02046FFF7FC
:1017E00088FE04EB4400DD4901EBC000806802285C
:1017F00002D1FFF7F9FC16E004EB4400D74901EBF6
:10180000C0008068042804D101210846FFF7DAFBF4
:1018100009E004EB4400D14901EBC00080680628D0
:1018200001D1FFF784FA641CCD4800688442D5DBFF
:101830000120C94908700420CA49087010BD10B5BC
:1018400004461CB90020C749087012E0022C02D1DE
:10185000FFF7CAFC0DE0062C02D1FFF768FA08E09A
:10186000082C02D1FFF7B4FF03E00A2C01D1FFF7E7
:10187000AFFF10BDF0B50B460024002530B10228A3
:1018800018D0042824D0062830D105E0B64E31788F
:1018900001EBD17670102AE0B34F3F78B91DCF1716
:1018A00001EB5777FF10A1EBC70606EBD677C7F31E
:1018B00047001CE0AC4F3F78B91CCF1701EB5777BE
:1018C000FF10A1EBC70606EBD677C7F347000EE083
:1018D000A54F3F78391DCF1701EB5777FF10A1EBCC
:1018E000C70606EBD677C7F3470000E000BF00BF8E
:1018F00030B101280AD002280FD003281AD112E0F3
:101900009A490C784978491CCDB214E09749097876
:10191000491CCCB295494D780DE094490C78497832
:10192000491ECDB207E091490978491ECCB28F49D2
:101930004D7800E000BF00BF8D4901EB0411495D07
:1019400019708C4901EB0411495D1170F0BD2DE94E
:10195000F04F8FB00446002700200E900D900C90A1
:1019600082460B9083460A90099083480890012094
:1019700007900020069001208049087002207449D9
:10198000087004EB4400754901EBC000C06841F6E3
:10199000583108446E49486004EB44006F4901EB3C
:1019A000C00000696A49886002206A49087004EB37
:1019B00044006A4901EBC000C06841F65831084450
:1019C0006449486004EB4400644901EBC0000069CD
:1019D00060498860002007F06AF96949087004EBE3
:1019E00044005E4901EBC000C0684FEA400904EBC7
:1019F00044015A4A52F831004FF0804108F0DCFFB0
:101A0000059008F03DFF80465749087800EBD071FB
:101A10004910A0EB410100297DD093E0404608F039
:101A200028FACDE904010E9808F023FA554A564BDE
:101A3000CDE9000107F0DAFFCDE90201DDE9042379
:101A400008F07CFB08D20798012805D10EAA08A946
:101A5000204607F026FD07900E98484506DA3C48D8
:101A600080683C49896808440E9007E0079828B9C7
:101A7000002046490870464908708BE04AF29A11E6
:101A80000E980844404517DD04EB4400334901EB50
:101A9000C0008068002803DD0120324908700EE094
:101AA00004EB44002D4901EBC0008068002806DAF1
:101AB00002202C49087002E000202A4908709DF895
:101AC000240030B94FF07E5309A920460E9AFFF743
:101AD00027FC0698B0BB48F61A110E9890FBF1F25D
:101AE00001FB120048F24811884202DA4FF0000A66
:101AF00028E048F61A110E9890FBF1F201FB120053
:101B000088421FDABAF1000F1CD14FF0010A40469B
:101B100008F0AFF900E03EE0CDE904010E9808F0CE
:101B2000A8F9184A184BCDE9000107F05FFFCDE98D
:101B30000201DDE9042308F001FB01D20120069037
:101B400006F0F2FE6AE700006C0100202C00002085
:101B500014000020000000202B000020F80C0020C2
:101B60003800002029000020370000203500002028
:101B7000F80A0020F80B00200000964328000020FF
:101B80002A000020CDCCCCCC4C51E94045000020AF
:101B90004600002008E105E1FC480078FC49087097
:101BA0000E98484506DAFB488068FB498968084476
:101BB0000E9008E0BBF1010F05D10020F749087035
:101BC000F7490870EFE09DF8240030B94FF07E53DC
:101BD00009A920460E9AFFF7A3FB4CF2EC110E98D0
:101BE00090FBF1F201FB120044F2A40188420EDAEC
:101BF0000020EC4908700D98002863D101200D9059
:101C000000200C9082460B900A9083465AE04CF2DA
:101C1000EC110E9890FBF1F201FB120048F2481112
:101C200088421DDA0120DF4908700C9890BB012022
:101C30000C9007F03CF80546D4480178294051B192
:101C400000782840D1490870032D01D10320087085
:101C500001200B9036E00020CC4908700B9031E059
:101C60004CF2EC110E9890FBF1F201FB1200039084
:101C700008F0FFF80022CC4BCDE9040108F024F96C
:101C800009D20220C74908700B9818B901200B909F
:101C9000BE48057016E04CF2EC110E9890FBF1F284
:101CA00001FB120088420DDA0320BE490870BAF128
:101CB000000F07D14FF0010A00200D90781CC7B229
:101CC00006F032FE4CF2EC110E9890FBF1F201FBA3
:101CD000120042F61831884264DD4CF2EC110E9885
:101CE00090FBF1F201FB120049F2D461884259DA0B
:101CF0000A9820B901200A9007F07EF80646BBF149
:101D0000000F4FD1012E01D0022E43D1A74951F827
:101D100026004FF0834108F01BFF43D20020A44966
:101D2000086000BFA24800680028FBD09F4951F816
:101D300026004FF0834108F00BFF33D24FF0010B28
:101D400046F2F60107FB01F008F093F80022994BE8
:101D5000CDE9020107F04AFECDE9040108F05AF886
:101D60008C49886046F2F60107FB01F008F081F823
:101D70000022904BCDE9020107F038FECDE90401C5
:101D800008F048F884498860824880688968084477
:101D90000E9007E048F60E410E980844404501DDDC
:101DA0004FF0010BF8E600BF0FB0BDE8F08F2DE952
:101DB000F04100250026002400207F4908727F4959
:101DC000886808F056F821F00041074608F022F82C
:101DD0002D2806D05A2808D087280AD0B42810D138
:101DE0000BE06E20744948720BE06E207249487215
:101DF00007E06E207049487203E06E206E49487219
:101E000000BF00BF6D48C0686C490969401AA0F561
:101E10000146483E42F6183086421EDDDC25DC2DA8
:101E200005DA654805600020634948601BE0DC2056
:101E300061490860497A604A527A4BF6105301FBB7
:101E4000123000EBD0714A105C49C968A1F5E2413B
:101E50001F398E1A5848466005E05748407A56495F
:101E6000086000204860012443E1611E01EB41014C
:101E7000524A02EBC101886807F0FBFF21F00041E4
:101E8000074607F0C7FF2D2806D05A280CD0872810
:101E90002ED0B4283CD133E06E2004EB4401464AF6
:101EA00002EB8101087233E0611E01EB4101434AFC
:101EB00002EBC101486807F0DCFF21F00041074652
:101EC00007F0A8FF5A2190FBF1F201FB120038B98C
:101ED0006E2004EB4401384A02EB8101087206E0EF
:101EE0006E2004EB4401344A02EB810108720FE0DA
:101EF0006E2004EB4401304A02EB8101087207E0D6
:101F00006E2004EB44012C4A02EB8101087200BFF1
:101F100000BF04EB4401294A02EBC101886807F0C5
:101F2000A8FF21F00041074607F074FF5A2811D09E
:101F300003DC50B32D2863D104E0872848D0B428AF
:101F40005ED14DE06E2004EB44011B4A02EB81019F
:101F5000487255E004EB4401184A02EBC10148689D
:101F600007F087FF21F00041074607F053FF5A2191
:101F700090FBF1F201FB120010BB6E2004EB440158
:101F80000D4A02EB8101487221E031E02A00002075
:101F90004400002014000020000000204500002024
:101FA00046000020290000202091E7406C0100201D
:101FB0002C0000204096C940F8240020F80C002096
:101FC0006E2004EB4401F74A02EB8101487217E0EE
:101FD0006E2004EB4401F34A02EB810148720FE0EA
:101FE0006E2004EB4401EF4A02EB8101487207E0E6
:101FF000502004EB4401EB4A02EB8101487200BF20
:1020000000BF04EB4400E84901EBC000C06804EBEA
:102010004401E54A02EBC1010969401AA0F50146F5
:10202000483E42F61830864238DDDC25DC2D0CDADD
:1020300004EB4400DB4941F82050002004EB44014C
:10204000D84A02EB8101486052E0DC2004EB4401F5
:10205000D44A42F8210004EB440102EB8101497AA1
:1020600004EB4402CF4B03EB8202527A4BF610533F
:1020700001FB123000EBD0714A1004EB4401CA4B53
:1020800003EBC101C968A1F5E2411F398E1A04EBC7
:102090004400C44901EB8000466029E004EB4400A1
:1020A000C04901EB8000007A04EB4401BD4A42F8CC
:1020B000210004EB4400114601EB8000007A04EBA0
:1020C000440102EB8101497A884209DA04EB4400B9
:1020D000114601EB8000407A04EB440142F82100F4
:1020E00041F2290004EB4401AE4A02EB8101486051
:1020F000641CAE4800688442FFF6B7AEBDE8F081CC
:102100002DE9F04100250420A94908700220A949C1
:102110000870A9484860002088600220A74908701C
:10212000A5484860002088604FF40041A44802F0B0
:10213000EEFB0020A3490860A349086000240026A4
:10214000002709E09F480468C4F16E0099490861BE
:1021500004F16E00994908612B2CF3DB432095496B
:1021600008619920954908619248066908460769FF
:1021700019E096499448006808F0EAFB00D213E0A1
:102180008DB9012506F0D0FB06F0CEFB06F0CCFBA6
:102190008F490978081DC11700EB5171C910A0EBD8
:1021A000C1018B4A1170E4E700BF00208549086037
:1021B00085490860002407E030197E490861381B12
:1021C0007E4908617F4804682B2CF5DB6E20794935
:1021D00008617A4908614FF40041794802F099FB9F
:1021E000BDE8F0812DE9F041002504207049087018
:1021F0000220704908707048486000208860022002
:102200006E4908706C484860002088604FF40041B7
:102210006B4802F07CFB00206A4908606A4908604C
:1022200000240026002709E06648046804F16E00D7
:1022300060490861C4F16E00604908612A2CF3DB33
:1022400098205C49086144205C4908615948066946
:102250000846076919E05F495B48006808F078FCA8
:1022600000D213E08DB9012506F05EFB06F05CFBA1
:1022700006F05AFB56490978081DC11700EB517149
:10228000C910A0EBC101524A1170E4E700BF002061
:102290004C4908604C490860002407E0301B454960
:1022A0000861381945490861464804682A2CF5DB5D
:1022B0006E2040490861414908614FF4004140489F
:1022C00002F027FBBDE8F0812DE9F0410025042054
:1022D00037490870022037490870374848600020A5
:1022E00088600220354908703348486000208860C3
:1022F0004FF40041324802F00AFB3549087800EB00
:10230000D0714910A0EB4101002968D100202D496E
:1023100008602D49086000240026002709E02948AC
:102320000468C4F16E002349086104F16E0023497A
:1023300008612E2CF3DB40201E4908619C201F49B8
:1023400008611C4806690846076917E022491E48CB
:10235000006808F0FDFA00D211E07DB9012506F011
:10236000E3FA06F0E1FA1A490978481DC11700EBB3
:102370005171C910A0EBC101154A1170E6E700BF09
:1023800000201049086010490860002407E0301957
:1023900008490861381B094908610A4804682E2C5D
:1023A000F5DB68E0F8240020F80C0020380000205D
:1023B00028000020140000207011010000000020FF
:1023C000000801402C0000207C010020000022C3F6
:1023D00037000020000021430000E0C2FFE700209A
:1023E000FE490860FE49086000240026002709E035
:1023F000FA480468C4F16E00FA49086104F16E00FD
:10240000F94908612E2CF3DB4020F64908619C2035
:10241000F5490861F34806690846076917E0F3497A
:10242000EF48006808F094FA00D211E07DB9012568
:1024300006F07AFA06F078FAED490978481DC117D6
:1024400000EB5171C910A0EBC101E94A1170E6E738
:1024500000BF0020E1490860E1490860002407E06E
:102460003019E0490861381BDF490861DB4804681E
:102470002E2CF5DB00BF6E20DA490861DA490861CD
:102480004FF40041DB4802F044FABDE8F0812DE949
:10249000F04100250420D84908700220D149087075
:1024A000D6484860002088600220CF490870D34891
:1024B0004860002088604FF40041CE4802F027FABF
:1024C000CB49087800EBD0714910A0EB41010029FD
:1024D0004BD10020C1490860C14908600024002692
:1024E000002709E0BD48046804F16E00BD49086199
:1024F000C4F16E00BC4908612E2CF3DB9C20B94965
:1025000008614020B8490861B6480669084607696D
:1025100017E0BB49B248006808F01AFB00D211E08E
:102520007DB9012506F000FA06F0FEF9B0490978F8
:10253000C81CC11700EB5171C910A0EBC101AC4A16
:102540001170E6E700BF0020A4490860A4490860B4
:10255000002407E0301BA34908613819A24908612B
:102560009E4804682E2CF5DB4BE000209B49086058
:102570009B49086000240026002709E0974804686A
:1025800004F16E0097490861C4F16E009649086134
:102590002E2CF3DB9C20934908614020924908616E
:1025A000904806690846076917E096498C48006814
:1025B00008F0CEFA00D211E07DB9012506F0B4F999
:1025C00006F0B2F98A490978C81CC11700EB5171AD
:1025D000C910A0EBC101864A1170E6E700BF0020D8
:1025E0007E4908607E490860002407E0301B7D4971
:1025F000086138197C490861784804682E2CF5DB9D
:1026000000BF6E2077490861774908614FF40041A7
:10261000784802F07EF9BDE8F0812DE9F04100250F
:1026200004207549087002206E490870734848609C
:102630000020886002206C490870704848600020C3
:1026400088604FF400416B4802F061F968490878EE
:1026500000EBD0714910A0EB410100294BD10020C3
:102660005E4908605E49086000240026002709E0F2
:102670005A480468C4F16E005A49086104F16E00BA
:10268000594908612E2CF3DB4020564908619C20F3
:1026900055490861534806690846076917E05A49D1
:1026A0004F48006808F054F900D211E07DB90125C7
:1026B00006F03AF906F038F94D490978881DC11736
:1026C00000EB5171C910A0EBC101494A1170E6E756
:1026D00000BF00204149086041490860002407E02C
:1026E000301940490861381B3F4908613B4804687C
:1026F0002E2CF5DB49E00020384908603849086095
:1027000000240026002709E034480468C4F16E0064
:102710003449086104F16E00334908612E2CF3DB63
:102720004020304908619C202F4908612D480669E6
:102730000846076915E034492948006808F008F997
:1027400000D20FE06DB9012506F0EEF828490978AE
:10275000881DC11700EB5171C910A0EBC101244ABB
:102760001170E8E700BF00201C4908601C490860A0
:10277000002407E030191B490861381B1A49086119
:10278000164804682E2CF5DB00BF6E201549086141
:10279000154908614FF40041164802F0BAF8BDE847
:1027A000F0812DE9F0410025042013490870022032
:1027B0000C490870114848600020886002200A49CE
:1027C00008700E484860002088604FF400410948B6
:1027D00002F09DF80649087818E000002C0000205F
:1027E0007C01002014000020000000200000E0C256
:1027F000370000200008014028000020701101006F
:102800000000EC420000EA4200008CC200EBD071F4
:102810004910A0EB410100294BD10020F749086085
:10282000F749086000240026002709E0F3480468FF
:1028300004F16E00F3490861C4F16E00F2490861C9
:102840002E2CF3DB9C20EF4908614020EE49086103
:10285000EC4806690846076917E0EC49E848006853
:1028600008F076F900D211E07DB9012506F05CF898
:1028700006F05AF8E6490978881CC11700EB517137
:10288000C910A0EBC101E24A1170E6E700BF0020C9
:10289000DA490860DA490860002407E0301BD949AA
:1028A00008613819D8490861D44804682E2CF5DB32
:1028B00049E00020D1490860D14908600024002681
:1028C000002709E0CD48046804F16E00CD49086195
:1028D000C4F16E00CC4908612E2CF3DB9C20C94961
:1028E00008614020C8490861C6480669084607696A
:1028F00015E0C649C248006808F02AF900D20FE086
:102900006DB9012506F010F8C1490978881CC11776
:1029100000EB5171C910A0EBC101BD4A1170E8E78D
:1029200000BF0020B5490860B5490860002407E0F1
:10293000301BB44908613819B3490861AF480468CD
:102940002E2CF5DB00BF6E20AE490861AE49086150
:102950004FF40041AF4801F0DCFFBDE8F0812DE904
:10296000F04100250420AC4908700220A5490870F8
:10297000AA484860002088600220A3490870A74840
:102980004860002088604FF40041A24801F0BFFF7A
:102990009F49087800EBD0714910A0EB4101002954
:1029A00049D1002095490860954908600024002617
:1029B000002709E091480468C4F16E00914908615C
:1029C00004F16E00904908612E2CF3DB40208D4904
:1029D00008619C208C4908618A4806690846076995
:1029E00015E08F498648006807F0B2FF00D20FE07B
:1029F0006DB9012505F098FF85490978C81DC117F3
:102A000000EB5171C910A0EBC101814A1170E8E7D8
:102A100000BF00207949086079490860002407E078
:102A2000301978490861381B774908617348046890
:102A30002E2CF5DB49E000207049086070490860E1
:102A400000240026002709E06C480468C4F16E00E9
:102A50006C49086104F16E006B4908612E2CF3DBB0
:102A60004020684908619C206749086165480669FB
:102A70000846076915E06A496148006807F068FF81
:102A800000D20FE06DB9012505F04EFF60490978CD
:102A9000C81DC11700EB5171C910A0EBC1015C4A00
:102AA0001170E8E700BF00205449086054490860ED
:102AB000002407E0301953490861381B5249086166
:102AC0004E4804682E2CF5DB00BF6E204D4908618E
:102AD0004D4908614FF400414E4801F01AFFBDE82E
:102AE000F0812DE9F041002504204B4908700220B7
:102AF00044490870494848600020886002204249E3
:102B0000087046484860002088604FF40041414802
:102B100001F0FDFE3E49087800EBD0714910A0EBB2
:102B20004101002949D10020344908603449086036
:102B300000240026002709E03048046804F16E00F4
:102B400030490861C4F16E002F4908612E2CF3DB77
:102B50009C202C49086140202B49086129480669BE
:102B60000846076915E02F492548006807F0F0FF7F
:102B700000D20FE06DB9012505F0D6FE2449097891
:102B8000481CC11700EB5171C910A0EBC101204ACC
:102B90001170E8E700BF0020184908601849086074
:102BA000002407E0301B17490861381916490861ED
:102BB000124804682E2CF5DB60E000200F49086005
:102BC0000F49086000240026002709E00B4804682C
:102BD00004F16E000B490861C4F16E000A490861F6
:102BE0002E2CF3DB9C200749086140200649086130
:102BF00004480669084607692CE000002C00002004
:102C00007C010020140000200000002000008C4205
:102C1000370000200008014028000020701101004A
:102C20000000B8C10000D04195499648006807F0FF
:102C30008FFF00D20FE06DB9012505F075FE9249B6
:102C40000978481CC11700EB5171C910A0EBC101F4
:102C50008D4A1170E8E700BF00208C49086089495F
:102C60000860002407E0301B894908613819894948
:102C70000861864804682E2CF5DB00BF6E2084496D
:102C80000861844908614FF40041834801F041FE26
:102C9000BDE8F08110B5044604F12D0010B9FFF72E
:102CA00020FF24E02D2C02D1FFF759FE1FE004F194
:102CB0005A0010B9FFF775FD19E05A2C02D1FFF741
:102CC000ACFC14E004F1870010B9FFF7E0FB0EE064
:102CD000872C02D1FFF7F8FA09E004F1B40010B92B
:102CE000FFF780FA03E0B42C01D1FFF709FA10BD19
:102CF00010B5002069490870634908706849087078
:102D00004870684B684A694801786948007803F060
:102D100075FF04F0F6FB04F05FFDFFF748F80320B1
:102D20006449087002205A490870634848600020CE
:102D300088600220574908705F484860002088601A
:102D40005749087048705049087001205B49087065
:102D5000087000240BE02046FEF7F9FD04EB440167
:102D6000574A02EBC1018868FFF794FF641C55487D
:102D700000688442EFDB4E480078494908704B48B0
:102D80000078487010BD30B500210022002000BF3F
:102D900071E0502300EB40044B4D05EB840423729B
:102DA00000EB400405EB8404637200EB4003444CE9
:102DB00004EBC303DB6800EB4004414D05EBC404A6
:102DC00024691B1BA3F50142483A42F618339A4284
:102DD00035DD6E216E290CDA00EB40033A4C44F8E5
:102DE0002310002300EB4004374D05EB840463609F
:102DF00040E06E2300EB4004334D45F8243000EBF7
:102E000040032C4604EB83035B7A00EB400405EBA4
:102E10008404647A42F6447503FB145400EB4003C7
:102E2000274D05EBC303DB68A3F5E2431F3B1A1BE9
:102E300000EB4003244C04EB83035A601AE0502358
:102E400000EB4004204D45F8243000EB40032C46B5
:102E500004EB83031B7A502B04DA502300EB40046D
:102E600045F8243041F2290300EB4004164D05EBF0
:102E700084046360401C134B1B68984289DB30BD9F
:102E80000000D0417C010020370000202C000020F1
:102E9000140000200000002000080140290000204C
:102EA00035000020F80A0020F80B00203F00002029
:102EB0003E0000202A00002020A10700280000205A
:102EC000F80C002038000020F82400204FF07C503F
:102ED0001E490860002048601D4888601D48C86081
:102EE0000020086148611C4888631C48C8631C486E
:102EF00008641C4848640C20A1F86C000D20A1F85F
:102F00006E000E20A1F870000F20A1F872001020B2
:102F1000A1F874001120A1F8760013480862134844
:102F20004862134888621348C8621348086313480C
:102F30004863134888611348C86141F6BE60A1F830
:102F400078001148C1F87A0070470000F83000207E
:102F500000002041000070410000E0410000E84115
:102F60000000F0410000F841F2B010BF79E9163FCF
:102F7000E09C01BF3C4E613F65AA10BFE71D573F73
:102F8000265315BF2A3A823FB400CD3D10B59AB002
:102F90000121092001F0CAFE01217C4801F0DBFC7F
:102FA0001820ADF8640010208DF8670003208DF81C
:102FB000660019A9764801F0FDFB36208DF828003F
:102FC0000F208DF829008DF82A0001208DF82B00A4
:102FD0000AA800F068FC0121102001F0B4FE41F2C3
:102FE0000140ADF830000020ADF82C00ADF8320003
:102FF000ADF82E0001223F21664802F058FD0BA9D2
:10300000644802F051F901224121624802F0C3FCF8
:103010004FF4004001F0EEFD0121084601F079FE79
:103020005D4800F0D1FE5D480E905D480F90002095
:1030300010900620119000201290802013904000E4
:103040001490800015902020169000021790002008
:1030500018900EA9504800F059FF01214E4800F089
:1030600080FF01214FF4047001F060FE3F20ADF8B5
:10307000640000208DF8670003208DF8660019A910
:10308000484801F097FB0020059001208DF81800BA
:103090008DF819004FF4602007900020089006205A
:1030A0008DF8240005A93D484C3800F08CFC012324
:1030B0001A460A2139484C3800F01DFD012304222C
:1030C0000B2136484C3800F016FD012303220C2159
:1030D00032484C3800F00FFD012302220D212F4809
:1030E0004C3800F008FD012305220E212B484C38F6
:1030F00000F001FD012306220F2128484C3800F082
:10310000FAFC012125484C3800F094FC01212348A9
:103110004C3800F084FC21484C3800F0A2FC00BF81
:103120001E484C3800F0A2FC0028F9D11B484C384E
:1031300000F0A6FC00BF19484C3800F0A6FC00289F
:10314000F9D1012115484C3800F0A9FC00220821D2
:103150000F4801F0E0FB002210210D4801F0DBFBDD
:103160001148406B1049096B0F4A526A0E4B1B6A9B
:103170000D4CCDE90032CDE90210E36AA26AE169A3
:10318000A06904F039F81AB010BD00000004300046
:10319000000C014000100040080002404C24014097
:1031A000F832002000100140F83000201E4A11883B
:1031B0001E4A127822B91E4A118001221B4B1A7036
:1031C0001B4A12888A1A10B21A4A904203DA42F253
:1031D0001072024410B241F28832904202DDA0EB3C
:1031E000420210B2124A11807047134A1188134AE2
:1031F000127822B9124A11800122104B1A70104A1B
:1032000012888A1A10B20B4A904203DA42F2107204
:10321000024410B241F28832904202DDA0EB420239
:1032200010B2074A11807047240400408D0100202D
:103230009C01002078ECFFFF240800408C01002056
:103240009E0100202DE9FF5F81468A464FF0000B6A
:10325000A9EB0A0B484800685844474908600846EB
:103260000068B0F5FA6F02DD4FF4FA60086042487A
:10327000006810F5FA6F02DA40483F4908603E499D
:1032800009683F4A1268891A01EBC10006F0F1FD96
:10329000CDE902013848006806F0EBFD07464FF023
:1032A0003332384B06F04CFECDE90001DDE9022354
:1032B00006F09CFB054606F0ADFD04462E4800686E
:1032C0002F490860B4F57A7F01DD4FF47A7414F564
:1032D0007A7F00DA2C4C204604B0BDE8F09F2DE93F
:1032E000FF5F81468A464FF0000BA9EB0A0B274887
:1032F000006858442549086008460068B0F5FA6F30
:1033000002DD4FF4FA6008602048006810F5FA6F9B
:1033100002DA1A481D4908601C4909681C4A1268EB
:10332000891A01EBC10006F0A4FDCDE9020117489E
:10333000006806F09EFD07464FF03332114B06F051
:10334000FFFDCDE90001DDE9022306F04FFB054654
:1033500006F060FD04460D4800680D490860B4F5AC
:103360007A7F01DD4FF47A7414F57A7F00DA064C27
:10337000204604B0BDE8F09FA401002030F8FFFF14
:10338000A80100203333D33F18FCFFFFAC0100201D
:10339000B0010020704700BFFEE700BFFEE700BF9E
:1033A000FEE700BFFEE770477047704710B54FF06B
:1033B000E0208469D4480068401CD3490860D348A1
:1033C0000068401CD1490860D1480068401CD049C1
:1033D0000860D0480088D049A1F86C00CD484088EA
:1033E000A1F86E00CB488088A1F87000C948C08859
:1033F000A1F87200C948006807F05EFAC649A1F852
:103400007400C749C34803F0FEFDC649C3480068BD
:1034100003F01BFFC448007805281AD14FF400417F
:10342000C24801F074FABC48D0F87A2000F1780163
:10343000BA48006803F039FF0122BB49B84803F0DD
:103440005BFFB9480078012803D1C103B74801F0F8
:1034500060FA03F08CFFB2480068B5490860B048D4
:1034600040684860AE4880688860AD48C068C86001
:1034700004F0D7FFAF4908600846006804F0F4FE86
:10348000AC48006804F059FFA9480068A249886365
:10349000A74840680864A6488068C863A448C06814
:1034A0004864A0480068C1F87E0002F061FF012175
:1034B000A14802F055FA10BD2DE9F04101219E48C6
:1034C00002F017FD00286FD001219B4802F022FD79
:1034D0009A48007830B1012827D0022865D0032807
:1034E00022D19AE096480088964908809448C0887E
:1034F000C8809349088907F017FA884908609048FE
:1035000040899149086001220821904801F003FA9E
:103510008248006807F0D0F98D4908807F4800682C
:1035200007F0CAF98B490880D4E0854800888549AE
:103530000988401A774908808148C0888149C9882C
:10354000401A7449C8807E4800898349088008462B
:10355000008807F0E9F9044670480168204607F042
:103560002BF86E4908607648408977490968084415
:103570007549086000220821744801F0CCF97448AC
:10358000008875490988884203DD734800887049BE
:1035900008807048008870490988884203DA6E48BC
:1035A00000886C49088095E0A0E06548408865493E
:1035B000488063488088888061480089664908801F
:1035C0000846008807F0B0F90446544801682046D0
:1035D00006F0F2FF51490860594840895A49096884
:1035E00008445949086001221021584801F093F914
:1035F0005748008858490988884203DD56480088A2
:10360000534908805348008853490988884203DA9F
:10361000514800884F4908805CE049484088494942
:103620004988401A3B4948804548808845498988EF
:10363000401A38498880424800894749088008462E
:10364000008807F071F9044634480168204606F006
:10365000B3FF324908603A4840893B490968084449
:103660003949086000221021384801F054F900213E
:10367000314802F075F93648008837490988884290
:1036800003DD3548008832490880324800883249D5
:103690000988884203DA304800882E4908802D487E
:1036A000008807F041F906462948008807F03CF9F0
:1036B00007461A480168384607F07BFA0546314646
:1036C00007F082FA04464FF0804107F075F913497C
:1036D000086000BF00BF19490978481CC11700EBFA
:1036E00091718910A0EB8101144A1170BDE8F0813D
:1036F00010B54FF4806000F005FD18B14FF4806004
:1037000000F011FD10BD00002C0000204000002042
:103710003000002084010020F830002080010020CB
:10372000043300207C0100202B0000200008014011
:103730006C010020C001002000100040D2010020D8
:10374000F8320020B8010020C8010020000C014020
:10375000CC010020CE010020D0010020704710B520
:103760003648006840F00100344908600846406867
:1037700033490840314948600846006831490840EB
:103780002E4908600846006820F48020086008463A
:10379000406820F4FE0048604FF41F008860FFF787
:1037A000DDFF4FF000602849086010BD10B5002112
:1037B00000200022214B5B6803F00C0121B1042999
:1037C00006D0082928D107E0204B214C236027E0B0
:1037D0001E4B1F4C236023E0184B5B6803F47010F2
:1037E000164B5B6803F48032022303EB904022B94E
:1037F000184B4343164C23600DE0104B5B6803F4F9
:10380000003323B1134B4343114C236003E00F4BB0
:1038100043430F4C236003E00C4B0D4C236000BF6F
:1038200000BF064B5B68C3F303130B4CE15C084B12
:103830001B68CB40064C236010BD00000010024006
:103840000000FFF8FFFFF6FE08ED00E000127A002E
:10385000D401002000093D00D8010020094880471C
:1038600009480047FEE7FEE7FEE7FEE7FEE7FEE762
:10387000FEE7FEE7FEE7FEE704480549054A064B7A
:10388000704700005F37000831010008803A0020CF
:1038900080400020803C0020803C002031490143D2
:1038A000314A1160704770B5002100230F22C4789F
:1038B00004B32D4C246804F4E064C4F5E064210AE8
:1038C000C1F10403CA40447804FA03F18478144037
:1038D00021430901254C0678A155047804F01F0501
:1038E0000124AC4005786D11AD0005F1E025C5F867
:1038F000004109E0047804F01F050124AC401C4D90
:103900000678761145F8264070BD1A4A0A400243EF
:10391000154B1B1F1A60704739B1134A121D1268EC
:103920000243114B1B1D1A6006E00F4A121D12685C
:1039300082430D4B1B1D1A607047042808D14FF0BD
:10394000E021096941F004014FF0E022116107E034
:103950004FF0E021096921F004014FF0E0221161EC
:10396000704700000000FA050CED00E000E400E004
:1039700080E100E080FFFF1F10B50446FA48844252
:1039800008D10121401501F0EBF90021601501F08B
:10399000E7F917E0F548844208D10121001501F04C
:1039A000DFF90021201501F0DBF90BE0F04884423B
:1039B00008D10121C80301F0D3F900214FF40040E0
:1039C00001F0CEF910BD30B502460020002350684A
:1039D000E84C20400D790C6844EA052420435060EF
:1039E0009068E54C2040D1E902542C434D7944EADB
:1039F000450420439060D06A20F470000C7C641E63
:103A0000E4B2234340EA0350D06230BD002101609C
:103A1000017141718160C16001210174704721B160
:103A2000826842F00102826003E0826822F00102B3
:103A30008260704721B1826842F48072826003E044
:103A4000826822F480728260704710B50023CBB286
:103A50001AB144681C43446002E044689C434460DB
:103A600010BD816841F00801816070470146002067
:103A70008A6802F008020AB1012000E000207047C5
:103A8000816841F0040181607047014600208A6826
:103A900002F004020AB1012000E00020704721B1C9
:103AA000826842F4A002826003E0826822F4A002ED
:103AB00082607047014600208A6802F480020AB1E1
:103AC000012000E00020704710B50A4600210023C5
:103AD000416821F46041531E41EA4331416010BD09
:103AE00021B1426842F40062426003E0426822F47D
:103AF000006242607047F0B504460D460020002188
:103B0000092D11DDE068A5F10A0606EB4607072638
:103B100006FA07F18843A5F10A0606EB460603FA02
:103B200006F10843E0600CE0206905EB4507072635
:103B300006FA07F1884305EB450603FA06F1084348
:103B40002061072A0FDA606B561E06EB86071F26D8
:103B500006FA07F18843561E06EB860605FA06F1BB
:103B60000843606322E00D2A0FDA206BD61F06EBB4
:103B700086071F2606FA07F18843D61F06EB86063E
:103B800005FA06F10843206310E0E06AA2F10D0691
:103B900006EB86071F2606FA07F18843A2F10D06F9
:103BA00006EB860605FA06F10843E062F0BD21B196
:103BB000826842F48012826003E0826822F48012FC
:103BC000826070470146C86C80B2704766484C30CE
:103BD0000068704721B1426842F48062426003E0AD
:103BE000426822F480624260704721B1426842F428
:103BF0008052426003E0426822F480524260704783
:103C00000A460021816821F4E04111438160704738
:103C100021B1826842F40042826003E0826822F4AB
:103C200000428260704721B1826842F402128260D1
:103C300003E0826822F4021282607047014600208D
:103C40008A6802F400120AB1012000E000207047E7
:103C5000F0B504461546002000220026092911DD92
:103C6000E068A1F10A0707EB470C072707FA0CF2F7
:103C70009043A1F10A0707EB470703FA07F2104345
:103C8000E0600CE0206901EB410C072707FA0CF219
:103C9000904301EB410703FA07F210432061A06B48
:103CA000C0F30156EF1C06F1010CA7EB0C0707EB64
:103CB000870C1F2707FA0CF29043EF1C06F1010C4A
:103CC000A7EB0C0707EB870701FA07F21043A06385
:103CD000F0BD10B50A4600210023816B21F440118C
:103CE000531E41EA0351816310BD08B500230093C0
:103CF0000090009B0B440093009B1A6008BD08B520
:103D0000024600200090009201F12800009B184418
:103D100000900098006880B208BD0A460021416802
:103D2000164B1940114341607047416282627047EF
:103D30000A460021416821F01F011143416070478C
:103D400040B109490831096841F40001064A0832C6
:103D5000116007E004490831096821F40001024AB2
:103D60000832116070470000002401400028014023
:103D7000003C0140FFFEF0FFFDF7F1FFFFFD3FFFBC
:103D80000246002013680B400BB1012000E0002028
:103D90007047CA430260704770B502460020002396
:103DA00000240B125568CEB205EA060415681D40C2
:103DB00015B10CB1012000E0002070BD00220A12F4
:103DC000D34303607047000001684FF6FE72114054
:103DD00001600021016041608160C1608D498842BD
:103DE00008D18C490839496841F00F01894A083ADD
:103DF00051608AE087491431884208D185490839E1
:103E0000496841F0F001834A083A51607DE08149F8
:103E10002831884208D17F490839496841F47061E6
:103E20007C4A083A516070E07A493C31884208D1B6
:103E300078490839496841F47041764A083A516036
:103E400063E074495031884208D1724908394968A1
:103E500041F470216F4A083A516056E06D4964316F
:103E6000884208D16B490839496841F47001694AB0
:103E7000083A516049E067497831884208D165497C
:103E80000839496841F07061624A083A51603CE083
:103E90006149884206D1011F096841F00F01021FE4
:103EA000116032E05C491431884208D15A49091F37
:103EB000096841F0F001584A121F116025E0564987
:103EC0002831884208D15449091F096841F47061BA
:103ED000514A121F116018E04F493C31884208D105
:103EE0004D49091F096841F470414B4A121F116086
:103EF0000BE049495031884207D14749091F0968F9
:103F000041F47021444A121F1160704710B500221D
:103F1000026847F6F0739A430C6A8B6823430C6976
:103F200023434C6923438C692343CC6923434C6A64
:103F300023438C6A23431A430260CB6843600B68B7
:103F400083604B68C36010BD0021016041608160E7
:103F5000C160016141618161C1610162416281624F
:103F6000704721B1026842F00102026004E0026879
:103F70004FF6FE731A40026070471AB103680B4394
:103F8000036002E003688B43036070474160704741
:103F90000146486880B2704701460020002201F0C7
:103FA00080531BB11C4B083B1A6802E0194B083BBD
:103FB0001A6802EA01030BB1012000E000207047FB
:103FC00000F0805119B11449091F086002E011493D
:103FD00008394860704701460020002201F08053F4
:103FE0001BB10D4B083B1A6802E00A4B083B1A68EC
:103FF00002EA01030BB1012000E00020704700F04D
:10400000805119B10449091F086002E001490839CB
:1040100048607047080002400804024000204449FC
:104020000860091D0860091D0860091D08604148F5
:104030003F4914310860704700213D498279002AC8
:104040003AD00A46126803689A430B461A600A1D62
:10405000126803689A430B1D1A60027911440A68BA
:1040600003681A430A60324A0832126803689A43A6
:104070002F4B08331A601A1D126803689A432C4BA1
:104080000C331A604279102A0ED11A1F1268036885
:104090001A43274B08331A601A1D126803681A4323
:1040A000234B0C331A600DE02149427911440A6810
:1040B00003681A430A6005E0027911440A6803683C
:1040C0009A430A6070470021016001710C2141711F
:1040D0000021817170471649103109680143144A63
:1040E00010321160704701460020114A14321268E4
:1040F0000A400AB1012000E0002070470C49143149
:1041000008607047014600200022094B1B6803EA43
:104110000102074B14331B680B4013B10AB1012095
:1041200000E0002070470249143108607047000029
:1041300000040140FFFF0F0001460020FE4A106806
:1041400000F03800084310607047FB49096821F00F
:104150000801F94A1160114609680143116070476E
:10416000F549096821F01001F34A11601146096808
:10417000014311607047F148EF494860F0484860DA
:104180007047EE48EC494860ED4848607047EA489F
:10419000006940F08000E84908617047E64800691E
:1041A00040F08000E449086170470420E249C96892
:1041B00001F0010109B101200EE0DF49C96801F0F9
:1041C000040109B1022007E0DB49C96801F01001D0
:1041D00009B1032000E00420704700B50246042323
:1041E000FFF7E3FF034603E0FFF7DFFF0346521E3E
:1041F000012B01D1002AF7D102B90523184600BDD1
:1042000030B5044604254FF43020FFF7E6FF05469D
:10421000042D17D1C848006940F00200C649086162
:1042200008464461006940F0400008614FF43020C6
:10423000FFF7D3FF0546C048006941F6FD7108400D
:10424000BD490861284630BD10B504244FF4302024
:10425000FFF7C3FF0446042C16D1B748006940F0AD
:104260000400B54908610846006940F04000086153
:104270004FF43020FFF7B1FF0446AF48006941F624
:10428000FB710840AC490861204610BD00B50246EC
:104290000423FFF78AFF034603E0FFF786FF034688
:1042A000521E012B01D1002AF7D102B9052318466D
:1042B00000BD10B504244FF43020FFF7E7FF04469B
:1042C000042C16D19C48006940F004009A4908610A
:1042D0000846006940F0400008614FF43020FFF7C5
:1042E000D5FF04469448006941F6FB7108409249A5
:1042F0000861204610BD00208F49C96901F0020104
:1043000009B1012000E00020704730B5A525042444
:10431000FFF7F1FF00B100254FF43020FFF75DFFFC
:104320000446042C3AD185488349886084488860D3
:104330000846006940F0200008610846006940F026
:10434000400008614FF43020FFF747FF0446042C7B
:104350001BD17948006941F6DF7108407649086150
:104360000846006940F01000086176480580E002C8
:10437000FFF733FF0446052C10D06F48006941F663
:10438000EF7108406C49086108E0052C06D06A48C6
:10439000006941F6EF71084067490861204630BD69
:1043A00078B506460C46042500200090E802FFF789
:1043B00014FF0546042D24D15F48006940F0010038
:1043C0005D4908613480E802FFF707FF0546042DC8
:1043D00010D1B01C0090200C00990880E802FFF773
:1043E000FCFE05465448006941F6FE7108405249FA
:1043F000086106E05048006941F6FE7108404E49E8
:104400000861284678BD70B504460D460426F002C2
:10441000FFF7E3FE0646042E11D14748006940F03D
:104420000100454908612580F002FFF7D6FE0646E7
:104430004148006941F6FE7108403F490861304635
:1044400070BD70B505460E460424E002FFF7C5FEB8
:104450000446042C17D139483749886038488860A9
:104460000846006940F0100008612E80E002FFF766
:10447000B4FE0446052C06D02F48006941F6EF71C2
:1044800008402D490861204670BD2DE9F0430446DF
:104490004FF6FF763746B046B1460425E443E6B210
:1044A000C4F30727C4F307484FEA1469E802FFF78B
:1044B00094FE0546042D49D120481F4988602048B4
:1044C00088600846006940F010000861FF2E06D0A1
:1044D0001C4808300680E802FFF77FFE0546042DE1
:1044E00008D1FF2F06D017480A300780E802FFF7EF
:1044F00074FE0546042D0AD1B8F1FF0F07D011480C
:104500000C30A0F80080E802FFF767FE0546042D96
:104510000AD1B9F1FF0F07D00A480E30A0F8009079
:10452000E802FFF75AFE0546052D0FD00248006944
:1045300041F6EF71084007E0002002402301674583
:10454000AB89EFCD00F8FF1F664908612846BDE83A
:10455000F08330B5054604244FF43020FFF73DFECC
:104560000446042C41D160485E4988605F488860F9
:104570000846006940F0200008610846006940F0E4
:10458000400008614FF43020FFF727FE0446042C5A
:1045900022D15448006941F6DF7108405149086151
:1045A0000846006940F0100008611DB10020504924
:1045B000088002E0A5204E4908804FF43020FFF724
:1045C0000CFE0446052C10D04648006941F6EF71F8
:1045D00008404449086108E0052C06D041480069BC
:1045E00041F6DF7108403F490861204630BDF0B513
:1045F00005460E46174604243B483A4988603B4826
:104600008860E002FFF7E9FD0446042C19D1354823
:10461000006940F010003349086147F0F80030436A
:1046200028433349891C0880E002FFF7D6FD044681
:10463000052C06D02B48006941F6EF710840294946
:1046400008612046F0BD2748C069800870472548AA
:10465000006A704700202349096801F0200109B170
:10466000012000E00020704729B11E4A1269024370
:104670001C4B1A6104E01B4A12698243194B1A61F0
:10468000704701460020012908D1164AD26902F07C
:1046900001020AB1012008E0002006E0114AD268B8
:1046A0000A400AB1012000E0002070470D49C860AF
:1046B000704704200B49C96801F0010109B10120CC
:1046C0000EE00849C96801F0040109B1022007E0C1
:1046D0000449C96801F0100109B1032000E0042079
:1046E000704700000020024023016745AB89EFCDF1
:1046F00000F8FF1F10B50446CC48844208D10121C0
:10470000042000F02DFB0021042000F029FB46E0EE
:10471000C748844208D10121082000F021FB002174
:10472000082000F01DFB3AE0C248844208D1012174
:10473000102000F015FB0021102000F011FB2EE0EE
:10474000BD48844208D10121202000F009FB00214E
:10475000202000F005FB22E0B848844208D1012166
:10476000402000F0FDFA0021402000F0F9FA16E0A8
:10477000B348844208D10121802000F0F1FA0021E1
:10478000802000F0EDFA0AE0AE48844207D1012112
:10479000801500F0E5FA0021A01500F0E1FA10BD47
:1047A00010B50121084600F0DBFA0021012000F0DD
:1047B000D7FA10BD2DE9F041024600250026002061
:1047C00000230024002791F803C00CF00F0591F896
:1047D00003C00CF0100CBCF1000F03D091F802C024
:1047E0004CEA050591F800C0BCF1000F31D0146807
:1047F00000202BE04FF0010C0CFA00F3B1F800C0E0
:104800000CEA03069E4220D183004FF00F0C0CFAF5
:1048100003F7BC4305FA03FC4CEA040491F803C017
:10482000BCF1280F06D14FF0010C0CFA00FCC2F8C5
:1048300014C00AE091F803C0BCF1480F05D14FF055
:10484000010C0CFA00FCC2F810C0401C0828D1D39F
:104850001460B1F800C0BCF1FF0F34DD54680020D3
:104860002EE000F1080C4FF0010808FA0CF3B1F843
:1048700000C00CEA03069E4221D183004FF00F0CCA
:104880000CFA03F7BC4305FA03FC4CEA040491F864
:1048900003C0BCF1280F05D100F1080C08FA0CF890
:1048A000C2F8148091F803C0BCF1480F07D100F1A1
:1048B000080C4FF0010808FA0CF8C2F81080401CF0
:1048C0000828CED35460BDE8F0814FF6FF71018017
:1048D000022181700421C170704702460020936854
:1048E0000B400BB1012000E00020704701468868B2
:1048F00080B2704702460020D3680B400BB1012004
:1049000000E0002070470146C86880B2704701612E
:104910007047416170470AB1016100E04161704731
:10492000C16070474FF480320A43826181618261C5
:1049300082698269704702460020434B18684FF62F
:104940008073184040EA021008433F4B18607047DC
:104950003E49C8617047F0B50A4600230024002193
:10496000002500F00046B6F1004F02D1364EF16945
:1049700001E0354E7168C0F3034583B200F4401680
:10498000B6F5401F08D121F070612F4E766826F0F1
:1049900070662D4F7E6012E000F48016B6F5801F21
:1049A00006D1032606FA05F4A14341F0706106E042
:1049B000460D360103FA06F6B14341F0706122B1AB
:1049C000460D360103FA06F6314300F00046B6F113
:1049D000004F02D11C4EF16101E01B4E7160F0BD31
:1049E00030B500228B071C0F0F2303FA04F2164B7D
:1049F00008338C1053F824309343134C08348D1033
:104A000044F8253023468C1053F824308C07240FAB
:104A100000FA04F423430C4C08348D1044F825307C
:104A200030BD0A49DC3108607047000000080140D1
:104A3000000C01400010014000140140001801402A
:104A4000001C014000200140000001400000204205
:104A5000DF48006840F00100DD4908600846406812
:104A6000DC490840DA49486008460068DA490840ED
:104A7000D74908600846006820F48020086008468E
:104A8000406820F4FE0048604FF41F0088607047C3
:104A9000CF49096821F48031CD4A11601146096877
:104AA00021F480211160B0F5803F03D0B0F5802F54
:104AB0000ED106E0C649096841F48031C44A11604C
:104AC00007E0C349096841F4A021C14A116000E030
:104AD00000BF00BF704710B5014600220023002030
:104AE0004A11012A02D1BA4C236806E0022A02D1F7
:104AF000B74C236A01E0B64C636A01F01F0201243F
:104B000094401C400CB1012000E0002010BD38B5DD
:104B1000002000900024002500BF3120FFF7DBFFBC
:104B200005460098401C00900098B0F5A06F01D099
:104B3000002DF2D03120FFF7CEFF08B1012400E0B4
:104B40000024204638BD01460020A14A106820F00C
:104B5000F80040EAC10010607047A0490860704743
:104B6000024600209A4B586820F47C1042EA010368
:104B70001843974B5860704798490866704701463C
:104B80000020934A506820F00300084350607047AB
:104B90008F48406800F00C007047014600208C4AA6
:104BA000506820F0F0000843506070470146002034
:104BB000874A506820F4E06008435060704701461F
:104BC0000020834A506820F4605040EAC1005060E1
:104BD000704729B17E4A527A02437D4B5A7204E0F3
:104BE0007B4A527A82437A4B5A7270477B49D8315A
:104BF0000860704701460020754A506820F4404024
:104C00000843506070470021714A20321170704A89
:104C100082F82010012802D004280AD104E00121E2
:104C20006B4A2032117005E00521694A203211706B
:104C300000E000BF00BF70476949086070476449E1
:104C4000096A0143624A1162704765494439086044
:104C5000704730B500210022002400235C4D6D68B0
:104C600005F00C0121B1042905D0082923D105E064
:104C70005C4D056022E05B4D05601FE0544D6D68A2
:104C800005F47012524D6D6805F48034022505EB71
:104C900092421CB9544D554305600BE04C4D6D6874
:104CA00005F400351DB1504D5543056002E04D4DF2
:104CB0005543056002E04B4D056000BF00BF444D09
:104CC0006D6805F0F0010909484D6B5C0568DD4031
:104CD00045603F4D6D6805F4E061090A434D6B5C2A
:104CE0004568DD4085603A4D6D6805F46051C90A3C
:104CF0003E4D6B5C4568DD40C560354D6D6805F423
:104D00004041890B3A4D6B5CC568B5FBF3F5056115
:104D100030BD29B12E4A526902432D4B5A6104E03D
:104D20002B4A526982432A4B5A61704729B1284A5B
:104D300092690243264B9A6104E0254A92698243B4
:104D4000234B9A61704729B1214AD2690243204B13
:104D5000DA6104E01E4AD26982431D4BDA61704772
:104D600029B11B4AD2680243194BDA6004E0184AA1
:104D7000D2688243164BDA60704729B1144A12692F
:104D80000243134B1A6104E0114A12698243104B2B
:104D90001A61704712494039086070470F49C8646A
:104DA00070470B49C87170470948406A40F08070ED
:104DB00007494862704701460020054A92680A4048
:104DC0000AB1012000E00020704701498872704755
:104DD000001002400000FFF8FFFFF6FE0000424214
:104DE0008004424200127A0000093D00E8010020E0
:104DF000F801002010B50446BE48844208D10121C4
:104E00008014FFF7ADFF0021A014FFF7A9FF16E003
:104E1000B948844208D101210014FFF7AEFF0021F8
:104E20002014FFF7AAFF0AE0B448844207D1012109
:104E3000C013FFF7A2FF0021E013FFF79EFF10BD94
:104E400010B50022028802F441520B884C8823439B
:104E50008C882343CC8823430C8923434C892343E8
:104E60008C892343CC8923431A430280838B4FF2DE
:104E7000FF74234083830B8A038210BD2DE9F04F1A
:104E800085B005460C464FF0000902274FF0000898
:104E90004FF0010B0026B246A88B4FF240010840AC
:104EA000A88302202884B5F81C90A068022801D1AC
:104EB00000BF38E0A08810B94FF0010B01E04FF0BF
:104EC000020B8D48854200D100E000BF6846FFF725
:104ED000C0FEDDF800A0E088B0F5007F0AD14FEAFF
:104EE0001A2000EB80004000A168B0FBF1F0401DEB
:104EF00086B20BE04FEA4B10BAFBF0F000EB8000FB
:104F00004000A168B0FBF1F0401D86B20A20B6FB5C
:104F1000F0F606F00108A6EB0800C0F34F074FF6C5
:104F2000FF7000EA0828022F01DBFF2F02DD0227B5
:104F30004FF00008E08840EA080038432884A08841
:104F4000A1890843618808432188084340F4006030
:104F500040EA0909A5F81C9005B0BDE8F08F0021D2
:104F6000018041808180C180018141818181C18135
:104F70000721018270470021018041808180C1802A
:104F80000221816000218181704721B1028842F0B5
:104F90004002028004E002884FF6BF731A4002808C
:104FA000704721B1828B42F48062828304E0828B5D
:104FB0004FF6FF331A408283704730B50024002338
:104FC0000C110125A540ABB21AB185881D4385801F
:104FD00002E085889D43858030BD1AB183880B43EC
:104FE000838002E083888B43838070478181704790
:104FF0000146888970474FF6FF62914204D00288CB
:1050000042F48072028004E002884FF6FF631A4087
:105010000280704721B1828842F00402828004E05D
:1050200082884FF6FB731A408280704702884FF2E5
:10503000FF731A40028002880A4302807047018889
:1050400041F480510180704721B1028842F400523E
:10505000028004E002884DF6FF731A400280704718
:1050600002460020012901D0108B00E0908A704791
:105070000146088A7047B1F5804F04D1028842F496
:105080008042028004E002884BF6FF731A400280DF
:1050900070470246002013890B400BB1012000E04D
:1050A00000207047CA4302817047F0B502460020D5
:1050B00000240023002501F00F070126BE40B4B2F2
:1050C0000B1101269E40B3B2968806EA03051689A5
:1050D000264016B10DB1012000E00020F0BD10B552
:1050E000002201F00F040123A3409AB2D3430381AD
:1050F00010BD00000030014000380040003C00407E
:1051000010B50446FE48844208D10121C014FFF7BF
:1051100027FE0021E014FFF723FEC4E0B4F1804F26
:1051200008D101210846FFF728FE00210120FFF7E2
:1051300024FEB8E0F348844208D101210220FFF7A1
:105140001CFE00210220FFF718FEACE0EE4884426E
:1051500008D101210420FFF710FE00210420FFF7F1
:105160000CFEA0E0E948844208D101210820FFF7A5
:1051700004FE00210820FFF700FE94E0E44884428A
:1051800008D101211020FFF7F8FD00211020FFF7C2
:10519000F4FD88E0DF48844208D101212020FFF798
:1051A000ECFD00212020FFF7E8FD7CE0DA48844296
:1051B00008D101214014FFF7D3FD00216014FFF74F
:1051C000CFFD70E0D548844209D10121C804FFF722
:1051D000C7FD00214FF40020FFF7C2FD63E0D04877
:1051E000844209D101210805FFF7BAFD00214FF4DF
:1051F0008010FFF7B5FD56E0CA48844209D101216D
:105200004805FFF7ADFD00214FF40010FFF7A8FDA2
:1052100049E0C548844208D101214020FFF7ADFD97
:1052200000214020FFF7A9FD3DE0C048844208D19D
:1052300001218020FFF7A1FD00218020FFF79DFDC7
:1052400031E0BB48844208D101218015FFF795FD6C
:105250000021A015FFF791FD25E0B648844209D151
:1052600001210804FFF77CFD00214FF48030FFF797
:1052700077FD18E0B048844209D101214804FFF7C6
:105280006FFD00214FF40030FFF76AFD0BE0AB48E3
:10529000844208D101218804FFF762FD00214FF408
:1052A0008020FFF75DFD10BD00220288944B9842DC
:1052B0000ED0994B98420BD0B0F1804F08D0914B53
:1052C000984205D0904B984202D0904B984204D11E
:1052D0004FF68F731A404B881A438D4B984207D074
:1052E0008C4B984204D04FF6FF431A40CB881A43A8
:1052F00002808B8883850B880385814B98420BD075
:10530000854B984208D08B4B984205D08A4B9842E7
:1053100002D08A4B984201D10B7A03860123838203
:10532000704770B5002400220023058C4FF6FE76EE
:1053300035400584028C8388048B4FF68F752C4092
:10534000B51E2C400D882C43751E2A400D892A431A
:105350004D882A436A4DA8420BD06F4DA84208D011
:10536000744DA84205D0744DA84202D0734DA84296
:1053700013D14FF6F7752A404D892A434FF6FB7536
:105380002A408D882A434FF6FF652B404FF6FF5584
:105390002B408D892B43CD892B4383800483CD887B
:1053A0008586028470BD70B5002400220023058C20
:1053B0004FF6EF7635400584028C8388048B48F6DF
:1053C000FF752C404FF6FF452C400D884FF6FF76B9
:1053D00006EA05252C434FF6DF752A400D8906EABB
:1053E00005152A434D8806EA05152A43444DA8426F
:1053F00002D0494DA8421DD14FF67F752A404D89F4
:105400004FF6FF7606EA05152A434FF6BF752A4088
:105410008D8806EA05152A434FF6FF352B404FF2DB
:10542000FF752B408D8906EA85052B43CD8906EA59
:1054300085052B4383800483CD880587028470BD56
:1054400070B5002400220023058C4FF6FF6635401E
:105450000584028C8388848B4FF68F752C404FF621
:10546000FC752C400D882C434FF6FF552A400D89C2
:105470004FF6FF7606EA05252A434D8806EA0525FC
:105480002A431F4DA84202D0234DA8421DD14FF2FE
:10549000FF752A404D894FF6FF7606EA05252A4317
:1054A0004FF6FF352A408D8806EA05252A434EF639
:1054B000FF752B404DF6FF752B408D8906EA0515CB
:1054C0002B43CD8906EA05152B4383808483CD8841
:1054D0008587028470BD70B5002200230024058CEE
:1054E0004EF6FF7635400584038C8488828B48F61F
:1054F000FF752A404FF6FF452A400D8820E0000046
:10550000002C01400004004000080040000C004056
:10551000001000400014004000340140004C0140E5
:10552000005001400054014000180040001C0040A1
:10553000002000400040014000440140004801407C
:105540004FF6FF7606EA05252A434DF6FF752B40F8
:105550000D8906EA05352B434D8806EA05352B43B0
:10556000FA4DA84202D0FA4DA84208D14BF6FF7579
:105570002C408D894FF6FF7606EA85152C438480F2
:105580008283CD88A0F84050038470BD828B4FF297
:10559000FF331A408283828B4FF6FF7303EA0123A5
:1055A0001A4382837047F0B50C461546002200214D
:1055B0000026078C4EF6FF7C07EA0C070784828BD7
:1055C000018C4FF6FF7707EA043640F6FF473A4072
:1055D0004FF6FF7707EA05273A434FF6FF7707EACA
:1055E00003373A43D94FB8420ED0D94FB8420BD007
:1055F000B0F1804F08D0D74FB84205D0D64FB8424F
:1056000002D0D64FB84206D14DF6FF77394046F466
:105610008057394305E047F6FF57394044F4805737
:10562000394382830184F0BD828B4FF6F3731A40B5
:105630008283828B0A4382837047F0B50C461546FD
:10564000002200210026078C4FF6FF6C07EA0C07AA
:105650000784828B018C4FF6FF7707EA04264FF60A
:105660000C773A404FF6FF7707EA03172F433A4388
:10567000B64FB8420ED0B64FB8420BD0B0F1804F03
:1056800008D0B44FB84205D0B34FB84202D0B34FA0
:10569000B84206D14FF6FF57394046F48077394378
:1056A00005E04FF2FF57394044F480773943828355
:1056B0000184F0BD028B4FF2FF331A400283028B4C
:1056C0004FF6FF7303EA01231A4302837047F0B5D4
:1056D0000C461546002200210026078C4FF6EF7C71
:1056E00007EA0C070784028B018C4FF6FF7707EA65
:1056F000041640F6FF473A404FF6FF7707EA0337B4
:105700003A434FF6FF7707EA05273A438F4FB842EF
:105710000ED08F4FB8420BD0B0F1804F08D08D4FD4
:10572000B84205D08C4FB84202D08C4FB84206D157
:105730004FF6DF77394046F01007394305E04FF662
:105740005F77394044F01007394302830184F0BD8C
:10575000028B4FF6F3731A400283028B0A430283D3
:105760007047F0B50C46154600220021068C4FF616
:10577000FE773E400684028B018C4FF60C76324059
:105780007E1C06EA03162E433243704EB0420ED002
:105790006F4EB0420BD0B0F1804F08D06D4EB0428A
:1057A00005D06D4EB04202D06C4EB04206D14FF6DD
:1057B000FD76314044F00106314305E04FF6F576C1
:1057C000314044F00106314302830184F0BD70B5DD
:1057D00005460C465D4885420ED05D4885420BD09B
:1057E000B5F1804F08D05B48854205D05A488542C4
:1057F00002D05A48854200D100E000BF208850B94D
:105800002389A28861882846FFF7ABFFE1882846F4
:10581000FFF79EFF25E0208804280AD12389A2886B
:1058200061882846FFF753FFE1882846FFF742FFCB
:1058300017E0208808280AD12389A2886188284691
:10584000FFF7FBFEE1882846FFF7EEFE09E023891B
:10585000A28861882846FFF7A6FEE1882846FFF760
:1058600095FE70BD2DE9F04105460C460026012746
:10587000608808B9022600E00026A088012801D12E
:10588000022700E001272088A0B92389A288618827
:105890002846FFF766FFE1882846FFF759FF23896E
:1058A0003A4631462846FFF712FFE1882846FFF7BF
:1058B00001FF13E02389A28861882846FFF707FFCC
:1058C000E1882846FFF7F6FE23893A463146284606
:1058D000FFF747FFE1882846FFF73AFFBDE8F08170
:1058E0000A884B881A438B881A43CB881A430B8942
:1058F0001A434B891A438B891A43A0F844207047F6
:105900004FF6FF71818000210180C18041800172CA
:1059100070470021018041808180C18001814181E7
:105920008181C181704700210180418001218180F6
:105930000021C18001817047002101804180818068
:10594000C18001814181818170470000002C0140AC
:10595000003401400004004000080040000C0040FA
:1059600021B1028842F00102028004E002884FF671
:10597000FE731A400280704731B1B0F8442042F4FF
:105980000042A0F8442005E0B0F84420C2F30E0223
:10599000A0F8442070471AB183890B43838102E049
:1059A00083898B43838170478182704741EA020378
:1059B000A0F8483070471AB183890B43838102E015
:1059C00083898B438381704701894FF6F8721140B8
:1059D000018170470A46002101894FF68F731940F3
:1059E00011430181704730B504460D4629462046D3
:1059F000FFF7F0FF208940F00700208130BD2DE93E
:105A0000F04104460D4616461F46602D06D13B4622
:105A1000012231462046FFF75AFE05E03B460122AF
:105A200031462046FFF79DFE29462046FFF7D2FF6C
:105A3000208940F007002081BDE8F08130B50C4698
:105A400000210189C9B24FF6FF7505EA0325154308
:105A500025432943018130BD2DE9F04105460E461D
:105A600017469846002443463A4631462846FFF7F3
:105A7000E5FF2C894FF6F870044044F007044FF618
:105A80008F70044044F070042C81BDE8F081F0B5C3
:105A900004460D4616461F463B46324629462046DA
:105AA000FFF7CCFF208940F480402081F0BD0185C4
:105AB000828270470A46002101884FF68F73194091
:105AC000114301807047F0B50C4615461E46002173
:105AD000002200230189028B038C4FF6F8773940AE
