:03000000020026D5
:0C002600787FE4F6D8FD75812002006DA3
:0C012A0012018012018A12019402019E51
:0C01360012018512018F1201990201A331
:0C01420012018A12019E1201A80201B2F3
:0C014E001201801201941201AD0201B7F1
:0C015A001201A81201AD1201B20201B79F
:0A001900D2AF1200031200E580FBD5
:05018000D290C29122A3
:05018500C290D291229E
:05018A00D292C2932295
:05018F00C292D2932290
:05019400C294D2952287
:05019900D294C2952282
:05019E00D296C2972279
:0501A300C296D2972274
:0501A800D290D291226B
:0501AD00D292D2932262
:0501B200D294D2952259
:0501B700D296D2972250
:07017800C180C10101080074
:1000B200C2A5A2A49201A201300001B350F4120120
:1000C20066A20130A401B340E93000110508AF086F
:1000D200120108E508D394044003E4F508A2019252
:0300E2000080CFCC
:080166007FB47E49DEFEDFFCE0
:01016E00226E
:10010800EF24FE60101460101460101460102404B2
:10011800700F02012A02013602014202014E120149
:020128005A2259
:1000030075985053890F438920758BFD758DFDC2FB
:06001300ABD28ED2AC223C
:0300230002016F68
:09016F00309805C2988599093207
:1000E500E50924CE6010146010146010146010240B
:1000F50004700F02012A02013602014202014E126A
:03010500015A227A
:10003200020019E493A3F8E493A34003F68001F2CB
:1000420008DFF48029E493A3F85407240CC8C333CF
:10005200C4540F4420C8834004F456800146F6DF9E
:10006200E4800B0102040810204080900178E47EB5
:10007200019360BCA3FF543F30E509541FFEE49393
:10008200A360010ECF54C025E060A840B8E493A35A
:10009200FAE493A3F8E493A3C8C582C8CAC583CA85
:1000A200F0A3C8C582C8CAC583CADFE9DEE780BE3D
:01017F00007F
:00000001FF
