:020000040800F2
:1000000080400020453800087D3300087F33000819
:1000100083330008873300088B330008000000009A
:100020000000000000000000000000009133000804
:100030008F33000800000000933300089533000858
:100040005F3800085F3800085F3800085F38000834
:100050005F3800085F3800085F3800085F38000824
:100060005F3800085F3800085F3800085F38000814
:100070005F3800085F3800085F3800085F38000804
:100080005F3800085F3800085F3800085F380008F4
:100090005F3800085F3800085F3800085F380008E4
:1000A0005F3800085F3800085F3800085F380008D4
:1000B0005F3800085F3800085F3800085F380008C4
:1000C0005F3800085F3800085F3800085F380008B4
:1000D0005F3800085F3800085F3800085F380008A4
:1000E000D93600085F3800085F3800085F3800081C
:1000F0005F3800085F3800085F3800085F38000884
:100100005F3800085F3800085F3800085F38000873
:100110005F3800085F380008A13400085F38000825
:100120005F3800085F3800085F3800085F38000853
:1001300000F002F800F05AF80AA090E8000C82449F
:100140008344AAF10107DA4501D100F04FF8AFF27C
:10015000090EBAE80F0013F0010F18BFFB1A43F0A5
:1001600001031847C4AC0000E4AC00000A444FF09F
:10017000000C10F8013B13F0070408BF10F8014B06
:100180001D1108BF10F8015B641E05D010F8016B4B
:10019000641E01F8016BF9D113F0080F1EBF10F8AF
:1001A000014BAD1C0C1B09D16D1E58BF01F801CBD2
:1001B000FAD505E014F8016B01F8016B6D1EF9D555
:1001C0009142D6D37047000000230024002500266A
:1001D000103A28BF78C1FBD8520728BF30C148BFAA
:1001E0000B6070471FB51FBD10B510BD09F0E0F9D9
:1001F0001146FFF7F7FF00F0A9F809F0FEF903B484
:10020000FFF7F2FF03BC09F001FA00000021F94AF0
:100210001170F94A1170F94A11705170012010E003
:100220000821F74A1154042102EB00121170022236
:10023000F349F0310A540121F14A02EB0012D17363
:10024000401C0F28ECDB1E21ED4A11700C211174AB
:10025000062182F8F0100921D1730322E84981F8C0
:10026000FF20704770B50024002500BF00E0641C2B
:10027000E4488442FBDB65E0E3494868E3490AF06F
:100280005BFB21D20020E249086000BFE048006823
:100290000228FBDBDC494868DC490AF04DFB13D23D
:1002A0000020DC4908600520DB49087000BFDA48FF
:1002B00000780528FBD0FFF7A9FF0120CD49087081
:1002C000D549087001253EE0CF498868CF490AF03A
:1002D00033FB18D200BF4FF48041D04804F0F1FA4C
:1002E0000028F8D00520CC49087000BFCA48007823
:1002F0000528FBD006F026FA0220C7490870002026
:10030000C44908601FE04FF48041C44804F0D9FAA2
:10031000C0B900BF4FF48041C04804F0D2FA0028B1
:10032000F8D00520BC49087000BFBB4800780528FC
:10033000FBD006F007FA0220B74908700020B54943
:10034000086000E098E700BF284670BD002700263F
:1003500000F08AF902F0AEFD02F00CFE05F0D2FDCD
:10036000002005F03CFF00F0EAFA00F067FA00F028
:10037000B7F9AB4800684FF47A72B0FBF2F1B1F113
:10038000807F00D322E021F07F40401E4FF0E0222A
:10039000506150170F2200280ADA13074FEA13683A
:1003A000A04B00F00F0CACF1040C03F80C8005E03E
:1003B00013074FEA136C9C4B03F800C000BF0020EA
:1003C0004FF0E02290610720106100BF4BE100F088
:1003D00010FBFFF747FF90480078012827D1022043
:1003E000924908704CF2503048600020886002202A
:1003F0008F4908704CF2503048600020886001201E
:100400008C4908700020824908600EE08048056829
:10041000502D04DA854805618548056105E05020C6
:10042000824908618249086100E0EFE700BF19E1F5
:100430007948007801284CD16E48007820B1012815
:100440000AD004280CD103E07B4800F055FB07E0FC
:100450007A4800F051FB03E0794800F04DFB00BF03
:1004600000BF2EB94FF400416C4804F044FA04E098
:100470004FF40041694804F040FA701C00EBD07161
:100480004910A0EB41066F48007801F0D2F96D48A1
:1004900000780A28CBD102205F4908700120654905
:1004A000087000206849086000BF67480068962807
:1004B000FBDB05205F49087005F0D4FF0121002017
:1004C00000F07CFD002400E0641C4E488442AEDA5B
:1004D000FAE751480078022864D102F000FC5B483A
:1004E0000078012803D103204B490870BAE0444B3F
:1004F000574A584801785848007806F073FB54482A
:100500005649097800EB011055490978475C3C4B86
:100510004F4A504801785048007806F0ADF94C48F1
:100520004E49097800EB01104D490978405CB8420A
:100530000AD1334B464A474801784748007806F0CD
:1005400051FB01204149087008F015FF3D49087032
:100550000846007801F06DF93A4800780A281DD164
:1005600002202D49087001203249087000202849D6
:10057000086000BF26480068B428FBDB05202D4931
:10058000087005F06FFF0121002000F017FD002426
:1005900000E0641C1B48844264DAFAE701201E492B
:1005A00008705FE01C48007803285BD1144B284A90
:1005B000284801782848007806F014FB00222548D6
:1005C00001782548007808F027FC01F0FBF80120AD
:1005D0001849087000200E49086000BF0C480068E8
:1005E0009628FBDB0020114908701149087000BFF4
:1005F000FEE7000029000020370000203500002021
:10060000F80A0020C0C62D006C0100200000E04068
:100610002C0000207C0100202B000020000801405D
:10062000D401002018ED00E000E400E014000020F8
:100630000000002028000020000090410000204021
:1006400000006041340000204000002047000020EE
:10065000F80B00203D0000203C0000203E00002060
:100660003F000020E4E6B2E610B504F0E5F9002012
:1006700004F002FA012004F064FA102003F064FD93
:10068000022003F04DFD002004F07BFA002004F06E
:100690008AFA4FF4806004F07DFA4FF4804004F051
:1006A0009DFA4FF46011002004F04EFA012004F08E
:1006B00057FA00BF392004F002FA0028FAD00220CD
:1006C00004F051FA00BF04F057FA0828FBD103F0F8
:1006D00061F810BD10B54FF4407003F0D3F810BDB1
:1006E00000B589B00121022004F021FB0121052081
:1006F00004F010FB02A804F0DCF8C020ADF80800FC
:1007000004208DF80B0002A9D54804F047F81D20FD
:100710008DF804000F208DF805008DF806000120EB
:100720008DF8070001A803F0B2F8CE4804F0DCFC15
:1007300006A805F0D9F80020ADF8180042F21070B4
:10074000ADF81C000020ADF81E00ADF81A0006A997
:10075000C44804F09DFD00231A460321C14805F05A
:10076000A6F903A805F0D3F80520ADF8140003A9F5
:10077000BC4805F020F80121BA4805F0ABFB002089
:10078000B849243108800121B64805F0DDF801217F
:10079000042004F0CCFA0121092004F0BBFA02A8DD
:1007A00004F087F8C020ADF8080004208DF80B0095
:1007B00002A9AD4803F0F2FF1E208DF804000F20BF
:1007C0008DF805008DF8060001208DF8070001A8BE
:1007D00003F05DF8A54804F087FC06A805F084F84E
:1007E0000020ADF8180042F21070ADF81C00002097
:1007F000ADF81E00ADF81A0006A99C4804F048FDAB
:1008000000231A460321994805F051F903A805F081
:100810007EF80520ADF8140003A9944804F0CBFF3E
:100820000121924805F056FB0020904924310880B0
:1008300001218E4805F088F809B000BD00B589B0E7
:100840000121052004F066FA0121084604F06FFA40
:100850000F20ADF8040018208DF8070003208DF854
:10086000060001A97E4803F099FF4FF47A70ADF8B5
:100870001C000420ADF818000020ADF81E00ADF8F3
:100880001A0006A94FF0804004F002FD6020ADF888
:1008900008000120ADF80A000020ADF80E00ADF808
:1008A000100002A94FF0804004F02FFD0821C80677
:1008B00005F07AF90120ADF80A000020ADF80E002D
:1008C000ADF8100002A94FF0804004F060FD08214F
:1008D000C80605F072F90121880705F035F90121F4
:1008E000880705F031F80120ADF80A000020ADF8C6
:1008F0000E00ADF8100002A94FF0804004F094FD06
:100900000821C80605F066F90120ADF80A000020AC
:10091000ADF80E00ADF8100002A94FF0804004F0D1
:10092000CEFD0821C80605F05EF90121880705F013
:100930000BF90121880705F007F809B000BD08B5DB
:1009400001214B4803F0FBFF0121042004F0E2F9F0
:100950004FF40040ADF8000048208DF8030003205C
:100960008DF8020069463E4803F018FF012104207B
:1009700004F0D0F94FF48040ADF8000048208DF825
:10098000030003208DF802006946354803F006FF96
:100990000121042004F0BEF94FF40040ADF800003E
:1009A00010208DF8030003208DF8020069462C48C2
:1009B00003F0F4FE00224FF40041294803F09FFFAA
:1009C0000121102004F0A6F94FF40060ADF80000FA
:1009D00010208DF8030003208DF802006946254899
:1009E00003F0DCFE00224FF40061224803F087FF91
:1009F00008BD10B500202049086000BF1E480068EF
:100A0000B0F5FA7FFADB00241C48408940F6C41197
:100A1000884224DA00201849086000BF14E0FA2C4C
:100A200005DA4FF400410E4803F065FF04E04FF48F
:100A300000410B4803F061FF0F4800684FF4FA7162
:100A400090FBF1F201FB12040B48006841F288317F
:100A50008842E4DB4FF40041014803F04EFF10BD33
:100A60000008014000040040000C01400008004064
:100A700000043000001001402C000020F83200205B
:100A80000021F74A1278F74B03EB0212F44B5B7824
:100A9000D05CF54A12784AB100F0020232B9002265
:100AA000F14B1A70F14B1A70F14B1A707047F14804
:100AB000007830B102280AD004280ED0062818D1B8
:100AC00011E0E7484078401CE549487012E0E448EE
:100AD0000078401CE24908700CE0E1484078401E74
:100AE000DF49487006E0DE480078401EDC490870A7
:100AF00000E000BF00BF70472DE9F84F8246002696
:100B0000B146B34600200090DB49504609F048FF4B
:100B1000074609F0A9FE46F2C0010C1A0120D74988
:100B200008700220D649087049F6404048600846DF
:100B300084600220D349087049F640404860084666
:100B40008460D1480578EBE0CE488068CC4989685C
:100B50004418B4F52C5F48DD49F28060844244DAE1
:100B6000B9F1000F41D105F00100E8B1C74948686B
:100B70004FF0834109F0E0FF16D20020C44908601D
:100B800000BFC34800680028FBD0C04948684FF048
:100B9000834109F0D1FF05D243F21030B849886093
:100BA000B84988604FF0010905F00200E8B1B74983
:100BB00088684FF0834109F0BFFF16D20020B44986
:100BC000086000BFB24800680028FBD0AF498868C1
:100BD0004FF0834109F0B0FF05D243F21030A8492D
:100BE0008860A84988604FF00109B4F5575F03DABF
:100BF0000020A849087093E048F6C030844203DA28
:100C00000120A44908708BE0204609F026F9074628
:100C10000022A14B09F04CF903D202209D49087033
:100C20007EE0204609F019F9074600229B4B09F0A7
:100C30003FF903D203209749087071E0B4F52C4FB7
:100C400003DA0420934908706AE04CF28010844271
:100C500065DA05208F490870BBF1000F07D1FFF757
:100C600026FF07F02DFFFFF70BFF4FF0010B009859
:100C7000002855D1012000908948007880B9784833
:100C800000788849097888420AD1754840788649B1
:100C90000978884204D1012081490870834908708D
:100CA0007F48007801282DD16E4B814A7048017829
:100CB0006E48007805F096FF7D487A49097800EB88
:100CC000011079490978465C664B794A6848017891
:100CD0006648007805F0D0FD75487249097800EB48
:100CE000011071490978405CB04213D15D4B704AE4
:100CF0005F4801785D48007805F074FF01206D4978
:100D0000087007E0574B6A4A6748017865480078E1
:100D100005F0B2FD08F02FFB6749087000E000E025
:100D200012E700BFBDE8F88F2DE9F04103205349D9
:100D300008700220524908706048486000208860AE
:100D40000220504908705D484860002088604FF4D8
:100D500000415B4803F0CFFD00204D490860594930
:100D6000086000240025804609E049480468C4F171
:100D700050004349086104F15000424908612B2C9E
:100D8000F3DB25203E4908617B203E4908613C4851
:100D900005690846D0F810800AE04A48006809F062
:100DA000D3FB06460022484B09F082F800D200E04F
:100DB000F3E700BF0020364908604249086000247C
:100DC00008E028192E490861A8EB04002D490861A4
:100DD0002F4804682B2CF4DB50202949086129494D
:100DE00008614FF40041364803F087FD2149097836
:100DF000881DC11700EB5171C910A0EBC1011D4A3C
:100E00001170002020490870042022490870BDE8B4
:100E1000F0812DE9F04781460D462946484609F004
:100E2000BFFB8046144909F0BBFD074609F01CFDD5
:100E300006460820114908701148466000201049F4
:100E400088601048466000200E498860484609F0D6
:100E50007BFB07460022134609F064F96AD267E07B
:100E600035000020F80A00204B0000203C00002044
:100E70003D000020370000200000AC442800002086
:100E800014000020000000202A0000206C01002037
:100E90002C000020290000200024E24000D4E4407F
:100EA000480000203E0000203F00002049000020B4
:100EB000F80B0020470000203400002090D00300F1
:100EC000000801407C01002000E051C0FE4B5B683F
:100ED000FE4F7F68DA1902EBD2735F10FA4B9B6802
:100EE000DFF8E8C3DCF808C003EB0C0101EBD173B9
:100EF0005810002801DB034600E04342FB1A8A2B0E
:100F000010DA0020F24908600846046807E0A4F1FE
:100F10001E00EE490861EC490861ED4804681E2C8A
:100F2000F5DD06E06FF01D00E8490861E64908615B
:100F3000CCE73EE0284609F007FB074600221346AF
:100F400009F0F0F835D232E0DF4B5B68DF4F7F68A5
:100F5000DA1902EBD2735F10DB4B9B68DFF86CC3CE
:100F6000DCF808C003EB0C0101EBD173581000282A
:100F700001DB034600E04342FB1A8A2B12DA002011
:100F8000D34908600846046809E0C4F10A00CF4963
:100F90000861C4F10A00CC490861CD4804680A2CF4
:100FA000F3DD05E00A20C9490861C7490861CBE7BC
:100FB00000BF0520C7490870BDE8F0872DE9F84F4C
:100FC00081460520C34908700220C049087049F6CF
:100FD00040404860002088600220BB49087049F604
:100FE000404048600020886083464FF40041BA4882
:100FF00003F081FCB9490978B94A02EB0111B74AFB
:101000005278895CB74A107800EBD07253100122F5
:101010009A401140002936D02AE0B34AD1681068BE
:1010200009F0C6FD05464FF0804109F0B9FC834642
:10103000AE49584609F080FD01D2DFF8B0B2AC49A4
:10104000584609F079FC01D2DFF8A4B25946A94804
:1010500009F0AEFD054609F007FC9C4908615946B8
:10106000A44809F09DFA054609F0FEFB964908617F
:101070009D4AD168106809F093FA05464FF0834104
:1010800009F05AFDC9D300209149086012E0904848
:101090000468502C08DAC4F150008C490861C4F18E
:1010A00050008949086105E00020884908618649A7
:1010B000086100E0EBE700BF00208549086000BF41
:1010C000834800680028FBDB874AD168106809F074
:1010D00067FA009009F038FA074600224FF0804383
:1010E00008F034FD054608F043FC824600208249A2
:1010F00008607749086016E075480468282C05DA0E
:10110000724804616042704908610CE028206F4910
:10111000086140426C49086178497748006809F0E5
:101120000BFD00D200E0E7E700BF6E490978081D1B
:10113000C11700EB5171C910A0EBC101694A1170D0
:1011400000206349086012E061480468282C08DA2E
:10115000C4F128005D490861A4F128005A490861DA
:1011600005E00020594908615749086100E0EBE7B4
:1011700000BFB9F1010F1CD100205549086000BF24
:10118000534800680028FBDB0020514908600EE04E
:101190004F480468502C04DA4C4804614A48046102
:1011A00005E05020494908614749086100E0EFE740
:1011B0000FE05349504609F0F3F905460021FFF7C7
:1011C00028FE00204249086000BF4148006800280E
:1011D000FBDB4FF40041404803F08FFBBDE8F88F84
:1011E0002DE9F04104203B4908700220374908707E
:1011F0004448486000208860022033490870414814
:101200004860002088604FF40041334803F073FBCE
:1012100000202F49086038490860002400258046D6
:1012200009E02B48046804F1500028490861C4F122
:101230005000254908612B2CF3DB7B2023490861F2
:10124000252021490861214805690846D0F8108009
:101250000AE02948006809F077F9064600222A4B7F
:1012600008F060FF00D200E0F3E700BF002018495B
:10127000086021490860002408E0281B1349086120
:1012800008EB040010490861114804682B2CF4DBBA
:1012900050200E4908610C4908614FF400410E4886
:1012A00003F02BFB0F490978881CC11700EB517123
:1012B000C910A0EBC1010B4A11700020134908703E
:1012C00004201349087025E00000002014000020CD
:1012D0002C000020280000200008014035000020DC
:1012E000F80A0020370000206C0100200000A04018
:1012F0000000A0C00000A0427C01002000002543A7
:101300000000404090D0030000E051402A0000203F
:1013100029000020BDE8F0812DE9FF4704460E4674
:1013200091469A460020307004EB4400FE4901EBE0
:101330008000007A60B104EB4400FC4901EBC0007E
:101340000069400000F50150484501DDBDE8FF8718
:10135000F7480078A0B90120F54908700020F54948
:10136000086004EB4400F04951F82000B0F5967F86
:1013700003D10120F049087002E00020EE49087016
:10138000EE48007800286BD1ED48006904EB440179
:10139000E54A52F8211088421EDAE648006809F052
:1013A0009FFA8046514609F0FBFA074609F05CFABD
:1013B000054604EB4400DC4901EB8000017A481942
:1013C000DF49086104EB4400D74901EB8000017A52
:1013D0004819DC4908610DE004EB4400D24951F89A
:1013E0002000D749086104EB4400CF4951F82000A0
:1013F000D4490861D048007878B9D148006904EB35
:101400004401C94A52F82110884206DB0120CB4929
:1014100008700020C749086022E0C748007801280A
:101420001ED1484608F019FDCDE9020104EB440144
:10143000BD4A02EB8101486808F00FFD0746002213
:10144000C14B08F071FDCDE90001DDE9022308F090
:101450002FFD05D80120B94908700020B549086062
:10146000B648007801283DD1B548006904EB440135
:10147000AD4A02EB8101497A88421CDDAD48006823
:1014800009F02EFA8046514609F08AFA074609F01B
:10149000EBF9054604EB4400A34951F82000401B3A
:1014A000A749086104EB44009F4951F82000401B04
:1014B000A449086116E004EB44009B4901EB80005D
:1014C000407A9F49086104EB4400974901EB800092
:1014D000407A9C4908610020954908709749087036
:1014E0000120307000BF31E72DE9F04F89B004468C
:1014F0004FF00009CA46002500200790069005908D
:1015000004900390029001900120904908700220FD
:101510008B49087004EB4400844901EBC000C068AB
:1015200044F6206108448649486004EB44007F4942
:1015300001EBC0000069824988600220814908707F
:1015400004EB4400794901EBC000C06844F6206117
:1015500008447C49486004EB4400744901EBC00036
:1015600000697849886004EB4400704901EBC000D1
:10157000C0684FEA400B04EB44016C4A52F831005A
:101580004FF0804109F00CFA074609F06DF9089018
:1015900004EB4400654901EBC000006944F2E051EE
:1015A000884205DD012007F076FB6949087004E0F8
:1015B000002007F070FB66490870FEE05D4505DA23
:1015C0005F4880685F498968451805E000205849F0
:1015D00008705A490870F1E09DF8040030B94FF0E6
:1015E0007C532A4601A92046FFF796FE4CF2801054
:1015F00095FBF0F100FB1150B0F5814F0EDA0020A1
:1016000054490870079800286AD1012007900020EB
:101610000690059004900290039061E04CF28010D7
:1016200095FBF0F100FB1150B0F5014F22DA0120DB
:10163000484908700698002852D10120069007F00A
:101640002AFB81464248007800EA090068B1404818
:10165000007800EA09003E490870B9F1030F01D192
:1016600003200870012004903AE0002038490870F7
:10167000049035E04CF2801095FBF0F100FB115026
:10168000009008F0EAFB07460022334B08F010FCFC
:101690000DD202202F490870049808BB0120049045
:1016A00007F0F9FA81462A4880F8009018E04CF2D9
:1016B000801095FBF0F100FB11504CF28011884234
:1016C0000EDA032023490870059848B901200590D7
:1016D000002007900AF1010000F0FF0A07F018F956
:1016E0004CF2801095FBF0F100FB1150B0F52C5F2F
:1016F00063DD4CF2801095FBF0F100FB115049F2D4
:101700008061884259DA029820B90120029007F0DE
:1017100067FB06460398E8BB012E01D0022E4CD190
:101720000E4951F826001BE0F8240020F80C002098
:1017300045000020400000204A0000204600002014
:1017400014000020000000200000F83F28000020C6
:101750002A000020290000200084E7406C010020BE
:101760004FF0834109F0E8F927D20020FB490860D7
:1017700000BFFA4800680028FBD0F94951F826005C
:101780004FF0834109F0D8F917D20120039043F2BA
:10179000103000E011E046F2C00101FB0A00F149FF
:1017A000886043F2103046F2C00101FB0A00EE49A6
:1017B0008860EC48806889684518FFE600BF09B07A
:1017C000BDE8F08F10B50220E8490870002425E03C
:1017D0002046FFF789FE04EB4400E54901EBC00019
:1017E0008068022802D1FFF7FBFC16E004EB4400FE
:1017F000DF4901EBC0008068042804D101210846BC
:10180000FFF7DCFB09E004EB4400D94901EBC00021
:101810008068062801D1FFF787FA641CD548006864
:101820008442D5DB0120D14908700420D2490870D8
:1018300010BD10B504461CB90020CF49087012E055
:10184000022C02D1FFF7CCFC0DE0062C02D1FFF7F1
:101850006BFA08E0082C02D1FFF7B4FF03E00A2C72
:1018600001D1FFF7AFFF10BDF0B50B4600240025F6
:1018700030B1022818D0042824D0062830D105E041
:10188000BE4E317801EBD17670102AE0BB4F3F7825
:10189000B91DCF1701EB5777FF10A1EBC70606EB79
:1018A000D677C7F347001CE0B44F3F78B91CCF1779
:1018B00001EB5777FF10A1EBC70606EBD677C7F30E
:1018C00047000EE0AD4F3F78391DCF1701EB57773A
:1018D000FF10A1EBC70606EBD677C7F3470000E081
:1018E00000BF00BF30B101280AD002280FD0032862
:1018F0001AD112E0A2490C784978491CCDB214E003
:101900009F490978491CCCB29D494D780DE09C490E
:101910000C784978491ECDB207E099490978491EEB
:10192000CCB297494D7800E000BF00BF954901EB6C
:101930000411495D1970944901EB0411495D11705E
:10194000F0BD2DE9F04F8FB00446002700200E9027
:101950000D900C9082460B9083460A9009908B481C
:101960000890012007900020069001208849087007
:1019700002207C49087004EB44007D4901EBC00063
:10198000C06841F6583108447649486004EB440089
:10199000774901EBC00000697249886002207249F2
:1019A000087004EB4400724901EBC000C06841F6C6
:1019B000583108446C49486004EB44006C4901EB21
:1019C000C000006968498860002007F064F9714927
:1019D000087004EB4400664901EBC000C0684FEAA0
:1019E000400904EB4401624A52F831004FF0804153
:1019F00008F0D6FF059008F037FF80465F49087869
:101A000000EBD0714910A0EB410100297DD094E09A
:101A1000404608F022FACDE904010E9808F01DFABC
:101A20004FF033325C4BCDE9000107F0D3FFCDE935
:101A30000201DDE9042308F075FB08D207980128AC
:101A400005D10EAA08A9204607F01FFD07900E98A1
:101A5000484506DA434880684349896808440E903F
:101A600007E0079828B900204C4908704C490870D5
:101A700064E04AF240110E980844404517DD04EB3B
:101A800044003B4901EBC0008068002803DD0120D1
:101A9000394908700EE004EB4400354901EBC00001
:101AA0008068002806DA02203349087002E000202E
:101AB000314908709DF8240030B94FF07E5309A9D0
:101AC00020460E9AFFF728FC0698B0BB48F6CD01D9
:101AD0000E9890FBF1F201FB1200B0F5014F02DA13
:101AE0004FF0000A29E048F6CD010E9890FBF1F284
:101AF00001FB1200884220DABAF1000F1DD14FF02D
:101B0000010A404608F0A9F900E018E0CDE9040117
:101B10000E9808F0A2F94FF033321F4BCDE90001C7
:101B200007F058FFCDE90201DDE9042308F0FAFAD5
:101B300001D20120069006F0EBFE69E729E126E1DB
:101B400014480078174908700E9848452CDA054863
:101B500080680549896808440E902EE02C0000201A
:101B60006C01002014000020000000202B00002049
:101B7000F80C002038000020290000203700002049
:101B800035000020F80A0020F80B002000009643E2
:101B9000280000202A0000203343E94045000020AF
:101BA0004600002044000020BBF1010F05D10020B9
:101BB000F9490870F9490870EAE09DF8240030B945
:101BC0004FF07E5309A920460E9AFFF7A5FB4CF271
:101BD00080110E9890FBF1F201FB1200B0F5814FDD
:101BE0000EDA0020EE4908700D98002862D101201D
:101BF0000D9000200C9082460B900A90834659E08D
:101C00004CF280110E9890FBF1F201FB1200B0F53E
:101C1000014F1DDA0120E24908700C9890BB0120A9
:101C20000C9007F038F80546DE480178294051B19C
:101C300000782840DB490870032D01D1032008708B
:101C400001200B9036E00020D64908700B9031E05F
:101C50004CF280110E9890FBF1F201FB1200039000
:101C600008F0FBF80022D04BCDE9040108F020F980
:101C700009D20220CA4908700B9818B901200B90AC
:101C8000C848057016E04CF280110E9890FBF1F2F6
:101C900001FB120088420DDA0320C1490870BAF135
:101CA000000F07D14FF0010A00200D90781CC7B239
:101CB00006F02EFE4CF280110E9890FBF1F201FB23
:101CC0001200B0F52C5F62DD0E9890FBF1F201FB83
:101CD000120049F28061884259DA0A9820B901203D
:101CE0000A9007F07DF80646BBF1000F4FD1012E98
:101CF00001D0022E43D1AD4951F826004FF0834167
:101D000008F01AFF43D20020A949086000BFA84884
:101D100000680028FBD0A54951F826004FF0834108
:101D200008F00AFF33D24FF0010B46F2C00107FB67
:101D300001F008F092F800229E4BCDE9020107F075
:101D400049FECDE9040108F059F89B49886046F244
:101D5000C00107FB01F008F080F80022954BCDE9A7
:101D6000020107F037FECDE9040108F047F8934976
:101D7000886091488068896808440E9007E048F6BA
:101D8000C0310E980844404501DD4FF0010BD7E605
:101D900000BF0FB0BDE8F08F2DE9F041002500260F
:101DA00000240020864908728649886808F055F8A2
:101DB00021F00041074608F021F82D2806D05A28C6
:101DC00008D087280AD0B42810D10BE06E207C49B7
:101DD00048720BE06E207A49487207E06E2078491D
:101DE000487203E06E207649487200BF00BF754814
:101DF000C06874490969401AA0F50146B6F52C5F20
:101E000020DD4FF49675B5F5967F05DA6C480560D0
:101E100000206B4948601BE04FF4967068490860E9
:101E2000497A674A527A684B01FB123000EBD07155
:101E30004A106449C968A1F5E041E0398E1A60484A
:101E4000466005E05E48407A5D49086000204860D1
:101E5000012444E1611E01EB41015A4A02EBC10138
:101E6000886807F0FAFF21F00041074607F0C6FF37
:101E70002D2806D05A280CD087282ED0B4283CD143
:101E800033E06E2004EB44014D4A02EB81010872FD
:101E900033E0611E01EB41014A4A02EBC10148688F
:101EA00007F0DBFF21F00041074607F0A7FF5A21AA
:101EB00090FBF1F201FB120038B96E2004EB4401F3
:101EC0003F4A02EB8101087206E06E2004EB4401F8
:101ED0003B4A02EB810108720FE06E2004EB4401E3
:101EE000374A02EB8101087207E06E2004EB4401DF
:101EF000334A02EB8101087200BF00BF04EB4401CA
:101F0000304A02EBC101886807F0A7FF21F00041C9
:101F1000074607F073FF5A2811D003DC90B32D2831
:101F200064D104E087282ED0B4285FD14EE06E2023
:101F300004EB4401224A02EB8101487256E004EBB3
:101F40004401204A02EBC101486807F086FF21F0F6
:101F50000041074607F052FF5A2190FBF1F201FBC6
:101F6000120038B96E2004EB4401154A02EB8101DE
:101F7000487206E06E2004EB4401114A02EB810135
:101F8000487233E02AE06E2004EB44010C4A02EB75
:101F9000810148722AE00000450000204600002030
:101FA000290000202A0000200084E7406C01002066
:101FB0002C0000200088C9401400002000000020F0
:101FC000F8240020F80C0020905F01006E2004EB44
:101FD0004401FE4A02EB8101487207E0502004EB05
:101FE0004401FA4A02EB8101487200BF00BF04EBD2
:101FF0004400F74901EBC000C06804EB4401F44A17
:1020000002EBC1010969401AA0F50146B6F52C5F43
:102010003ADD4FF49675B5F5967F0CDA04EB440083
:10202000EA4941F82050002004EB4401E74A02EB62
:102030008101486052E04FF4967004EB4401E34A9A
:1020400042F8210004EB440102EB8101497A04EBE0
:102050004402DE4B03EB8202527ADE4B01FB12306C
:1020600000EBD0714A1004EB4401D94B03EBC101E2
:10207000C968A1F5E041E0398E1A04EB4400D34968
:1020800001EB8000466029E004EB4400CF4901EBFE
:102090008000007A04EB4401CC4A42F8210004EBB2
:1020A0004400114601EB8000007A04EB440102EB8E
:1020B0008101497A884209DA04EB4400114601EBB8
:1020C0008000407A04EB440142F821004FF4815033
:1020D00004EB4401BD4A02EB81014860641CBE4828
:1020E00000688442FFF6B6AEBDE8F0812DE9F0410C
:1020F00000250420B94908700220B9490870B94880
:102100004860002088600220B7490870B5484860E0
:10211000002088604FF40041B44802F0ECFB00203E
:10212000B3490860B349086000240026002709E08D
:10213000AF480468C4F16E00A949086104F16E005B
:10214000A94908612B2CF3DB4320A549086199209C
:10215000A5490861A24806690846076919E0A64929
:10216000A448006808F0E8FB00D213E08DB901250F
:1021700006F0CEFB06F0CCFB06F0CAFB9F490978BF
:10218000081DC11700EB5171C910A0EBC1019B4A9A
:102190001170E4E700BF0020954908609549086088
:1021A000002407E030198E490861381B8E49086108
:1021B0008F4804682B2CF5DB6E20894908618A4919
:1021C00008614FF40041894802F097FBBDE8F081B7
:1021D0002DE9F04100250420804908700220804943
:1021E0000870804848600020886002207E4908709E
:1021F0007C484860002088604FF400417B4802F032
:102200007AFB00207A4908607A4908600024002699
:10221000002709E07648046804F16E0070490861FF
:10222000C4F16E00704908612A2CF3DB98206C49D8
:10223000086144206C4908616948066908460769D5
:1022400019E06F496B48006808F076FC00D213E093
:102250008DB9012506F05CFB06F05AFB06F058FB31
:1022600066490978081DC11700EB5171C910A0EB30
:10227000C101624A1170E4E700BF00205C490860B8
:102280005C490860002407E0301B55490861381993
:1022900055490861564804682A2CF5DB6E205049E0
:1022A0000861514908614FF40041504802F025FB94
:1022B000BDE8F0812DE9F041002504204749087070
:1022C0000220474908704748486000208860022083
:1022D0004549087043484860002088604FF4004139
:1022E000424802F008FB4549087800EBD0714910DC
:1022F000A0EB410100294BD100203D4908603D4938
:10230000086000240026002709E039480468C4F169
:102310006E003349086104F16E00334908612E2CC8
:10232000F3DB40202E4908619C202F4908612C488E
:1023300006690846076917E032492E48006808F028
:10234000FBFA00D211E07DB9012506F0E1FA06F0B2
:10235000DFFA2A490978481DC11700EB5171C910ED
:10236000A0EBC101254A1170E6E700BF002020491B
:10237000086020490860002407E030191849086106
:10238000381B194908611A4804682E2CF5DB6AE0ED
:10239000002017490860174908600024002600271C
:1023A00009E013480468C4F16E000D49086104F1A6
:1023B0006E000D4908612E2CF3DB402008490861AE
:1023C0009C2009490861064806691DE0F8240020A0
:1023D000F80C0020905F0100380000202800002049
:1023E00014000020701101000000002000080140CE
:1023F0002C0000207C010020000022C337000020B8
:10240000000021430000E0C20846076917E0FE49CA
:10241000FE48006808F090FA00D211E07DB901256D
:1024200006F076FA06F074FAF9490978481DC117E2
:1024300000EB5171C910A0EBC101F54A1170E6E73C
:1024400000BF0020F3490860F0490860002407E05D
:102450003019F1490861381BF0490861ED480468FA
:102460002E2CF5DB00BF6E20EB490861EB490861BB
:102470004FF40041EA4802F040FABDE8F0812DE94E
:10248000F04100250420E74908700220E249087065
:10249000E5484860002088600220E0490870E24872
:1024A0004860002088604FF40041DD4802F023FAC4
:1024B000D749087800EBD0714910A0EB4101002901
:1024C0004BD10020D3490860D04908600024002681
:1024D000002709E0CF48046804F16E00CE49086186
:1024E000C4F16E00CD4908612E2CF3DB9C20CA4953
:1024F00008614020C9490861C7480669084607695C
:1025000017E0CA49C148006808F016FB00D211E084
:102510007DB9012506F0FCF906F0FAF9BC49097805
:10252000C81CC11700EB5171C910A0EBC101B84A1A
:102530001170E6E700BF0020B6490860B3490860A3
:10254000002407E0301BB44908613819B349086119
:10255000B04804682E2CF5DB4BE00020AD49086044
:10256000AA49086000240026002709E0A948046859
:1025700004F16E00A8490861C4F16E00A749086122
:102580002E2CF3DB9C20A44908614020A34908615C
:10259000A14806690846076917E0A5499B480068F5
:1025A00008F0CAFA00D211E07DB9012506F0B0F9B1
:1025B00006F0AEF996490978C81CC11700EB5171B5
:1025C000C910A0EBC101924A1170E6E700BF0020DC
:1025D000904908608D490860002407E0301B8E494F
:1025E000086138198D4908618A4804682E2CF5DB8A
:1025F00000BF6E2088490861884908614FF4004196
:10260000874802F07AF9BDE8F0812DE9F041002514
:1026100004208449087002207F490870824848607D
:102620000020886002207D4908707F4848600020B3
:1026300088604FF400417A4802F05DF974490878E7
:1026400000EBD0714910A0EB410100294BD10020D3
:10265000704908606D49086000240026002709E0E1
:102660006C480468C4F16E006B49086104F16E00A7
:102670006A4908612E2CF3DB4020674908619C20E1
:1026800066490861644806690846076917E06949B0
:102690005E48006808F050F900D211E07DB90125CC
:1026A00006F036F906F034F959490978881DC11742
:1026B00000EB5171C910A0EBC101554A1170E6E75A
:1026C00000BF00205349086050490860002407E01B
:1026D000301951490861381B504908614D48046858
:1026E0002E2CF5DB49E000204A4908604749086084
:1026F00000240026002709E046480468C4F16E0063
:102700004549086104F16E00444908612E2CF3DB51
:102710004020414908619C20404908613E480669C3
:102720000846076915E043493848006808F004F98D
:1027300000D20FE06DB9012506F0EAF834490978B6
:10274000881DC11700EB5171C910A0EBC101304ABF
:102750001170E8E700BF00202E4908602B4908608F
:10276000002407E030192C490861381B2B49086107
:10277000284804682E2CF5DB00BF6E20264908612E
:10278000264908614FF40041254802F0B6F8BDE83B
:10279000F0812DE9F0410025042022490870022033
:1027A0001D490870204848600020886002201B49AD
:1027B00008701D484860002088604FF400411848A8
:1027C00002F099F81249087800EBD0714910A0EB9B
:1027D0004101002964D100200E4908600B490860BE
:1027E00000240026002709E00A48046804F16E006E
:1027F00009490861C4F16E00084908612E2CF3DB19
:102800009C200549086117E00000E0C27C0100201F
:10281000370000202C0000201400002000000020C1
:102820000008014028000020701101000000EC4267
:102830000000EA4200008CC24020F7490861F748D6
:1028400006690846076917E0F549F648006808F088
:1028500073F900D211E07DB9012506F059F806F0B0
:1028600057F8F1490978881CC11700EB5171C9105C
:10287000A0EBC101EC4A1170E6E700BF0020EB4974
:102880000860E8490860002407E0301BE34908615C
:102890003819E1490861E54804682E2CF5DB49E068
:1028A0000020E2490860DF49086000240026002774
:1028B00009E0DE48046804F16E00D8490861C4F1FB
:1028C0006E00D54908612E2CF3DB9C20D3490861AA
:1028D0004020D1490861D14806690846076915E0DA
:1028E000CF49D048006808F027F900D20FE06DB951
:1028F000012506F00DF8CC490978881CC11700EBBA
:102900005171C910A0EBC101C74A1170E8E700BFBF
:102910000020C6490860C3490860002407E0301B56
:10292000BE4908613819BC490861C04804682E2CAA
:10293000F5DB00BF6E20B9490861B74908614FF463
:102940000041BB4801F0D9FFBDE8F0812DE9F0411D
:1029500000250420B74908700220B0490870B64825
:102960004860002088600220AB490870B248486087
:10297000002088604FF40041AD4801F0BCFFAA4937
:10298000087800EBD0714910A0EB4101002949D132
:102990000020A6490860A3490860002400260027FB
:1029A00009E0A2480468C4F16E009C49086104F182
:1029B0006E00994908612E2CF3DB4020974908618D
:1029C0009C2095490861954806690846076915E005
:1029D0009A499448006807F0AFFF00D20FE06DB944
:1029E000012505F095FF90490978C81DC11700EB36
:1029F0005171C910A0EBC1018B4A1170E8E700BF0B
:102A000000208A49086087490860002407E03019DF
:102A100082490861381B80490861844804682E2C6B
:102A2000F5DB49E00020814908607E490860002408
:102A30000026002709E07D480468C4F16E0077494C
:102A4000086104F16E00744908612E2CF3DB40200C
:102A5000724908619C2070490861704806690846FF
:102A6000076915E075496F48006807F065FF00D2F7
:102A70000FE06DB9012505F04BFF6B490978C81DC2
:102A8000C11700EB5171C910A0EBC101664A11706A
:102A9000E8E700BF0020654908606249086000243B
:102AA00007E030195D490861381B5B4908615F48E0
:102AB00004682E2CF5DB00BF6E205849086156498A
:102AC00008614FF400415A4801F017FFBDE8F0815A
:102AD0002DE9F041002504205649087002204F4995
:102AE0000870554848600020886002204A490870F4
:102AF00051484860002088604FF400414C4801F084
:102B0000FAFE4949087800EBD0714910A0EB410169
:102B1000002949D100204549086042490860002445
:102B20000026002709E04148046804F16E003B4993
:102B30000861C4F16E00384908612E2CF3DB9C203B
:102B4000364908614020344908613448066908461E
:102B5000076915E03A493348006807F0EDFF00D2F5
:102B60000FE06DB9012505F0D3FE2F490978481C07
:102B7000C11700EB5171C910A0EBC1012A4A1170B5
:102B8000E8E700BF002029490860264908600024C2
:102B900007E0301B2149086138191F4908612348A3
:102BA00004682E2CF5DB60E00020204908601D49F8
:102BB000086000240026002709E01C48046804F18E
:102BC0006E0016490861C4F16E00134908612E2C8D
:102BD000F3DB9C201149086140200F4908610F4830
:102BE00006690846076915E015490E48006807F0B0
:102BF000A3FF00D226E06DB9012505F089FE0A4940
:102C00000978481CC11700EB5171C910A0EBC10134
:102C1000054A1170E8E700000000002014000020C1
:102C200000008C427C010020370000202C00002096
:102C30000008014028000020701101000000B8C108
:102C40000000D04100BF0020884908608849086022
:102C5000002407E0301B874908613819864908615C
:102C6000824804682E2CF5DB00BF6E208149086184
:102C7000814908614FF40041804801F03EFEBDE803
:102C8000F08110B5044604F12D0010B9FFF720FFC4
:102C900024E02D2C02D1FFF759FE1FE004F15A0069
:102CA00010B9FFF776FD19E05A2C02D1FFF7ADFC01
:102CB00014E004F1870010B9FFF7E1FB0EE0872C68
:102CC00002D1FFF7F7FA09E004F1B40010B9FFF7F9
:102CD0007FFA03E0B42C01D1FFF708FA10BD10B55C
:102CE0000020674908706749087067490870487094
:102CF000664B674A674801786748007803F072FFBF
:102D000004F0F3FB04F05CFDFFF746F80320634991
:102D100008700220574908706148486000208860A8
:102D20000220554908705E48486000208860564976
:102D3000087048705349087001205A49087008709B
:102D400000240BE02046FEF7FCFD04EB4401564A4C
:102D500002EBC1018868FFF794FF641C53480068C8
:102D60008442EFDB4C4800784749087049480078B6
:102D7000487010BD30B500210022002000BF6FE078
:102D8000502300EB40044A4D05EB8404237200EB12
:102D9000400405EB8404637200EB4003424C04EBF7
:102DA000C303DB6800EB40043F4D05EBC40424691A
:102DB0001B1BA3F50142B2F52C5F35DD6E216E2998
:102DC0000CDA00EB40033A4C44F82310002300EBEC
:102DD0004004374D05EB8404636040E06E2300EB54
:102DE0004004334D45F8243000EB40032C4604EBFF
:102DF00083035B7A00EB400405EB8404647A42F6BB
:102E0000447503FB145400EB4003274D05EBC3034B
:102E1000DB68A3F5E043E03B1A1B00EB4003244CC6
:102E200004EB83035A601AE0502300EB4004204D6A
:102E300045F8243000EB40032C4604EB83031B7A57
:102E4000502B04DA502300EB400445F824304FF4B3
:102E5000815300EB4004164D05EB84046360401C75
:102E6000124B1B6898428BDB30BD00002C00002009
:102E70007C01002014000020000000200008014018
:102E8000290000203700002035000020F80A00202B
:102E9000F80B00203F0000203E0000202A00002008
:102EA00020A1070028000020F80C00203800002096
:102EB000F82400204FF07C501E4908600020486034
:102EC0001D4888601D48C8600020086148611C4892
:102ED00088631C48C8631C4808641C4848640C206C
:102EE000A1F86C000D20A1F86E000E20A1F8700072
:102EF0000F20A1F872001020A1F874001120A1F891
:102F000076001348086213484862134888621348E1
:102F1000C86213480863134848631348886113481C
:102F2000C86141F6CC70A1F878001148C1F87A0068
:102F300070470000F8300020000020410000704180
:102F40000000E0410000E8410000F0410000F841CD
:102F5000D88113BF96210E3F4ED101BF57EC5F3F82
:102F6000EA0414BFF6974D3F812612BF34A2843F76
:102F7000CDCC4C3E10B59AB00121092001F0CAFE1B
:102F800001217C4801F0DBFC1820ADF86400102022
:102F90008DF8670003208DF8660019A9764801F0C6
:102FA000FDFB36208DF828000F208DF829008DF8C4
:102FB0002A0001208DF82B000AA800F068FC0121EE
:102FC000102001F0B4FE41F20140ADF830000020C5
:102FD000ADF82C00ADF83200ADF82E0001223F21F3
:102FE000664802F058FD0BA9644802F051F901222D
:102FF0004121624802F0C3FC4FF4004001F0EEFDB5
:103000000121084601F079FE5D4800F0D1FE5D48DF
:103010000E905D480F900020109006201190002027
:103020001290802013904000149080001590202072
:10303000169000021790002018900EA9504800F03A
:1030400059FF01214E4800F080FF01214FF4047028
:1030500001F060FE3F20ADF8640000208DF86700AD
:1030600003208DF8660019A9484801F097FB00205D
:10307000059001208DF818008DF819004FF460209C
:1030800007900020089006208DF8240005A93D48EF
:103090004C3800F08CFC01231A460A2139484C3880
:1030A00000F01DFD012304220B2136484C3800F0AE
:1030B00016FD012303220C2132484C3800F00FFD8D
:1030C000012302220D212F484C3800F008FD012376
:1030D00005220E212B484C3800F001FD0123062269
:1030E0000F2128484C3800F0FAFC012125484C38C3
:1030F00000F094FC012123484C3800F084FC214866
:103100004C3800F0A2FC00BF1E484C3800F0A2FC76
:103110000028F9D11B484C3800F0A6FC00BF194824
:103120004C3800F0A6FC0028F9D1012115484C3894
:1031300000F0A9FC002208210F4801F0E0FB00226A
:1031400010210D4801F0DBFB1148406B1049096B61
:103150000F4A526A0E4B1B6A0D4CCDE90032CDE985
:103160000210E36AA26AE169A06904F039F81AB0B2
:1031700010BD000000043000000C014000100040B1
:10318000080002404C240140F832002000100140A9
:10319000F83000201E4A11881E4A127822B91E4AB1
:1031A000118001221B4B1A701B4A12888A1A10B216
:1031B0001A4A904203DA42F21072024410B241F20B
:1031C0008832904202DDA0EB420210B2124A118016
:1031D0007047134A1188134A127822B9124A118093
:1031E0000122104B1A70104A12888A1A10B20B4A28
:1031F000904203DA42F21072024410B241F2883275
:10320000904202DDA0EB420210B2074A11807047E3
:10321000240400408D0100209C01002078ECFFFF79
:10322000240800408C0100209E0100202DE9FF5F52
:1032300081468A464FF0000BA9EB0A0B484800680C
:1032400058444749086008460068B0F5FA6F02DD47
:103250004FF4FA6008604248006810F5FA6F02DA2D
:1032600040483F4908603E4909683F4A1268891A48
:1032700001EBC10006F0F1FDCDE90201384800681C
:1032800006F0EBFD07464FF03332384B06F04CFEAC
:10329000CDE90001DDE9022306F09CFB054606F0BE
:1032A000ADFD04462E4800682F490860B4F57A7FCA
:1032B00001DD4FF47A7414F57A7F00DA2C4C204645
:1032C00004B0BDE8F09F2DE9FF5F81468A464FF0CC
:1032D000000BA9EB0A0B27480068584425490860F1
:1032E00008460068B0F5FA6F02DD4FF4FA60086036
:1032F0002048006810F5FA6F02DA1A481D49086084
:103300001C4909681C4A1268891A01EBC10006F0C1
:10331000A4FDCDE902011748006806F09EFD0746AE
:103320004FF03332114B06F0FFFDCDE90001DDE92E
:10333000022306F04FFB054606F060FD04460D48EB
:1033400000680D490860B4F57A7F01DD4FF47A74A6
:1033500014F57A7F00DA064C204604B0BDE8F09FF1
:10336000A401002030F8FFFFA80100203333D33F31
:1033700018FCFFFFAC010020B0010020704700BF27
:10338000FEE700BFFEE700BFFEE700BFFEE77047B5
:103390007047704710B54FF0E0208469D44800684A
:1033A000401CD3490860D3480068401CD1490860DC
:1033B000D1480068401CD0490860D0480088D049F6
:1033C000A1F86C00CD484088A1F86E00CB488088F9
:1033D000A1F87000C948C088A1F87200C948006807
:1033E00007F05EFAC649A1F87400C749C34803F064
:1033F000FEFDC649C348006803F01BFFC4480078BF
:1034000005281AD14FF40041C24801F074FABC48B3
:10341000D0F87A2000F17801BA48006803F039FF4B
:103420000122BB49B84803F05BFFB9480078012886
:1034300003D1C103B74801F060FA03F08CFFB24832
:103440000068B5490860B04840684860AE48806888
:103450008860AD48C068C86004F0D7FFAF49086015
:103460000846006804F0F4FEAC48006804F059FF18
:10347000A9480068A2498863A74840680864A6482C
:103480008068C863A448C0684864A0480068C1F860
:103490007E0002F061FF0121A14802F055FA10BD43
:1034A0002DE9F04101219E4802F017FD00286FD060
:1034B00001219B4802F022FD9A48007830B1012892
:1034C00027D0022865D0032822D19AE096480088A8
:1034D000964908809448C088C8809349088907F0B5
:1034E00017FA88490860904840899149086001228C
:1034F0000821904801F003FA8248006807F0D0F9EB
:103500008D4908807F48006807F0CAF98B49088018
:10351000D4E08548008885490988401A77490880A1
:103520008148C0888149C988401A7449C8807E484A
:103530000089834908800846008807F0E9F90446B5
:1035400070480168204607F02BF86E4908607648FD
:1035500040897749096808447549086000220821B4
:10356000744801F0CCF9744800887549098888428C
:1035700003DD7348008870490880704800887049EE
:103580000988884203DA6E4800886C49088095E013
:10359000A0E0654840886549488063488088888005
:1035A00061480089664908800846008807F0B0F93C
:1035B000044654480168204606F0F2FF514908606D
:1035C000594840895A490968084459490860012204
:1035D0001021584801F093F9574800885849098844
:1035E000884203DD564800885349088053480088C4
:1035F00053490988884203DA514800884F490880B6
:103600005CE04948408849494988401A3B4948801C
:103610004548808845498988401A38498880424809
:103620000089474908800846008807F071F9044678
:1036300034480168204606F0B3FF324908603A4832
:1036400040893B4909680844394908600022102133
:10365000384801F054F90021314802F075F9364834
:10366000008837490988884203DD35480088324997
:1036700008803248008832490988884203DA304895
:1036800000882E4908802D48008807F041F9064639
:103690002948008807F03CF907461A48016838466F
:1036A00007F07BFA0546314607F082FA04464FF0F0
:1036B000804107F075F91349086000BF00BF194940
:1036C0000978481CC11700EB91718910A0EB8101AA
:1036D000144A1170BDE8F08110B54FF4806000F01D
:1036E00005FD18B14FF4806000F011FD10BD000021
:1036F0002C00002040000020300000208401002029
:10370000F830002080010020043300207C010020DC
:103710002B000020000801406C010020C0010020A7
:1037200000100040D2010020F8320020B801002033
:10373000C8010020000C0140CC010020CE01002077
:10374000D0010020704710B53648006840F00100F5
:1037500034490860084640683349084031494860A8
:1037600008460068314908402E490860084600684C
:1037700020F4802008600846406820F4FE0048607D
:103780004FF41F008860FFF7DDFF4FF0006028490D
:10379000086010BD10B5002100200022214B5B689D
:1037A00003F00C0121B1042906D0082928D107E033
:1037B000204B214C236027E01E4B1F4C236023E04D
:1037C000184B5B6803F47010164B5B6803F480328F
:1037D000022303EB904022B9184B4343164C23605D
:1037E0000DE0104B5B6803F4003323B1134B4343EC
:1037F000114C236003E00F4B43430F4C236003E065
:103800000C4B0D4C236000BF00BF064B5B68C3F33D
:1038100003130B4CE15C084B1B68CB40064C236048
:1038200010BD0000001002400000FFF8FFFFF6FE90
:1038300008ED00E000127A00D401002000093D00EC
:10384000D80100200948804709480047FEE7FEE705
:10385000FEE7FEE7FEE7FEE7FEE7FEE7FEE7FEE740
:1038600004480549054A064B7047000047370008E1
:1038700031010008803A002080400020803C002078
:10388000803C002031490143314A1160704770B5D6
:10389000002100230F22C47804B32D4C246804F4C3
:1038A000E064C4F5E064210AC1F10403CA4044782D
:1038B00004FA03F18478144021430901254C067869
:1038C000A155047804F01F050124AC4005786D1162
:1038D000AD0005F1E025C5F8004109E0047804F0E9
:1038E0001F050124AC401C4D0678761145F8264092
:1038F00070BD1A4A0A400243154B1B1F1A607047DD
:1039000039B1134A121D12680243114B1B1D1A6074
:1039100006E00F4A121D126882430D4B1B1D1A60F0
:103920007047042808D14FF0E021096941F00401F3
:103930004FF0E022116107E04FF0E021096921F02A
:1039400004014FF0E0221161704700000000FA0509
:103950000CED00E000E400E080E100E080FFFF1FEC
:1039600010B50446FA48844208D10121401501F0FF
:10397000EBF90021601501F0E7F917E0F548844202
:1039800008D10121001501F0DFF90021201501F017
:10399000DBF90BE0F048844208D10121C80301F0B3
:1039A000D3F900214FF4004001F0CEF910BD30B53D
:1039B0000246002000235068E84C20400D790C6836
:1039C00044EA0524204350609068E54C2040D1E94A
:1039D00002542C434D7944EA450420439060D06A58
:1039E00020F470000C7C641EE4B2234340EA0350D0
:1039F000D06230BD00210160017141718160C16000
:103A000001210174704721B1826842F00102826095
:103A100003E0826822F001028260704721B182686F
:103A200042F48072826003E0826822F480728260D5
:103A3000704710B50023CBB21AB144681C434460F0
:103A400002E044689C43446010BD816841F0080175
:103A500081607047014600208A6802F008020AB1BE
:103A6000012000E000207047816841F0040181607E
:103A70007047014600208A6802F004020AB1012062
:103A800000E00020704721B1826842F4A002826009
:103A900003E0826822F4A0028260704701460020A1
:103AA0008A6802F480020AB1012000E00020704719
:103AB00010B50A4600210023416821F46041531EDD
:103AC00041EA4331416010BD21B1426842F40062D5
:103AD000426003E0426822F4006242607047F0B541
:103AE00004460D4600200021092D11DDE068A5F1F6
:103AF0000A0606EB4607072606FA07F18843A5F1F2
:103B00000A0606EB460603FA06F10843E0600CE0FD
:103B1000206905EB4507072606FA07F1884305EB00
:103B2000450603FA06F108432061072A0FDA606BA5
:103B3000561E06EB86071F2606FA07F18843561E17
:103B400006EB860605FA06F10843606322E00D2ABB
:103B50000FDA206BD61F06EB86071F2606FA07F141
:103B60008843D61F06EB860605FA06F10843206354
:103B700010E0E06AA2F10D0606EB86071F2606FAA2
:103B800007F18843A2F10D0606EB860605FA06F159
:103B90000843E062F0BD21B1826842F48012826085
:103BA00003E0826822F48012826070470146C86C8C
:103BB00080B2704766484C300068704721B1426857
:103BC00042F48062426003E0426822F48062426014
:103BD000704721B1426842F48052426003E042687B
:103BE00022F48052426070470A460021816821F425
:103BF000E04111438160704721B1826842F4004284
:103C0000826003E0826822F400428260704721B142
:103C1000826842F40212826003E0826822F4021297
:103C200082607047014600208A6802F400120AB1DF
:103C3000012000E000207047F0B504461546002042
:103C400000220026092911DDE068A1F10A0707EB2F
:103C5000470C072707FA0CF29043A1F10A0707EB7C
:103C6000470703FA07F21043E0600CE0206901EB1C
:103C7000410C072707FA0CF2904301EB410703FAC6
:103C800007F210432061A06BC0F30156EF1C06F150
:103C9000010CA7EB0C0707EB870C1F2707FA0CF2A8
:103CA0009043EF1C06F1010CA7EB0C0707EB87070D
:103CB00001FA07F21043A063F0BD10B50A460021D7
:103CC0000023816B21F44011531E41EA03518163AB
:103CD00010BD08B5002300930090009B0B44009397
:103CE000009B1A6008BD08B50246002000900092B3
:103CF00001F12800009B184400900098006880B2F1
:103D000008BD0A4600214168164B19401143416025
:103D100070474162826270470A460021416821F083
:103D20001F0111434160704740B1094908310968DA
:103D300041F40001064A0832116007E004490831E5
:103D4000096821F40001024A08321160704700003E
:103D50000024014000280140003C0140FFFEF0FF2C
:103D6000FDF7F1FFFFFD3FFF0246002013680B4007
:103D70000BB1012000E000207047CA430260704789
:103D800070B502460020002300240B125568CEB205
:103D900005EA060415681D4015B10CB1012000E0CC
:103DA000002070BD00220A12D34303607047000058
:103DB00001684FF6FE721140016000210160416010
:103DC0008160C1608D49884208D18C4908394968B1
:103DD00041F00F01894A083A51608AE0874914315D
:103DE000884208D185490839496841F0F001834A81
:103DF000083A51607DE081492831884208D17F49E5
:103E00000839496841F470617C4A083A516070E0B1
:103E10007A493C31884208D178490839496841F4E7
:103E20007041764A083A516063E0744950318842E3
:103E300008D172490839496841F470216F4A083A3B
:103E4000516056E06D496431884208D16B490839A8
:103E5000496841F47001694A083A516049E067498C
:103E60007831884208D165490839496841F0706164
:103E7000624A083A51603CE06149884206D1011F1C
:103E8000096841F00F01021F116032E05C491431F2
:103E9000884208D15A49091F096841F0F001584A7F
:103EA000121F116025E056492831884208D1544933
:103EB000091F096841F47061514A121F116018E02E
:103EC0004F493C31884208D14D49091F096841F4E6
:103ED00070414B4A121F11600BE049495031884232
:103EE00007D14749091F096841F47021444A121F4C
:103EF0001160704710B50022026847F6F0739A43CC
:103F00000C6A8B6823430C6923434C6923438C69F7
:103F10002343CC6923434C6A23438C6A23431A43CB
:103F20000260CB6843600B6883604B68C36010BD60
:103F30000021016041608160C16001614161816176
:103F4000C161016241628162704721B1026842F041
:103F50000102026004E002684FF6FE731A4002603C
:103F600070471AB103680B43036002E003688B4398
:103F700003607047416070470146486880B27047EF
:103F800001460020002201F080531BB11C4B083B6E
:103F90001A6802E0194B083B1A6802EA01030BB1E8
:103FA000012000E00020704700F0805119B1144951
:103FB000091F086002E0114908394860704701464E
:103FC0000020002201F080531BB10D4B083B1A6802
:103FD00002E00A4B083B1A6802EA01030BB1012018
:103FE00000E00020704700F0805119B10449091F1A
:103FF000086002E001490839486070470800024043
:1040000008040240002044490860091D0860091D99
:104010000860091D086041483F4914310860704735
:1040200000213D498279002A3AD00A461268036885
:104030009A430B461A600A1D126803689A430B1DC7
:104040001A60027911440A6803681A430A60324A06
:104050000832126803689A432F4B08331A601A1DFE
:10406000126803689A432C4B0C331A604279102A69
:104070000ED11A1F126803681A43274B08331A60BF
:104080001A1D126803681A43234B0C331A600DE0A3
:104090002149427911440A6803681A430A6005E01D
:1040A000027911440A6803689A430A607047002144
:1040B000016001710C214171002181717047164925
:1040C000103109680143144A1032116070470146EB
:1040D0000020114A143212680A400AB1012000E09F
:1040E000002070470C4914310860704701460020D9
:1040F0000022094B1B6803EA0102074B14331B68BB
:104100000B4013B10AB1012000E0002070470249C2
:10411000143108607047000000040140FFFF0F00E9
:1041200001460020FE4A106800F038000843106085
:104130007047FB49096821F00801F94A11601146EE
:104140000968014311607047F549096821F01001C1
:10415000F34A116011460968014311607047F14844
:10416000EF494860F04848607047EE48EC494860C5
:10417000ED4848607047EA48006940F08000E8492F
:1041800008617047E648006940F08000E449086132
:1041900070470420E249C96801F0010109B101201A
:1041A0000EE0DF49C96801F0040109B1022007E00F
:1041B000DB49C96801F0100109B1032000E00420C7
:1041C000704700B502460423FFF7E3FF034603E010
:1041D000FFF7DFFF0346521E012B01D1002AF7D162
:1041E00002B90523184600BD30B5044604254FF436
:1041F0003020FFF7E6FF0546042D17D1C8480069B7
:1042000040F00200C649086108464461006940F078
:10421000400008614FF43020FFF7D3FF0546C04847
:10422000006941F6FD710840BD490861284630BD6E
:1042300010B504244FF43020FFF7C3FF0446042CCC
:1042400016D1B748006940F00400B5490861084636
:10425000006940F0400008614FF43020FFF7B1FFE3
:104260000446AF48006941F6FB710840AC4908615B
:10427000204610BD00B502460423FFF78AFF03461F
:1042800003E0FFF786FF0346521E012B01D1002AEF
:10429000F7D102B90523184600BD10B504244FF428
:1042A0003020FFF7E7FF0446042C16D19C48006934
:1042B00040F004009A4908610846006940F0400057
:1042C00008614FF43020FFF7D5FF04469448006999
:1042D00041F6FB71084092490861204610BD00205C
:1042E0008F49C96901F0020109B1012000E00020F5
:1042F000704730B5A5250424FFF7F1FF00B1002574
:104300004FF43020FFF75DFF0446042C3AD1854876
:1043100083498860844888600846006940F020002E
:1043200008610846006940F0400008614FF4302001
:10433000FFF747FF0446042C1BD17948006941F67A
:10434000DF710840764908610846006940F01000B6
:10435000086176480580E002FFF733FF0446052C2C
:1043600010D06F48006941F6EF7108406C49086150
:1043700008E0052C06D06A48006941F6EF71084054
:1043800067490861204630BD78B506460C460425CD
:1043900000200090E802FFF714FF0546042D24D109
:1043A0005F48006940F001005D4908613480E8021F
:1043B000FFF707FF0546042D10D1B01C0090200C1C
:1043C00000990880E802FFF7FCFE054654480069A2
:1043D00041F6FE7108405249086106E05048006904
:1043E00041F6FE7108404E490861284678BD70B517
:1043F00004460D460426F002FFF7E3FE0646042EAF
:1044000011D14748006940F0010045490861258005
:10441000F002FFF7D6FE06464148006941F6FE71FC
:1044200008403F490861304670BD70B505460E46EC
:104430000424E002FFF7C5FE0446042C17D13948D6
:1044400037498860384888600846006940F01000A5
:1044500008612E80E002FFF7B4FE0446052C06D06A
:104460002F48006941F6EF7108402D490861204648
:1044700070BD2DE9F04304464FF6FF763746B0464F
:10448000B1460425E443E6B2C4F30727C4F3074862
:104490004FEA1469E802FFF794FE0546042D49D15E
:1044A00020481F498860204888600846006940F01D
:1044B00010000861FF2E06D01C4808300680E80274
:1044C000FFF77FFE0546042D08D1FF2F06D01748C1
:1044D0000A300780E802FFF774FE0546042D0AD172
:1044E000B8F1FF0F07D011480C30A0F80080E802A7
:1044F000FFF767FE0546042D0AD1B9F1FF0F07D07B
:104500000A480E30A0F80090E802FFF75AFE054670
:10451000052D0FD00248006941F6EF71084007E011
:104520000020024023016745AB89EFCD00F8FF1F53
:10453000664908612846BDE8F08330B50546042485
:104540004FF43020FFF73DFE0446042C41D1604873
:104550005E4988605F4888600846006940F0200036
:1045600008610846006940F0400008614FF43020BF
:10457000FFF727FE0446042C22D15448006941F677
:10458000DF710840514908610846006940F0100099
:1045900008611DB100205049088002E0A5204E4965
:1045A00008804FF43020FFF70CFE0446052C10D095
:1045B0004648006941F6EF7108404449086108E047
:1045C000052C06D04148006941F6DF7108403F499B
:1045D0000861204630BDF0B505460E461746042456
:1045E0003B483A4988603B488860E002FFF7E9FDB4
:1045F0000446042C19D13548006940F010003349B5
:10460000086147F0F800304328433349891C08808B
:10461000E002FFF7D6FD0446052C06D02B480069C2
:1046200041F6EF710840294908612046F0BD27484E
:10463000C069800870472548006A704700202349F8
:10464000096801F0200109B1012000E00020704755
:1046500029B11E4A126902431C4B1A6104E01B4A2D
:1046600012698243194B1A617047014600200129E3
:1046700008D1164AD26902F001020AB1012008E00D
:10468000002006E0114AD2680A400AB1012000E089
:10469000002070470D49C860704704200B49C96865
:1046A00001F0010109B101200EE00849C96801F0DB
:1046B000040109B1022007E00449C96801F01001B2
:1046C00009B1032000E004207047000000200240F0
:1046D00023016745AB89EFCD00F8FF1F10B50446F5
:1046E000CC48844208D10121042000F02DFB002198
:1046F000042000F029FB46E0C748844208D101218C
:10470000082000F021FB0021082000F01DFB3AE00A
:10471000C248844208D10121102000F015FB00217D
:10472000102000F011FB2EE0BD48844208D1012189
:10473000202000F009FB0021202000F005FB22E0F2
:10474000B848844208D10121402000F0FDFA002140
:10475000402000F0F9FA16E0B348844208D1012164
:10476000802000F0F1FA0021802000F0EDFA0AE04C
:10477000AE48844207D10121801500F0E5FA0021FE
:10478000A01500F0E1FA10BD10B50121084600F0B7
:10479000DBFA0021012000F0D7FA10BD2DE9F0412D
:1047A000024600250026002000230024002791F85F
:1047B00003C00CF00F0591F803C00CF0100CBCF115
:1047C000000F03D091F802C04CEA050591F800C033
:1047D000BCF1000F31D0146800202BE04FF0010C29
:1047E0000CFA00F3B1F800C00CEA03069E4220D197
:1047F00083004FF00F0C0CFA03F7BC4305FA03FCDF
:104800004CEA040491F803C0BCF1280F06D14FF024
:10481000010C0CFA00FCC2F814C00AE091F803C0C5
:10482000BCF1480F05D14FF0010C0CFA00FCC2F8A6
:1048300010C0401C0828D1D31460B1F800C0BCF1EE
:10484000FF0F34DD546800202EE000F1080C4FF01B
:10485000010808FA0CF3B1F800C00CEA03069E4206
:1048600021D183004FF00F0C0CFA03F7BC4305FA7B
:1048700003FC4CEA040491F803C0BCF1280F05D1F5
:1048800000F1080C08FA0CF8C2F8148091F803C083
:10489000BCF1480F07D100F1080C4FF0010808FAED
:1048A0000CF8C2F81080401C0828CED35460BDE834
:1048B000F0814FF6FF710180022181700421C170E7
:1048C00070470246002093680B400BB1012000E0C6
:1048D000002070470146886880B270470246002079
:1048E000D3680B400BB1012000E000207047014667
:1048F000C86880B2704701617047416170470AB172
:10490000016100E041617047C16070474FF480323F
:104910000A438261816182618269826970470246CD
:104920000020434B18684FF68073184040EA02108D
:1049300008433F4B186070473E49C8617047F0B567
:104940000A46002300240021002500F00046B6F1AD
:10495000004F02D1364EF16901E0354E7168C0F367
:10496000034583B200F44016B6F5401F08D121F08C
:1049700070612F4E766826F070662D4F7E6012E0D3
:1049800000F48016B6F5801F06D1032606FA05F45A
:10499000A14341F0706106E0460D360103FA06F6C8
:1049A000B14341F0706122B1460D360103FA06F6BB
:1049B000314300F00046B6F1004F02D11C4EF161C8
:1049C00001E01B4E7160F0BD30B500228B071C0F5B
:1049D0000F2303FA04F2164B08338C1053F82430DB
:1049E0009343134C08348D1044F8253023468C1023
:1049F00053F824308C07240F00FA04F423430C4CA2
:104A000008348D1044F8253030BD0A49DC31086087
:104A10007047000000080140000C014000100140F8
:104A20000014014000180140001C0140002001401A
:104A30000000014000002042DF48006840F0010013
:104A4000DD49086008464068DC490840DA494860AA
:104A500008460068DA490840D749086008460068F7
:104A600020F4802008600846406820F4FE0048607A
:104A70004FF41F0088607047CF49096821F48031E6
:104A8000CD4A11601146096821F480211160B0F50A
:104A9000803F03D0B0F5802F0ED106E0C6490968EB
:104AA00041F48031C44A116007E0C349096841F408
:104AB000A021C14A116000E000BF00BF704710B5DF
:104AC00001460022002300204A11012A02D1BA4CDB
:104AD000236806E0022A02D1B74C236A01E0B64CF3
:104AE000636A01F01F02012494401C400CB10120B4
:104AF00000E0002010BD38B5002000900024002503
:104B000000BF3120FFF7DBFF05460098401C0090F6
:104B10000098B0F5A06F01D0002DF2D03120FFF742
:104B2000CEFF08B1012400E00024204638BD014634
:104B30000020A14A106820F0F80040EAC10010608F
:104B40007047A04908607047024600209A4B586899
:104B500020F47C1042EA01031843974B58607047D9
:104B600098490866704701460020934A506820F033
:104B700003000843506070478F48406800F00C0005
:104B80007047014600208C4A506820F0F00008432E
:104B90005060704701460020874A506820F4E0606A
:104BA00008435060704701460020834A506820F453
:104BB000605040EAC1005060704729B17E4A527A85
:104BC00002437D4B5A7204E07B4A527A82437A4B0D
:104BD0005A7270477B49D8310860704701460020FF
:104BE000754A506820F440400843506070470021E7
:104BF000714A20321170704A82F82010012802D0C8
:104C000004280AD104E001216B4A2032117005E02A
:104C10000521694A2032117000E000BF00BF7047D3
:104C20006949086070476449096A0143624A116230
:104C30007047654944390860704730B5002100224B
:104C4000002400235C4D6D6805F00C0121B104299E
:104C500005D0082923D105E05C4D056022E05B4DBD
:104C600005601FE0544D6D6805F47012524D6D687B
:104C700005F48034022505EB92421CB9544D55438E
:104C800005600BE04C4D6D6805F400351DB1504DCD
:104C90005543056002E04D4D5543056002E04B4D24
:104CA000056000BF00BF444D6D6805F0F0010909C3
:104CB000484D6B5C0568DD4045603F4D6D6805F40F
:104CC000E061090A434D6B5C4568DD4085603A4D03
:104CD0006D6805F46051C90A3E4D6B5C4568DD4066
:104CE000C560354D6D6805F44041890B3A4D6B5CEC
:104CF000C568B5FBF3F5056130BD29B12E4A52698F
:104D000002432D4B5A6104E02B4A526982432A4BDD
:104D10005A61704729B1284A92690243264B9A6129
:104D200004E0254A92698243234B9A61704729B176
:104D3000214AD2690243204BDA6104E01E4AD2695B
:104D400082431D4BDA61704729B11B4AD268024386
:104D5000194BDA6004E0184AD2688243164BDA60D5
:104D6000704729B1144A12690243134B1A6104E0D7
:104D7000114A12698243104B1A6170471249403937
:104D8000086070470F49C86470470B49C871704785
:104D90000948406A40F08070074948627047014600
:104DA0000020054A92680A400AB1012000E0002074
:104DB0007047014988727047001002400000FFF8F8
:104DC000FFFFF6FE000042428004424200127A00D9
:104DD00000093D00E8010020F801002010B504465C
:104DE000BE48844208D101218014FFF7ADFF0021A5
:104DF000A014FFF7A9FF16E0B948844208D10121A9
:104E00000014FFF7AEFF00212014FFF7AAFF0AE00D
:104E1000B448844207D10121C013FFF7A2FF00214B
:104E2000E013FFF79EFF10BD10B50022028802F4C8
:104E300041520B884C8823438C882343CC882343DE
:104E40000C8923434C8923438C892343CC892343F6
:104E50001A430280838B4FF2FF74234083830B8AB3
:104E6000038210BD2DE9F04F85B005460C464FF08A
:104E7000000902274FF000084FF0010B0026B24650
:104E8000A88B4FF240010840A88302202884B5F87F
:104E90001C90A068022801D100BF38E0A08810B99A
:104EA0004FF0010B01E04FF0020B8D48854200D11D
:104EB00000E000BF6846FFF7C0FEDDF800A0E08814
:104EC000B0F5007F0AD14FEA1A2000EB80004000C5
:104ED000A168B0FBF1F0401D86B20BE04FEA4B1029
:104EE000BAFBF0F000EB80004000A168B0FBF1F0ED
:104EF000401D86B20A20B6FBF0F606F00108A6EBCC
:104F00000800C0F34F074FF6FF7000EA0828022F91
:104F100001DBFF2F02DD02274FF00008E08840EAA6
:104F2000080038432884A088A18908436188084381
:104F30002188084340F4006040EA0909A5F81C9064
:104F400005B0BDE8F08F0021018041808180C180E3
:104F5000018141818181C181072101827047002146
:104F6000018041808180C180022181600021818196
:104F7000704721B1028842F04002028004E00288BA
:104F80004FF6BF731A400280704721B1828B42F402
:104F90008062828304E0828B4FF6FF331A40828363
:104FA000704730B5002400230C110125A540ABB299
:104FB0001AB185881D43858002E085889D438580E0
:104FC00030BD1AB183880B43838002E083888B4312
:104FD00083807047818170470146888970474FF60A
:104FE000FF62914204D0028842F48072028004E0A1
:104FF00002884FF6FF631A400280704721B1828811
:1050000042F00402828004E082884FF6FB731A406B
:105010008280704702884FF2FF731A400280028834
:105020000A4302807047018841F480510180704733
:1050300021B1028842F40052028004E002884DF659
:10504000FF731A400280704702460020012901D0F8
:10505000108B00E0908A70470146088A7047B1F5CE
:10506000804F04D1028842F48042028004E002882A
:105070004BF6FF731A4002807047024600201389E6
:105080000B400BB1012000E000207047CA430281B1
:105090007047F0B50246002000240023002501F0EF
:1050A0000F070126BE40B4B20B1101269E40B3B2D9
:1050B000968806EA03051689264016B10DB101202F
:1050C00000E00020F0BD10B5002201F00F04012324
:1050D000A3409AB2D343038110BD000000300140C9
:1050E00000380040003C004010B50446FE488442B1
:1050F00008D10121C014FFF727FE0021E014FFF7BB
:1051000023FEC4E0B4F1804F08D101210846FFF727
:1051100028FE00210120FFF724FEB8E0F348844276
:1051200008D101210220FFF71CFE00210220FFF719
:1051300018FEACE0EE48844208D101210420FFF7BC
:1051400010FE00210420FFF70CFEA0E0E948844295
:1051500008D101210820FFF704FE00210820FFF7F5
:1051600000FE94E0E448844208D101211020FFF7BA
:10517000F8FD00211020FFF7F4FD88E0DF488442AD
:1051800008D101212020FFF7ECFD00212020FFF7AE
:10519000E8FD7CE0DA48844208D101214014FFF7A1
:1051A000D3FD00216014FFF7CFFD70E0D5488442A5
:1051B00009D10121C804FFF7C7FD00214FF40020E9
:1051C000FFF7C2FD63E0D048844209D10121080500
:1051D000FFF7BAFD00214FF48010FFF7B5FD56E050
:1051E000CA48844209D101214805FFF7ADFD0021DD
:1051F0004FF40010FFF7A8FD49E0C548844208D1EC
:1052000001214020FFF7ADFD00214020FFF7A9FD5F
:105210003DE0C048844208D101218020FFF7A1FD74
:1052200000218020FFF79DFD31E0BB48844208D17A
:1052300001218015FFF795FD0021A015FFF791FDD5
:1052400025E0B648844209D101210804FFF77CFD1E
:1052500000214FF48030FFF777FD18E0B04884421A
:1052600009D101214804FFF76FFD00214FF4003000
:10527000FFF76AFD0BE0AB48844208D101218804A6
:10528000FFF762FD00214FF48020FFF75DFD10BDA8
:1052900000220288944B98420ED0994B98420BD032
:1052A000B0F1804F08D0914B984205D0904B984276
:1052B00002D0904B984204D14FF68F731A404B881E
:1052C0001A438D4B984207D08C4B984204D04FF62E
:1052D000FF431A40CB881A4302808B8883850B8852
:1052E0000385814B98420BD0854B984208D08B4B5D
:1052F000984205D08A4B984202D08A4B984201D1FD
:105300000B7A038601238382704770B50024002244
:105310000023058C4FF6FE7635400584028C838889
:10532000048B4FF68F752C40B51E2C400D882C43F6
:10533000751E2A400D892A434D882A436A4DA8428A
:105340000BD06F4DA84208D0744DA84205D0744DC3
:10535000A84202D0734DA84213D14FF6F7752A40E8
:105360004D892A434FF6FB752A408D882A434FF614
:10537000FF652B404FF6FF552B408D892B43CD8980
:105380002B4383800483CD888586028470BD70B5ED
:10539000002400220023058C4FF6EF76354005846B
:1053A000028C8388048B48F6FF752C404FF6FF452E
:1053B0002C400D884FF6FF7606EA05252C434FF664
:1053C000DF752A400D8906EA05152A434D8806EA4D
:1053D00005152A43444DA84202D0494DA8421DD18B
:1053E0004FF67F752A404D894FF6FF7606EA051580
:1053F0002A434FF6BF752A408D8806EA05152A43D1
:105400004FF6FF352B404FF2FF752B408D8906EA92
:1054100085052B43CD8906EA85052B4383800483CC
:10542000CD880587028470BD70B50024002200235A
:10543000058C4FF6FF6635400584028C8388848B8B
:105440004FF68F752C404FF6FC752C400D882C4381
:105450004FF6FF552A400D894FF6FF7606EA0525DF
:105460002A434D8806EA05252A431F4DA84202D04B
:10547000234DA8421DD14FF2FF752A404D894FF6AA
:10548000FF7606EA05252A434FF6FF352A408D8828
:1054900006EA05252A434EF6FF752B404DF6FF75AB
:1054A0002B408D8906EA05152B43CD8906EA0515A3
:1054B0002B4383808483CD888587028470BD70B53B
:1054C000002200230024058C4EF6FF76354005842B
:1054D000038C8488828B48F6FF752A404FF6FF457F
:1054E0002A400D8820E00000002C0140000400400C
:1054F00000080040000C0040001000400014004074
:1055000000340140004C0140005001400054014073
:1055100000180040001C00400020004000400140F6
:1055200000440140004801404FF6FF7606EA052599
:105530002A434DF6FF752B400D8906EA05352B43AE
:105540004D8806EA05352B43FA4DA84202D0FA4DA4
:10555000A84208D14BF6FF752C408D894FF6FF7697
:1055600006EA85152C4384808283CD88A0F84050BC
:10557000038470BD828B4FF2FF331A408283828B8B
:105580004FF6FF7303EA01231A4382837047F0B595
:105590000C461546002200210026078C4EF6FF7CA3
:1055A00007EA0C070784828B018C4FF6FF7707EA26
:1055B000043640F6FF473A404FF6FF7707EA0527E3
:1055C0003A434FF6FF7707EA03373A43D94FB842D9
:1055D0000ED0D94FB8420BD0B0F1804F08D0D74F82
:1055E000B84205D0D64FB84202D0D64FB84206D105
:1055F0004DF6FF77394046F48057394305E047F6CA
:10560000FF57394044F48057394382830184F0BD09
:10561000828B4FF6F3731A408283828B0A43828314
:105620007047F0B50C461546002200210026078C75
:105630004FF6FF6C07EA0C070784828B018C4FF64C
:10564000FF7707EA04264FF60C773A404FF6FF77CC
:1056500007EA03172F433A43B64FB8420ED0B64F6E
:10566000B8420BD0B0F1804F08D0B44FB84205D04B
:10567000B34FB84202D0B34FB84206D14FF6FF57EE
:10568000394046F48077394305E04FF2FF573940FF
:1056900044F48077394382830184F0BD028B4FF25A
:1056A000FF331A400283028B4FF6FF7303EA012394
:1056B0001A4302837047F0B50C46154600220021BC
:1056C0000026078C4FF6EF7C07EA0C070784028B55
:1056D000018C4FF6FF7707EA041640F6FF473A4081
:1056E0004FF6FF7707EA03373A434FF6FF7707EAAB
:1056F00005273A438F4FB8420ED08F4FB8420BD098
:10570000B0F1804F08D08D4FB84205D08C4FB842D1
:1057100002D08C4FB84206D14FF6DF77394046F0C1
:105720001007394305E04FF65F77394044F0100722
:10573000394302830184F0BD028B4FF6F3731A40A4
:105740000283028B0A4302837047F0B50C4615466C
:1057500000220021068C4FF6FE773E400684028B25
:10576000018C4FF60C7632407E1C06EA03162E435F
:105770003243704EB0420ED06F4EB0420BD0B0F1FB
:10578000804F08D06D4EB04205D06D4EB04202D071
:105790006C4EB04206D14FF6FD76314044F0010622
:1057A000314305E04FF6F576314044F001063143D0
:1057B00002830184F0BD70B505460C465D48854204
:1057C0000ED05D4885420BD0B5F1804F08D05B48C4
:1057D000854205D05A48854202D05A48854200D1B8
:1057E00000E000BF208850B92389A288618828463C
:1057F000FFF7ABFFE1882846FFF79EFF25E02088F2
:1058000004280AD12389A28861882846FFF753FF1C
:10581000E1882846FFF742FF17E0208808280AD1D0
:105820002389A28861882846FFF7FBFEE188284685
:10583000FFF7EEFE09E02389A28861882846FFF77A
:10584000A6FEE1882846FFF795FE70BD2DE9F041E0
:1058500005460C4600260127608808B9022600E0AC
:105860000026A088012801D1022700E00127208816
:10587000A0B92389A28861882846FFF766FFE188DE
:105880002846FFF759FF23893A4631462846FFF755
:1058900012FFE1882846FFF701FF13E02389A28861
:1058A00061882846FFF707FFE1882846FFF7F6FEE4
:1058B00023893A4631462846FFF747FFE1882846C4
:1058C000FFF73AFFBDE8F0810A884B881A438B88BE
:1058D0001A43CB881A430B891A434B891A438B8985
:1058E0001A43A0F8442070474FF6FF7181800021D1
:1058F0000180C18041800172704700210180418098
:105900008180C180018141818181C18170470021F5
:1059100001804180012181800021C1800181704787
:105920000021018041808180C1800181418181818C
:1059300070470000002C014000340140000400408A
:1059400000080040000C004021B1028842F0010232
:10595000028004E002884FF6FE731A40028070470E
:1059600031B1B0F8442042F40042A0F8442005E0F0
:10597000B0F84420C2F30E02A0F8442070471AB1D8
:1059800083890B43838102E083898B438381704742
:105990008182704741EA0203A0F8483070471AB18B
:1059A00083890B43838102E083898B438381704722
:1059B00001894FF6F8721140018170470A460021B3
:1059C00001894FF68F73194011430181704730B53B
:1059D00004460D4629462046FFF7F0FF208940F097
:1059E0000700208130BD2DE9F04104460D461646E2
:1059F0001F46602D06D13B46012231462046FFF767
:105A00005AFE05E03B46012231462046FFF79DFE47
:105A100029462046FFF7D2FF208940F00700208169
:105A2000BDE8F08130B50C4600210189C9B24FF6BE
:105A3000FF7505EA0325154325432943018130BD40
:105A40002DE9F04105460E46174698460024434688
:105A50003A4631462846FFF7E5FF2C894FF6F870A5
:105A6000044044F007044FF68F70044044F0700483
:105A70002C81BDE8F081F0B504460D4616461F4660
:105A80003B46324629462046FFF7CCFF208940F4AA
:105A900080402081F0BD0185828270470A46002146
:105AA00001884FF68F731940114301807047F0B59C
:105AB0000C4615461E460021002200230189028B58
:105AC000038C4FF6F877394021434FF6FC473A40B4
:105AD00040F201173A434FF6DD773B404FF6FF7730
